:020000040800F2
:10000000880700205D040008310200083302000860
:10001000370200083B0200083F0200080000000011
:100020000000000000000000000000004302000883
:1000300045020008000000004702000849020008CD
:1000400077040008770400087704000877040008A4
:100050007704000877040008770400087704000894
:100060007704000877040008770400087704000884
:100070007704000877040008770400087704000874
:100080007704000877040008770400087704000864
:100090007704000877040008770400087704000854
:1000A0007704000877040008770400087704000844
:1000B0007704000877040008770400087704000834
:1000C0007704000877040008770400087704000824
:1000D00077040008831400087704000877040008F8
:1000E0007704000877040008770400087704000804
:1000F00077040008770400087704000877040008F4
:1001000077040008770400087704000877040008E3
:1001100077040008770400087704000877040008D3
:1001200077040008770400087704000877040008C3
:1001300077040008770400087704000877040008B3
:1001400077040008770400087704000877040008A3
:100150007704000877040008770400087704000893
:100160007704000877040008770400087704000883
:100170007704000877040008770400087704000873
:10018000770400087704000800F002F800F041F856
:100190000AA090E8000C82448344AAF10107DA45E2
:1001A00001D100F036F8AFF2090EBAE80F0013F0F3
:1001B000010F18BFFB1A43F0010318476844000001
:1001C00088440000103A24BF78C878C1FAD8520792
:1001D00024BF30C830C144BF04680C6070470000C1
:1001E0000023002400250026103A28BF78C1FBD840
:1001F000520728BF30C148BF0B607047752901F016
:100200007787002070471FB502F006FA1FBD10B5B2
:1002100010BD02F091F81146FFF7F5FF01F08FF9DC
:1002200002F0AFF803B4FFF7F2FF03BC01F0CAF825
:10023000704700BFFEE700BFFEE700BFFEE700BF5C
:10024000FEE7704770477047704700000CB500200C
:10025000019000907648006840F48030744908604E
:1002600000BF7348006800F4003000900198401C03
:100270000190009818B90198B0F5A04FF1D16C48E1
:10028000006800F4003010B10120009001E000206F
:1002900000900098012846D165484030006840F041
:1002A00080506349403108606248006840F4404033
:1002B000604908605E48083000685D4908310860A0
:1002C0000846006840F4004008600846006840F4B2
:1002D000A05008605848091F0860081F006840F0D7
:1002E0008070091F086000BF5148006800F000706E
:1002F0000028F9D040F20570504908604C48083099
:10030000006820F003004A49083108600846006888
:1003100040F00200086000BF45480830006800F067
:100320000C000828F8D10CBD10B54548006840F411
:100330007000434908603E48006840F001003C49B5
:10034000086000203A4908310860394800683D4992
:100350000840374908603C48091D0860081F0068CC
:1003600020F48020091F0860002031490C3108600A
:10037000FFF76CFF4FF0006031498039086010BD15
:1003800070B500200022022300240221284D0835E8
:100390002D6805F00C0020B1042806D0082834D1BF
:1003A00007E02A4D2A4E356033E02A4D284E35604D
:1003B0002FE01F4D2D1D2D68C5F380541C4D2D1DA4
:1003C0002D6805F03F0154B1224DB5FBF1F5184EF3
:1003D000361D3668C6F3881605FB06F209E01B4D8C
:1003E000B5FBF1F5124E361D3668C6F3881605FBCF
:1003F00006F20F4D2D1D2D68C5F301456D1C6B00D8
:10040000B2FBF3F5124E356003E0104D104E35602F
:1004100000BF00BF064D08352D68C5F303150E4E0D
:10042000705D0B4D2D68C540094E356070BD0000F4
:10043000003802400070004008544007003C024071
:1004400088ED00E0FFFFF6FE103000240024F400E9
:100450000000002000127A000400002009488047B4
:1004600009480047FEE7FEE7FEE7FEE7FEE7FEE796
:10047000FEE7FEE7FEE7FEE704480549054A064BAE
:100480007047000029030008890100088801002046
:100490008807002088030020880300203249014398
:1004A000324A1160704770B5002100230F22C478D2
:1004B0001CB32E4C246804F4E064C4F5E064C4F377
:1004C0000721C1F10404E3B20A4144789C40E1B23F
:1004D0008478144021430C07210E254C0578615582
:1004E000047804F01F050124AC4005786D11AD00BF
:1004F00005F1E025C5F8004109E0047804F01F0586
:100500000124AC401B4D0678761145F8264070BD9D
:10051000194A0A400243154B1B1F1A60704739B134
:10052000124A121D12680243104B1B1D1A6006E08E
:100530000E4A121D126882430C4B1B1D1A60704735
:10054000042808D14FF0E021096941F004014FF07F
:10055000E022116107E04FF0E021096921F0040178
:100560004FF0E022116170470000FA050CED00E049
:1005700000E400E080E100E080FFFF1F10B50446CA
:100580009848844208D10121084600F086FB0021EA
:10059000012000F082FB76E09348844208D10121DB
:1005A000022000F07AFB0021022000F076FB6AE0D6
:1005B0008E48844208D10121042000F06EFB002106
:1005C000042000F06AFB5EE08948844208D10121E2
:1005D000082000F062FB0021082000F05EFB52E0E2
:1005E0008448844208D10121102000F056FB0021EC
:1005F000102000F052FB46E07F48844208D10121E0
:10060000202000F04AFB0021202000F046FB3AE0C9
:100610007A48844208D10121402000F03EFB0021AD
:10062000402000F03AFB2EE07548844208D10121B9
:10063000802000F032FB0021802000F02EFB22E021
:100640007048844208D10121801500F026FB00216A
:10065000A01500F022FB16E06B48844208D101216E
:10066000401500F01AFB0021601500F016FB0AE0AF
:100670006648844207D10121001500F00EFB0021DD
:10068000201500F00AFB10BDF0B50A46002100233A
:10069000002400BF3DE0012505FA01F3156805EAD5
:1006A00003049C4234D105684F000326BE40B54385
:1006B000056015794E00B54006683543056015792B
:1006C000012D02D01579022D16D185684F00032621
:1006D000BE40B543856055794E00B54086683543C8
:1006E0008560456801268E40B5434560456896792A
:1006F0008E40B6B235434560C5684F000326BE4004
:10070000B543C560D5794E00B540C6683543C56070
:10071000491C1029BFD3F0BD4FF6FF7101600021C5
:10072000017141718171C171704708B54FF4803218
:100730000092009A0A430092009AC261C161009A35
:10074000C261C2690092C269009208BD02460020DF
:1007500013690B400BB1012000E0002070470146F7
:10076000086980B270470246002053690B400BB104
:10077000012000E0002070470146486980B27047C0
:1007800001837047418370470AB1018300E04183D0
:1007900070474161704742694A4042617047F0B515
:1007A000002300244D07ED0E02FA05F3CE1000F1F0
:1007B000200555F826504E07F70E0F26BE40B543CC
:1007C000CF1000F1200646F82750CE1000F120058A
:1007D00055F8265045EA0304CE1000F1200545F8EF
:1007E0002640F0BD00000240000402400008024024
:1007F000000C0240001002400014024000180240A9
:10080000001C024000200240002402400028024058
:10081000F948006840F00100F74908600020F649F7
:1008200008310860F4480068F4490840F24908605B
:10083000F348091D0860F348EF4984310860F04827
:100840001038091D0860EC48006820F48020EA494F
:1008500008600020E8490C310860E7498C310860E5
:1008600070470021E44A921C1170114608707047CD
:1008700010B501460022002300204A11012A02D1AE
:10088000DD4C236808E0022A03D1DB4C7034236876
:1008900002E0D94C7434236801F01F020124944013
:1008A0001C400CB1012000E0002010BD38B5002034
:1008B00000900024002500BF3120FFF7D9FF054636
:1008C0000098401C00900098B0F5A04F01D0002D7A
:1008D000F2D03120FFF7CCFF08B1012400E0002462
:1008E000204638BD01460020C34A106820F0F800B9
:1008F00040EAC10010607047C3490860704700219A
:10090000BD4A703211701170012802D004280AD13A
:1009100004E00121B84A7032117005E00521B64AA1
:100920007032117000E000BF00BF7047B749086027
:10093000704770B5049C41EA82150126C6EB530648
:1009400045EA0645054345EA0465AB4E361D35606C
:1009500070BDAD4908667047820142EA0172A64B3C
:1009600084331A607047A8498866704710B58301C0
:1009700043EA016343EA02739F4C8834236010BD4D
:10098000A14908677047A049C86470470246002023
:10099000994B0833186820F0EC6042EA01031843D1
:1009A000954B08331860704702460020924B08337D
:1009B000186820F0784042EA010318438E4B083350
:1009C00018607047014600208B4A0832106820F0FA
:1009D000030008431060704787480830006800F043
:1009E0000C00704701460020834A0832106820F04E
:1009F000F000084310607047014600207E4A08322C
:100A0000106820F4E0500843106070470146002051
:100A1000794A0832106820F4604040EAC100106052
:100A20007047F0B500210022002402250026022391
:100A3000714F08373F6807F00C0121B1042905D038
:100A4000082937D105E0724F076036E0714F076023
:100A500033E0694F3F1D3F68C7F38056664F3F1D27
:100A60003F6807F03F036EB16A4FB7FBF3F7DFF85B
:100A700088C10CF1040CDCF800C0CCF3881C07FB27
:100A80000CF40CE0624FB7FBF3F7DFF86CC10CF12C
:100A9000040CDCF800C0CCF3881C07FB0CF4564FA8
:100AA0003F1D3F68C7F301477F1C7D00B4FBF5F78E
:100AB000076002E0564F076000BF00BF4E4F083787
:100AC0003F6807F0F0010909534F7A5C0768D74087
:100AD0004760494F08373F6807F4E051890A4E4F95
:100AE0007A5C4768D7408760434F08373F6807F410
:100AF0006041490B484F7A5C4768D740C760F0BDFA
:100B0000002100F44072B2F5407F0AD13A4A08321F
:100B1000116821F4F811414A02401143364A083263
:100B20001160354A70321268C0F30B031A43324B1E
:100B300070331A607047354944390860704733494B
:100B40004039086070473649086070470146002008
:100B5000294A8C32106820F01F004A1E1043264A92
:100B60008C321060704701460020234A8C32106896
:100B700020F4F8504A1E40EA02201F4A8C321060CE
:100B80007047014600201C4A8C32106820F4401047
:100B900008431060704701460020174A8C321068E5
:100BA00020F4400008431060704701460020124ABC
:100BB0008C32106820F440300843106070471949A7
:100BC0000860704739B10C4A3032126802430A4B50
:100BD00030331A6006E0084A303212688243064B0E
:100BE00030331A607047F9B1034A34321268024355
:100BF000014B34331A601CE000380240FFFFF6EA74
:100C0000103000240030002000004742800E474290
:100C10000024F40000127A0014000020FFFCFF0FF3
:100C20005C014742E01147428F4A126882438E4B73
:100C30001A60704739B18C4A121D126802438A4B00
:100C40001B1D1A6006E0884A121D12688243864BFB
:100C50001B1D1A60704739B1834A0C321268024377
:100C6000814B0C331A6006E07F4A0C3212688243D3
:100C70007D4B0C331A60704739B17B4A10321268D1
:100C80000243794B10331A6006E0774A103212683B
:100C90008243754B10331A60704739B1724A243A57
:100CA00012680243704B243B1A6006E06E4A243AF5
:100CB000126882436C4B243B1A60704739B16A4A10
:100CC000203A12680243684B203B1A6006E0664AED
:100CD000203A12688243644B203B1A60704739B156
:100CE000614A1C3A126802435F4B1C3B1A6006E0E3
:100CF0005D4A1C3A126882435B4B1C3B1A6070478A
:100D000039B1594A143A12680243574B143B1A60DE
:100D100006E0554A143A12688243534B143B1A605A
:100D2000704739B1504A103A126802434E4B103B9B
:100D30001A6006E04C4A103A126882434A4B103B54
:100D40001A60704739B1484A1C3212680243464B58
:100D50001C331A6006E0444A1C3212688243424B3C
:100D60001C331A60704739B13F4A2032126802437F
:100D70003D4B20331A6006E03B4A20321268824322
:100D8000394B20331A60704739B1374A2432126820
:100D90000243354B24331A6006E0334A243212688A
:100DA0008243314B24331A60704739B12E4A2C32BA
:100DB000126802432C4B2C331A6006E02A4A2C326C
:100DC00012688243284B2C331A60704739B1264A87
:100DD000303212680243244B30331A6006E0224A54
:100DE000303212688243204B30331A60704701283A
:100DF00008D11D493C31096841F008011A4A3C32CA
:100E0000116007E018493C31096821F00801164AD1
:100E10003C321160704739B1134A273A12780243C5
:100E2000114B273B1A7006E00F4A273A127882438B
:100E30000D4B273B1A7070470B484030006840F05C
:100E40008070094940310860704701460020064A19
:100E5000283A12680A400AB1012000E000207047D9
:100E600001492639087070473438024010B50446ED
:100E7000FA48844208D101211020FFF752FF0021D7
:100E80001020FFF74EFF57E0F548844209D10121B9
:100E90004804FFF735FF00214FF40030FFF730FF23
:100EA0004AE0F048844209D101218804FFF728FF75
:100EB00000214FF48020FFF723FF3DE0EA48844201
:100EC00009D10121C804FFF71BFF00214FF40020C6
:100ED000FFF716FF30E0E548844209D101210805FB
:100EE000FFF70EFF00214FF48010FFF709FF23E00A
:100EF000DF48844208D101212020FFF712FF0021A2
:100F00002020FFF70EFF17E0DA48844209D10121C3
:100F10008807FFF7F5FE00214FF08040FFF7F0FE55
:100F20000AE0D548844207D101214005FFF7E8FED9
:100F300000216005FFF7E4FE10BD2DE9FF470546DF
:100F40000E460024A14600BFA046B08900B100BFF4
:100F50002C8A24F44054F08804432C82AC8941F25A
:100F60000C608443B0883189084371890843044385
:100F7000AC81AC8A24F44074B0890443AC826846E6
:100F8000FFF74FFDB548854202D0B948854202D1EE
:100F9000DDF80C9001E0DDF80890A88900F400402D
:100FA00040B109EBC90000EB091031684900B0FB02
:100FB000F1F707E009EBC90000EB0910316889007F
:100FC000B0FBF1F76420B7FBF0F0040120096421C5
:100FD00001FB1078A88900F4004040B1322000EBFA
:100FE000C800B0FBF1F000F00700044308E0322035
:100FF00000EB08106421B0FBF1F000F00F00044397
:101000002C81BDE8FF874FF41651016000218180DB
:10101000C18001810C21418100218181704710B57F
:1010200002460020108A20F470600B884C8823430D
:101030008C882343CC8823431843108210BD0021A1
:10104000018041808180C180704721B1828942F452
:101050000052828104E082894DF6FF731A4082813A
:101060007047028B02F47F420283028B0A430283A1
:10107000704721B1828942F40042828103E0828973
:10108000C2F30E028281704721B1828A42F400626B
:10109000828204E0828A4FF2FF731A408282704794
:1010A000C1F308028280704701468888C0F30800B7
:1010B0007047028A4FF6F0731A400282028A0A438E
:1010C0000282704721B1828942F00202828104E0EB
:1010D00082894FF6FD731A408281704782894FF2F0
:1010E000FF731A40828182890A4382817047028A93
:1010F0004FF6DF731A400282028A0A430282704767
:1011000021B1028A42F48042028204E0028A4BF654
:10111000FF731A4002827047818941F00101818189
:10112000704721B1828A42F00802828204E0828AFA
:101130004FF6F7731A4082827047028BD2B2028355
:10114000028B42EA01220283704721B1828A42F077
:101150002002828204E0828A4FF6DF731A40828284
:10116000704721B1828A42F01002828204E0828AB2
:101170004FF6EF731A4082827047828A4FF6FB73F4
:101180001A408282828A0A438282704721B1828A0F
:1011900042F00202828204E0828A4FF6FD731A4016
:1011A000828270471AB1838A0B43838202E0838A6A
:1011B0008B4383827047F0B5034600240026002548
:1011C000002040F66A17B94200D100BF1846C1F3AB
:1011D000421401F01F06012707FA06F5012C01D180
:1011E0000C3004E0022C01D1103000E014301AB1B0
:1011F00007682F43076002E00768AF430760F0BD50
:1012000002460020B1F5007F00D100BF13880B40DB
:101210000BB1012000E00020704701F40072B2F52C
:10122000007F00D100BFCA430280704770B50246FC
:10123000002400230025002040F66A16B14200D1A8
:1012400000BFC1F3421501F01F03012606FA03F3A4
:10125000012D13D19689334017E0000000100140A2
:101260000044004000480040004C00400050004056
:101270000014014000780040007C0040022D02D1A3
:10128000168A334001E0968A33400C12012606FA92
:1012900004F41688344013B10CB1012000E00020A2
:1012A00070BD10B50022002340F66A14A14200D19F
:1012B00000BF0A1201249440A3B2DC43048010BD95
:1012C00010B504466FF00400FFF73AF9E11704EB9C
:1012D0005171C1F3C701394A11701046007800EB13
:1012E0004001C1EBC0104FF6FF7101EAC000344964
:1012F000088010BD0146314A12784A434FF0E0237E
:101300005A6100229A611A46126942F001021A617A
:1013100000BF4FF0E022106900F001021AB100F4A2
:101320008032002AF5D04FF0E022126922F001024B
:101330004FF0E0231A6100229A6170470146204A6B
:1013400012884A434FF0E0235A6100229A611A46FC
:10135000126942F001021A6100BF4FF0E0221069E9
:1013600000F001021AB100F48032002AF5D04FF0EB
:10137000E022126922F001024FF0E0231A610022FC
:101380009A61704770B504464FF4077094FBF0F013
:10139000C6B24FF4077094FBF0F100FB114085B228
:1013A00005E04FF40770FFF7C9FF701EC6B2002EAC
:1013B000F7D115B12846FFF7C1FF70BD240000200A
:1013C0002600002000BF704700BF4A4A128802F082
:1013D0004002002AF9D0C2B2464B9A80704710B53D
:1013E00088B0044601210846FFF7ECFB01211020DC
:1013F000FFF742FC072209213F48FFF7D0F90722F7
:101400000A213D48FFF7CBF94FF4C0600690022057
:101410008DF81C008DF81D0000208DF81E000120A5
:101420008DF81F0006A93448FFF72EF9029400201A
:10143000ADF80C00ADF80E00ADF81000ADF81400DA
:101440000C20ADF8120002A92A48FFF776FD012111
:101450002848FFF7FAFD012240F225512548FFF701
:10146000AAFE25208DF8040003208DF805008DF8D4
:10147000060001208DF8070001A8FFF714F808B056
:1014800010BD10B540F225511A48FFF7CFFE80B3CA
:101490001848FFF709FEC4B21848008800F400405D
:1014A00038BB1648008800F4804030B113480088EB
:1014B00040F40040114908801BE0212C01D00D2C84
:1014C00006D10E48008840F480400C49088010E0A6
:1014D0000A480088C0F30D0009490C5407480088E9
:1014E000401C0649088008460088C72801DD002006
:1014F000088010BD00100140000002402C000020B8
:101500004C00002030B502460B46002001210FE0C0
:10151000545C302C09DB545C392C06DC545C303CC8
:1015200000EB800504EB450000E006E04C1CE1B256
:10153000545C232C01D09942EADB00BF30BD86B059
:1015400000240026A0464FF4A060FEF7A7FF4FF44A
:101550001650FFF744FF4820FFF7B2FE00F09AFD57
:1015600000F012FA4FF49670FFF70CFF00F0D3FA78
:101570000020B2490870B249487000F0EDFAC82066
:1015800000F084FB44F6206000F05FFBADA000F0AB
:10159000A3FD52E108F101001FFA80F81E2098FB1C
:1015A000F0F100FB118038B9AD48006808B901209E
:1015B00000E00020AA4908600A20FFF7E3FEA948DE
:1015C000008800F40040002874D00020A449091DC0
:1015D0000860A4480088C0F30D05A348007841289E
:1015E00035D10020954908709549487000F0B4FA4B
:1015F000002401E0601C84B29B48005D422801D0B9
:10160000AC42F7DBAC4206D198A000F065FD0020AB
:101610009449088011E1E1B29348FFF773FF02900B
:101620002A1BD1B2904A1019FFF76CFF03904FF4B8
:101630007A72029901FB02F000F007FB039800F0B8
:1016400025FB8DA0DDE9021200F046FDA5E08648ED
:101650000078432810D1E9B28348FFF753FF029086
:101660004FF47A72029901FB02F000F0B2FC8DA0F7
:10167000029900F031FD90E07B480078442810D1B9
:10168000E9B27948FFF73EFF02904FF47A7202996F
:1016900001FB02F000F0C5FC8AA0029900F01CFDDD
:1016A0007BE071480078452874D1C82000F0EEFA3C
:1016B000002402E07BE0601C84B26B48005D462899
:1016C00001D0AC42F7DBAC4206D168A000F004FDCB
:1016D000002064490880B0E0E1B26348FFF712FFE0
:1016E0000290264601E0701C86B25F48805D472864
:1016F00001D0AE42F7DBAE4206D15CA000F0ECFCBC
:1017000000205849088098E0321BD1B2564A10197F
:10171000FFF7F8FE0390DDE90201884206D353A0EB
:1017200000F0DAFC00204F49088086E0344601E0F2
:10173000601C84B24C48005D482801D0AC42F7DB05
:10174000AC4206D149A000F0C7FC00204549088002
:1017500073E0A21BD1B2444A9019FFF7D3FE049064
:101760002A1BD1B2404A1019FFF7CCFE05904FF466
:101770007A79DDF814C00CFB09F302A807C800F061
:1017800007FB0598009058A002A90EC900F0A4FC20
:1017900003E0FFE735A000F09FFC002031490880FE
:1017A0001420FFF7EFFD01202D49091D08600020DE
:1017B00000F008F90746002F3ED000202849091DF7
:1017C0000860012F16D0022F24D0032F1AD0042F27
:1017D0002DD11A4908701A49487000F0BDF9C82087
:1017E00000F054FA44F6206000F02FFA4CA000F00C
:1017F00073FC1CE044F6206000F013FC4EA000F0E7
:101800006BFC14E044F6206000F0E3FB50A000F015
:1018100063FC0CE0C82000F039FA534B1422534902
:10182000642000F0B5FA52A000F056FC00BF00BFE3
:1018300001200B49091D086000BFABE62F00002006
:1018400033000020496E697469616C697A6174695A
:101850006F6E2066696E69736865640D0A0000002A
:10186000A48242422C0000204C0000204572726F7E
:1018700072210D0A00000000B4AEBFDABFD8D6C690
:10188000A3BAD5FDCFD2D0C5BAC5A3A8256C752003
:101890006B487A202F20256C75206D56A3A90D0A60
:1018A00000000000B4AEBFDABFD8D6C6A3BAB7BD39
:1018B000B2A8D0C5BAC5A3A8256C75206B487AA379
:1018C000A90D0A00B4AEBFDABFD8D6C6A3BABEE22D
:1018D000B3DDB2A8D0C5BAC5A3A8256C75206B48E6
:1018E0007AA3A90D0A000000B4AEBFDABFD8D6C6ED
:1018F000A3BAC9A8C6B5D0C5BAC5A3A8256C752D0D
:10190000256C7520487A202F20256C7520487A2078
:101910002F20256C75206D73A3A90D0A000000000F
:10192000B0B4BCFCBFD8D6C6A3BAD5FDCFD2D0C503
:10193000BAC50D0A00000000B0B4BCFCBFD8D6C6C2
:10194000A3BABEE2B3DDB2A8D0C5BAC50D0A000085
:10195000B0B4BCFCBFD8D6C6A3BAB7BDB2A8D0C578
:10196000BAC50D0A00000000C0D40100A086010025
:10197000B0B4BCFCBFD8D6C6A3BAC9A8C6B5D0C53A
:10198000BAC50D0A000000001CB501211120FFF7A7
:1019900019F91C20009000208DF8040003208DF818
:1019A000050001208DF8070069463548FEF76CFEFA
:1019B0000120009002208DF8070069463148FEF7AB
:1019C00063FE1CBD10B5044614B101202E490870F9
:1019D0002D480078002837D010212948FEF7B6FEA0
:1019E00078B108212648FEF7B1FE50B10421244801
:1019F000FEF7ACFE28B101212248FEF7A7FE012820
:101A000022D10A20FFF7BEFC00201F4908701021D8
:101A10001B48FEF79BFE08B9012010BD082118489D
:101A2000FEF794FE08B90220F7E704211448FEF7F8
:101A30008DFE08B90320F0E701211248FEF786FE6B
:101A400001281BD10420E8E710210D48FEF77EFE97
:101A5000012813D108210A48FEF778FE01280DD18C
:101A600004210748FEF772FE012807D1012105482D
:101A7000FEF76CFE10B90120034908700020CCE786
:101A800000100240000002402E0000201CB5012181
:101A90000720FFF797F84FF48060009002208DF840
:101AA000050001208DF8040000208DF8060069462D
:101AB000F748FEF7E9FD4FF4BA7000906946F54823
:101AC000FEF7E2FD43F6FF7000906946F248FEF72C
:101AD000DBFD1CBD10B5024680210023EF4C2360C6
:101AE000002015E002EA010323B90023EB4C0C347B
:101AF000236003E00123E94C0C3423600123E74C0D
:101B0000236049100023E64CC4F88832431CD8B245
:101B10000828E7DB10BD10B5FFF7B8FF0020E1494A
:101B20000860E04924390860DE490C390860DD4965
:101B300020390860D94908310860DA49303908602D
:101B40000120D749C1F898020520FFF71BFC0020AF
:101B5000D349C1F8980210BD70B50020D249086081
:101B6000FFF7B8FF002505E0D049485DFFF7B2FF59
:101B7000681CC5B2042DF7DB0120CB4908600024A6
:101B800001E0601CC4B20A2CFBDB0020C6490860DF
:101B90000120FFF79FFF002505E0C549485DFFF7DD
:101BA00099FF681CC5B2042DF7DB0120BE4908600F
:101BB000002401E0601CC4B20A2CFBDB0020BA49FF
:101BC00008600220FFF786FF002505E0B949485D5F
:101BD000FFF780FF681CC5B2042DF7DB0120B24976
:101BE0000860002401E0601CC4B20A2CFBDB012069
:101BF000AC4928390860002401E0601CC4B20A2CFA
:101C0000FBDB0020A749283908600120FFF7BAFB59
:101C100070BD10B50020A44908600E20FFF75AFFE0
:101C2000002405E0A449085DFFF754FF601CC4B21E
:101C3000082CF7DB01209C490860A049C1F88C0200
:101C4000002098492839086010BD70B52DED048B2F
:101C50000546284600F0CFFB41EC190B9FED980B91
:101C600053EC102B00F0DAFB41EC180B00F096FB64
:101C700004469149CC71200A8871200C4871200ECD
:101C80000871FFF7C6FFBDEC048B70BD70B52DED7C
:101C9000048B0546284600F0AEFB41EC190B9FED86
:101CA0008A0B53EC102B00F0B9FB41EC180B00F041
:101CB00075FB0446B4F5804F01D343F6FF74C4F3BB
:101CC0000D047D494C70200A0870FFF7A2FFBDEC9F
:101CD000048B70BD70B50020734908600B20FFF7BE
:101CE000F9FE002405E07A49085DFFF7F3FE601C69
:101CF000C4B2082CF7DB01206B490860002501E025
:101D0000681CC5B20A2DFBDB0020674908600C2067
:101D1000FFF7E0FE082405E06D49085DFFF7DAFEF5
:101D2000601CC4B2102CF7DB01205F49086000255D
:101D300001E0681CC5B20A2DFBDB00205A4908608F
:101D40000D20FFF7C7FE102405E06149085DFFF78D
:101D5000C1FE601CC4B2142CF7DB0120524908609C
:101D6000002501E0681CC5B20A2DFBDB01204D49AE
:101D700028390860002501E0681CC5B20A2DFBDB8C
:101D800000204849283908600120FFF7FBFA70BDA0
:101D90002DE9FF5F2DED048B8A469346049800F0F1
:101DA0002AFB41EC190B9FED460B53EC102B00F076
:101DB00035FB41EC180B00F0F1FA814645488245AD
:101DC00000D98246504600F016FB41EC190B9FEDFE
:101DD0003C0B53EC102B00F021FB41EC180B00F0F6
:101DE000DDFA07463B48834500D98346584600F054
:101DF00002FB41EC190B9FED320B53EC102B00F062
:101E00000DFB41EC180B00F0C9FA04462546079873
:101E10008608B6F5803F01D34FF6FF76B0462C49D1
:101E200081F807904FEA192088714FEA19404871EC
:101E30004FEA19600871CF70380A8870380C487002
:101E4000380E0870CC73200A8873200C4873200E5B
:101E50000873CD72280A8872280C4872280E0872FE
:101E6000CE74300A8874464681F811804FEA1820F3
:101E70000874FFF72FFF00200C4908700E200C4952
:101E80004870FFF769FEBDEC048BBDE8FF9F0000C2
:101E90000004024000000240000802408802404264
:101EA00000004042B4024142A88240422F0000207C
:101EB00033000020370000203B000020000041429A
:101EC00095D626E80B2E1140083D9B559F7B3C4044
:101ED000140100200084D71770B500206549086000
:101EE0000E20FFF7F7FD002505E06349485DFFF789
:101EF000F1FD681CC5B2082DF7DB01205D490860C3
:101F0000002401E0601CC4B20A2CFBDB01205B4909
:101F10000860002401E0601CC4B20A2CFBDB002036
:101F2000564908600120FFF72DFA70BD70B50646CE
:101F3000012E26D100204F4908601620FFF7CAFD68
:101F4000002504E04E49485DFFF7C4FD6D1CB5F562
:101F5000805FF7D3012047490860002400E0641C3B
:101F60000A2CFCD3012045490860002400E0641CD1
:101F70000A2CFCD30020414908600120FFF702FA37
:101F800026E000203B4908601620FFF7A3FD00254E
:101F900004E03C49485DFFF79DFD6D1CB5F5805F91
:101FA000F7D3012033490860002400E0641C0A2CA8
:101FB000FCD3012031490860002400E0641C0A2C95
:101FC000FCD300202D4908600120FFF7DBF900BF9A
:101FD00070BD70B505462C48B0FBF5F0040AB4F5A9
:101FE000803F01D34FF6FF7424202349C87100209D
:101FF00088714871C02008710F20C8708C70200A49
:10200000487000200870FFF767FF0120FFF78EFF80
:10201000C0201E49087000201D494870FFF79CFD34
:1020200070BD70B505461848B0FBF5F0040AB4F56C
:10203000803F01D34FF6FF7424200F49C871002060
:1020400088714871C02008710F20C8708C70200AF8
:10205000487000200870FFF73FFF0020FFF766FF81
:10206000C0200A490870002009494870FFF774FD34
:1020700070BD0000A8824042430000208C02414213
:10208000222600082236000800CA9A3B2F000020B2
:10209000330000201CB501212020FEF793FD4FF4F2
:1020A000C060009001208DF8040000208DF806002B
:1020B00003208DF8050001208DF8070069460448CB
:1020C000FEF7E2FA4FF4C0610148FEF759FB1CBD70
:1020D00000140240704700000FB4044910B503AA71
:1020E000029800F0FBF810BC5DF814FB28000020FB
:1020F0002DE9F0410646002410687529314616A5E1
:1021000010D0AFF30080002802DA404213A507E0A8
:1021100031688A0701D512A502E0490704D511A547
:10212000012401E0AFF3008000210A2206F1240718
:1021300009E0B0FBF2FCB0FBF2F302FB1C00303014
:1021400078541846491C0028F3D123462A463046C5
:10215000BDE8F04100F068B8000000002D0000006C
:102160002B000000200000002DE9F0410F4605463D
:10217000002028622846E968884770B3252805D0E2
:10218000D5E901219047286A401CF2E7E968284612
:10219000002688476C2804460AD0682C08D04C2CAE
:1021A00035D06A2C31D0742C31D07A2C2FD016E057
:1021B000E968064628468847B042044608D16C2E96
:1021C00023D04FF480662846E9688847044606E035
:1021D0006C2E03D04FF4807601E01EE04026E4B17F
:1021E000A4F14100192802D8203446F400663A468A
:1021F000214628462E60FEF701F860B1012808D07C
:10220000FF1D27F007070837B4E78026DBE7002625
:10221000D9E73F1DAEE72046B2E7286ABDE8F08166
:1022200070477047704770472DE9F0470D46994653
:102230009246044600F124080168880604D5E06946
:1022400021F01001216000E00120A84201DD471BC0
:1022500000E00027A1697A1902EB0900081AA061C1
:102260002078C00602D42046AFF30080002608E0A4
:10227000D4E901211AF806009047206A401C761C18
:1022800020624E45F4DB2078C0060AD52046AFF325
:10229000008006E0D4E9012130209047206A401CEC
:1022A0002062381EA7F10107F4DC07E0D4E9012120
:1022B00018F805009047206A401C2062281EA5F1EE
:1022C0000105F3DC2046AFF300802078000602D53C
:1022D0000220BDE8F0870120FBE70000074B70B546
:1022E0000D467B4400F011F80446284600F020F823
:1022F00010B14FF0FF3070BD204670BDE3F0FFFF1E
:1023000001694A1C02610878704700B58FB0CDE9B9
:1023100001310021059105497944CDE903101146A9
:102320006846FFF721FF0FB000BD0000E5FFFFFF8B
:10233000007B00F080007047754600F02BF8AE4639
:1023400005006946534620F00700854618B020B5C1
:10235000FEF792F8BDE820404FF000064FF000076E
:102360004FF000084FF0000B21F00701AC46ACE83D
:10237000C009ACE8C009ACE8C009ACE8C0098D46AA
:10238000704710B50446AFF300802046BDE810400A
:10239000FDF748BF00487047280100204FEA11535D
:1023A000A3F58063D3F11E03A8BFD3F1200C08DB93
:1023B0004FF0004242EAC12252EA505232FA03F090
:1023C000704709420BD4102BC4BF0020704703F59F
:1023D000787CBCF1FF3F05D04FF0FF3070474FF0E5
:1023E0000000704770B500F0C3F800BF4992248028
:1023F00000207047F0E7B0FA80F310FA03F10AD03A
:10240000C3F11D0303F580634FEA41504FEA0352C5
:1024100002EBD12170474FF000007047DFF848C150
:1024200070B51CEA111E1EBF1CEA13159EEA0C0FA4
:1024300095EA0C0F00F06F8081EA030423EA4C1345
:102440004EEAD47E21EA4C1141F4801143F480130A
:10245000AE44A1FB024CA0FB0365AEF17F7E3619B2
:1024600055EB0C05A1FB034C4CF10003A0FB021C37
:1024700016EB0C06654153F10003094218BF46F004
:10248000010613F4007F0BD14FEA03314FEA053008
:10249000340341EA155140EA16506FF003020AE096
:1024A0004FEAC3214FEAC520F40241EA555140EA00
:1024B00056506FF0020202EB2E4201EB025585EA04
:1024C000CE710AD05FEA440C18BF24F0004450F1EA
:1024D000000041F1000120EAD47040F2FE7C624528
:1024E00000D270BDA84214BF4FF080444FF040446A
:1024F000002E08BF0024BEF1806FA8BFA1F1C0412B
:10250000BDE8704080F282804FF0000001F1C041D0
:1025100001F0004170479EEA0C0F0CEA131518BF3A
:1025200095EA0C0F06D04FF0000081EA030E0EF082
:10253000004170BD00F01CF88900013E00F007B8B2
:1025400000F009B84FEA430C5FEA5C5C08D081EA0E
:10255000030100F05BB84FEA410C5FEA5C5CF6D126
:102560004FF00000014970470000FF070000F87FAE
:102570000EF1020E2EF0030E5EF8046B364205D407
:10258000012A43EB030515F5001F12D8012841EB82
:10259000010C1CF5001F0CD80ED14FEAD17C15F5AB
:1025A000001F0CEB4C0C0CF1020C08BF4CEBD37C65
:1025B00004E04FF0080C01E04FEAD37C0CEB4C0533
:1025C00026FA05F606F00706B6F1040C06D20EEB65
:1025D000860CBDE870404CF0010C6047DFE80CF061
:1025E000090B02024FF000414FF00000A1F500215D
:1025F00070BD19461046012851EB010418BFD4F5EF
:10260000001484BF002001F0004170BD0808A0F54F
:1026100000114FEA310170474FF04070E1EE100AAF
:102620007047FFFC0000FFFC0000FFFC0000FFFC07
:102630000000FFFC0000FFFC0000FFFC0000FFFCAE
:102640000000FFFC0000FFFC0000FFFC0000FFFC9E
:102650000000FFFC0000FFFC0000FFFC0000FFFC8E
:102660000000FFFC0000FFFC0000FFFC0000FFFC7E
:1036200000000000000003FC000007F800000BF49D
:1036300000000FF0000013EC000017E800001BE48E
:1036400000001FE0000023DC000027D800002BD47E
:1036500000002FD0000033CC000037C800003BC46E
:1036600000003FC0000043BC000047B800004BB45E
:1036700000004FB0000053AC000057A800005BA44E
:1036800000005FA00000639C0000679800006B943E
:1036900000006F900000738C0000778800007B842E
:1036A00000007F800000837C0000877800008B741E
:1036B00000008F700000936C0000976800009B640E
:1036C00000009F600000A35C0000A7580000AB54FE
:1036D0000000AF500000B34C0000B7480000BB44EE
:1036E0000000BF400000C33C0000C7380000CB34DE
:1036F0000000CF300000D32C0000D7280000DB24CE
:103700000000DF200000E31C0000E7180000EB14BD
:103710000000EF100000F30C0000F7080000FB04AD
:103720000000000000000000000000000000000099
:103730000000000000000000000000000000000089
:103740000000000000000000000000000000000079
:103750000000000000000000000000000000000069
:104620000000000044460008000000204C0000008C
:10463000C4010008904600084C0000203C07000020
:10464000E0010008007A030A0000000000000000FA
:104650000102030406070809000000000102030428
:104660000102030406070809000000000000000022
:104670000000010040000001000000050F41323F32
:10468000FF000025097B4200000000000000000040
:040000050800018965
:00000001FF
