:020000040800F2
:100000007014002055040008D5010008D70100082D
:10001000E1010008E3010008E5010008000000001C
:10002000000000000000000000000000E7010008E0
:10003000E901000800000000EB010008ED010008E4
:100040006F0400086F0400086F0400086F040008C4
:100050006F0400086F0400086F0400086F040008B4
:100060006F0400086F0400086F0400086F040008A4
:100070006F0400086F0400086F0400086F04000894
:100080006F0400086F0400086F0400086F04000884
:100090006F0400086F0400086F0400086F04000874
:1000A0006F0400086F0400086F0400086F04000864
:1000B0006F040008EF010008C73000086F04000853
:1000C0006F0400086F0400086F0400086F04000844
:1000D0006F040008492300086F0400086F0400083B
:1000E0006F0400086F0400086F04000800F002F8B5
:1000F00000F05FF80AA090E8000C82448344AAF163
:100100000107DA4501D100F054F8AFF2090EBAE860
:100110000F0013F0010F18BFFB1A43F0010318473B
:1001200098670000B86700000A444FF0000C10F810
:10013000013B13F0070408BF10F8014B1D1108BF65
:1001400010F8015B641E05D010F8016B641E01F805
:10015000016BF9D113F0080F1EBF10F8014BAD1C55
:100160000C1B09D16D1E58BF01F801CBFAD505E073
:1001700014F8016B01F8016B6D1EF9D59142D6D3CD
:10018000704700000023002400250026103A28BFF5
:1001900078C1FBD8520728BF30C148BF0B607047F9
:1001A000782903F01983002070471FB51FBD10B5D3
:1001B00010BD03F06FFC1146FFF7F7FF02F026F9C0
:1001C00003F08DFC03B4FFF7F2FF03BC02F058F814
:1001D00030BF000070471AA003F0B6FA00BFFEE778
:1001E000704770477047704770477047704710B549
:1001F00001211A4801F036FE19480068401C1849D0
:1002000008601848006828B117480068401C164963
:10021000086002E000201449086014480088401C6F
:1002200012490880084600880A2807D1104800684B
:10023000401C0F49086000200C49088010BD0000D8
:100240000D0A486172644661756C745F48616E6442
:100250006C6572204552524F520D0A000004004056
:1002600070090020880900207C090020000000207F
:10027000040000200CB50020019000906C4800683C
:1002800040F480306A49086000BF6948006800F4A3
:10029000003000900198401C0190009818B9019816
:1002A000B0F5A06FF1D16248006800F4003010B1E1
:1002B0000120009001E0002000900098012843D127
:1002C0005C48006840F010005A4908600846006821
:1002D00020F0030008600846006840F00200086053
:1002E000534840685249486008464068486008469C
:1002F000406840F4806048600846406820F47C1004
:1003000048600846406840F4E810486008460068C5
:1003100040F08070086000BF4548006800F0007041
:100320000028F9D04248406820F003004049486066
:100330000846406840F00200486000BF3C48406802
:1003400000F00C000828F9D10CBD10B5FFF792FFA2
:1003500010BD10B53648006840F00100344908600F
:1003600008464068344908403149486008460068FA
:10037000324908402E4908600846006820F4802071
:1003800008600846406820F4FE0048604FF41F00F3
:100390008860FFF7DAFF4FF000602949086010BD60
:1003A00010B5002100200022214B5B6803F00C01F6
:1003B00021B1042906D0082928D107E0214B224C7D
:1003C000236027E01F4B204C236023E0184B5B6821
:1003D00003F47010164B5B6803F48032022303EBC6
:1003E000904022B9194B4343174C23600DE0104B4A
:1003F0005B6803F4003323B1144B4343124C236076
:1004000003E0104B4343104C236003E00D4B0E4CB4
:10041000236000BF00BF064B5B68C3F303130C4CA3
:10042000E15C094B1B68CB40074C236010BD00000A
:1004300000100240002002400000FFF8FFFFF6FE1F
:1004400008ED00E000127A000800002000093D00DD
:100450000C0000200948804709480047FEE7FEE7F6
:10046000FEE7FEE7FEE7FEE7FEE7FEE7FEE7FEE764
:1004700004480549054A064B70470000530300082D
:10048000ED000008700E0020701400207010002095
:100490007010002031490143314A1160704770B536
:1004A000002100230F22C47804B32D4C246804F4E7
:1004B000E064C4F5E064210AC1F10403CA40447851
:1004C00004FA03F18478144021430901254C06788D
:1004D000A155047804F01F050124AC4005786D1186
:1004E000AD0005F1E025C5F8004109E0047804F00D
:1004F0001F050124AC401C4D0678761145F82640B6
:1005000070BD1A4A0A400243154B1B1F1A60704700
:1005100039B1134A121D12680243114B1B1D1A6098
:1005200006E00F4A121D126882430D4B1B1D1A6014
:100530007047042808D14FF0E021096941F0040117
:100540004FF0E022116107E04FF0E021096921F04E
:1005500004014FF0E0221161704700000000FA052D
:100560000CED00E000E400E080E100E080FFFF1F10
:1005700010B50446CC48844208D10121042000F083
:100580002DFB0021042000F029FB46E0C7488442EF
:1005900008D10121082000F021FB0021082000F0F3
:1005A0001DFB3AE0C248844208D10121102000F02E
:1005B00015FB0021102000F011FB2EE0BD48844205
:1005C00008D10121202000F009FB0021202000F0AB
:1005D00005FB22E0B848844208D10121402000F008
:1005E000FDFA0021402000F0F9FA16E0B3488442F9
:1005F00008D10121802000F0F1FA0021802000F0D4
:10060000EDFA0AE0AE48844207D10121801500F0DE
:10061000E5FA0021A01500F0E1FA10BD10B50121A6
:10062000084600F0DBFA0021012000F0D7FA10BDE7
:100630002DE9F04102460025002600200023002479
:10064000002791F803C00CF00F0591F803C00CF0DF
:10065000100CBCF1000F03D091F802C04CEA050564
:1006600091F800C0BCF1000F31D0146800202BE0DD
:100670004FF0010C0CFA00F3B1F800C00CEA0306CD
:100680009E4220D183004FF00F0C0CFA03F7BC43BD
:1006900005FA03FC4CEA040491F803C0BCF1280FEE
:1006A00006D14FF0010C0CFA00FCC2F814C00AE0AD
:1006B00091F803C0BCF1480F05D14FF0010C0CFAC2
:1006C00000FCC2F810C0401C0828D1D31460B1F857
:1006D00000C0BCF1FF0F34DD546800202EE000F1B3
:1006E000080C4FF0010808FA0CF3B1F800C00CEA4E
:1006F00003069E4221D183004FF00F0C0CFA03F742
:10070000BC4305FA03FC4CEA040491F803C0BCF1B5
:10071000280F05D100F1080C08FA0CF8C2F8148073
:1007200091F803C0BCF1480F07D100F1080C4FF05D
:10073000010808FA0CF8C2F81080401C0828CED333
:100740005460BDE8F0814FF6FF7101800221817095
:100750000421C17070470246002093680B400BB122
:10076000012000E0002070470146886880B2704791
:1007700002460020D3680B400BB1012000E00020AE
:1007800070470146C86880B2704701617047416197
:1007900070470AB1016100E041617047C160704774
:1007A0004FF480320A438261816182618269826989
:1007B000704702460020434B18684FF6807318407C
:1007C00040EA021008433F4B186070473E49C86139
:1007D0007047F0B50A46002300240021002500F0F0
:1007E0000046B6F1004F02D1364EF16901E0354EB8
:1007F0007168C0F3034583B200F44016B6F5401F9C
:1008000008D121F070612F4E766826F070662D4F6A
:100810007E6012E000F48016B6F5801F06D1032634
:1008200006FA05F4A14341F0706106E0460D360179
:1008300003FA06F6B14341F0706122B1460D36016C
:1008400003FA06F6314300F00046B6F1004F02D13C
:100850001C4EF16101E01B4E7160F0BD30B500220D
:100860008B071C0F0F2303FA04F2164B08338C106E
:1008700053F824309343134C08348D1044F825303A
:1008800023468C1053F824308C07240F00FA04F40C
:1008900023430C4C08348D1044F8253030BD0A49F0
:1008A000DC3108607047000000080140000C014086
:1008B000001001400014014000180140001C0140DC
:1008C000002001400000014000002042DF48006895
:1008D00040F00100DD49086008464068DC490840F6
:1008E000DA49486008460068DA490840D749086094
:1008F0000846006820F4802008600846406820F41C
:10090000FE0048604FF41F0088607047CF490968B7
:1009100021F48031CD4A11601146096821F480210B
:100920001160B0F5803F03D0B0F5802F0ED106E006
:10093000C649096841F48031C44A116007E0C349DF
:10094000096841F4A021C14A116000E000BF00BF66
:10095000704710B501460022002300204A11012AE9
:1009600002D1BA4C236806E0022A02D1B74C236AAE
:1009700001E0B64C636A01F01F02012494401C4060
:100980000CB1012000E0002010BD38B5002000901F
:100990000024002500BF3120FFF7DBFF054600984B
:1009A000401C00900098B0F5A06F01D0002DF2D04F
:1009B0003120FFF7CEFF08B1012400E000242046DB
:1009C00038BD01460020A14A106820F0F80040EA36
:1009D000C10010607047A0490860704702460020BF
:1009E0009A4B586820F47C1042EA01031843974B55
:1009F0005860704798490866704701460020934A3E
:100A0000506820F003000843506070478F484068EA
:100A100000F00C007047014600208C4A506820F01E
:100A2000F00008435060704701460020874A506834
:100A300020F4E06008435060704701460020834A7C
:100A4000506820F4605040EAC1005060704729B1FE
:100A50007E4A527A02437D4B5A7204E07B4A527AB4
:100A600082437A4B5A7270477B49D831086070478D
:100A700001460020754A506820F440400843506009
:100A800070470021714A20321170704A82F820109C
:100A9000012802D004280AD104E001216B4A203247
:100AA000117005E00521694A2032117000E000BF95
:100AB00000BF70476949086070476449096A01438B
:100AC000624A11627047654944390860704730B521
:100AD00000210022002400235C4D6D6805F00C010C
:100AE00021B1042905D0082923D105E05C4D05601A
:100AF00022E05B4D05601FE0544D6D6805F47012F7
:100B0000524D6D6805F48034022505EB92421CB904
:100B1000544D554305600BE04C4D6D6805F40035B0
:100B20001DB1504D5543056002E04D4D55430560E4
:100B300002E04B4D056000BF00BF444D6D6805F0FD
:100B4000F0010909484D6B5C0568DD4045603F4D8B
:100B50006D6805F4E061090A434D6B5C4568DD4052
:100B600085603A4D6D6805F46051C90A3E4D6B5C75
:100B70004568DD40C560354D6D6805F44041890B21
:100B80003A4D6B5CC568B5FBF3F5056130BD29B125
:100B90002E4A526902432D4B5A6104E02B4A526996
:100BA00082432A4B5A61704729B1284A926902430D
:100BB000264B9A6104E0254A92698243234B9A614D
:100BC000704729B1214AD2690243204BDA6104E01F
:100BD0001E4AD26982431D4BDA61704729B11B4A14
:100BE000D2680243194BDA6004E0184AD2688243A3
:100BF000164BDA60704729B1144A12690243134B4D
:100C00001A6104E0114A12698243104B1A6170475D
:100C100012494039086070470F49C86470470B4952
:100C2000C87170470948406A40F0807007494862BF
:100C3000704701460020054A92680A400AB1012027
:100C400000E00020704701498872704700100240A0
:100C50000000FFF8FFFFF6FE00004242800442421F
:100C600000127A0000093D001C0000202C0000202A
:100C700010B50446FB48844209D101218803FFF7DF
:100C8000ADFF00214FF48040FFF7A8FF32E0F648A7
:100C9000844209D101214804FFF7ADFF00214FF440
:100CA0000030FFF7A8FF25E0F048844209D1012178
:100CB0008804FFF7A0FF00214FF48020FFF79BFF7F
:100CC00018E0EB48844209D10121C804FFF793FFE3
:100CD00000214FF40020FFF78EFF0BE0E54884422F
:100CE00008D101210805FFF786FF00214FF480108D
:100CF000FFF781FF10BD2DE9F04786B005460E468F
:100D00000024A24600BFA1460027B08900B100BF61
:100D10002F462C8A4CF6FF700440F08804432C8246
:100D2000AC894EF6F3100440B088318908437189CC
:100D300008430443AC81AC8A4FF6FF400440B089BD
:100D40000443AC8201A8FFF7C2FEC648874202D125
:100D5000DDF810A001E0DDF80CA0A88900F4004047
:100D600040B10AEBCA0000EB0A1031684900B0FB41
:100D7000F1F807E00AEBCA0000EB0A1031688900BD
:100D8000B0FBF1F86420B8FBF0F004012009642105
:100D900001FB1089A88900F4004040B1322000EB2B
:100DA000C900B0FBF1F000F00700044308E0322076
:100DB00000EB09106421B0FBF1F000F00F000443D8
:100DC0002C8106B0BDE8F0874FF416510160002178
:100DD0008180C18001810C21418100218181704786
:100DE00010B502460020108A4FF2FF0318400B880E
:100DF0004C8823438C882343CC8823431843108298
:100E000010BD0021018041808180C180704721B1E7
:100E1000828942F40052828104E082894DF6FF7398
:100E20001A4082817047F0B5034600240026002551
:100E3000002040F66A17B94200D100BF1846C1F33E
:100E4000421401F01F06012707FA06F5012C01D113
:100E50000C3004E0022C01D1103000E014301AB143
:100E600007682F43076002E00768AF430760F0BDE3
:100E70001AB1838A0B43838202E0838A8B43838285
:100E80007047028A4FF6F0731A400282028A0A43C0
:100E90000282704782894FF2FF731A4082818289F1
:100EA0000A438281704721B1828942F00202828125
:100EB00004E082894FF6FD731A4082817047028AEE
:100EC0004FF6DF731A400282028A0A430282704799
:100ED00021B1028A42F48042028204E0028A4BF687
:100EE000FF731A4002827047C1F308028280704784
:100EF00001468888C0F308007047818941F00101EC
:100F000081817047028BD2B20283028B42EA0122B6
:100F100002837047028B02F47F420283028B0A43F2
:100F20000283704721B1828A42F02002828204E06B
:100F3000828A4FF6DF731A408282704721B1828A1B
:100F400042F01002828204E0828A4FF6EF731A4068
:100F50008282704721B1828A42F00802828204E0D4
:100F6000828A4FF6F7731A408282704721B18289D4
:100F700042F40042828103E08289C2F30E02828140
:100F8000704721B1828A42F40062828204E0828A40
:100F90004FF2FF731A4082827047828A4FF6FB73CA
:100FA0001A408282828A0A438282704721B1828AF1
:100FB00042F00202828204E0828A4FF6FD731A40F8
:100FC0008282704702460020B1F5007F00D100BF49
:100FD00013880B400BB1012000E00020704701F4A2
:100FE0000072B2F5007F00D100BFCA430280704793
:100FF00070B50246002400230025002040F66A1642
:10100000B14200D100BFC1F3421501F01F03012618
:1010100006FA03F3012D02D19689334006E0022D32
:1010200002D1168A334001E0968A33400C12012621
:1010300006FA04F41688344013B10CB1012000E024
:10104000002070BD10B50022002340F66A14A142B2
:1010500000D100BF0A1201249440A3B2DC430480F3
:1010600010BD00000038014000440040004800402E
:10107000004C00400050004010B50446FE48844239
:1010800008D10121C014FFF7A9FD0021E014FFF7EA
:10109000A5FDC4E0B4F1804F08D101210846FFF757
:1010A000AAFD00210120FFF7A6FDB8E0F348844225
:1010B00008D101210220FFF79EFD00210220FFF749
:1010C0009AFDACE0EE48844208D101210420FFF7EC
:1010D00092FD00210420FFF78EFDA0E0E948844244
:1010E00008D101210820FFF786FD00210820FFF725
:1010F00082FD94E0E448844208D101211020FFF7EA
:101100007AFD00211020FFF776FD88E0DF48844259
:1011100008D101212020FFF76EFD00212020FFF7DC
:101120006AFD7CE0DA48844208D101214014FFF7CF
:1011300055FD00216014FFF751FD70E0D548844251
:1011400009D10121C804FFF749FD00214FF4002017
:10115000FFF744FD63E0D048844209D1012108052E
:10116000FFF73CFD00214FF48010FFF737FD56E0FC
:10117000CA48844209D101214805FFF72FFD00210B
:101180004FF40010FFF72AFD49E0C548844208D11A
:1011900001214020FFF72FFD00214020FFF72BFD0C
:1011A0003DE0C048844208D101218020FFF723FDA3
:1011B00000218020FFF71FFD31E0BB48844208D1A9
:1011C00001218015FFF717FD0021A015FFF713FD82
:1011D00025E0B648844209D101210804FFF7FEFC4E
:1011E00000214FF48030FFF7F9FC18E0B04884424A
:1011F00009D101214804FFF7F1FC00214FF4003030
:10120000FFF7ECFC0BE0AB48844208D101218804D5
:10121000FFF7E4FC00214FF48020FFF7DFFC10BD56
:1012200000220288944B98420ED0994B98420BD0E2
:10123000B0F1804F08D0914B984205D0904B984226
:1012400002D0904B984204D14FF68F731A404B88CE
:101250001A438D4B984207D08C4B984204D04FF6DE
:10126000FF431A40CB881A4302808B8883850B8802
:101270000385814B98420BD0854B984208D08B4B0D
:10128000984205D08A4B984202D08A4B984201D1AD
:101290000B7A038601238382704770B500240022F5
:1012A0000023058C4FF6FE7635400584028C83883A
:1012B000048B4FF68F752C40B51E2C400D882C43A7
:1012C000751E2A400D892A434D882A436A4DA8423B
:1012D0000BD06F4DA84208D0744DA84205D0744D74
:1012E000A84202D0734DA84213D14FF6F7752A4099
:1012F0004D892A434FF6FB752A408D882A434FF6C5
:10130000FF652B404FF6FF552B408D892B43CD8930
:101310002B4383800483CD888586028470BD70B59D
:10132000002400220023058C4FF6EF76354005841B
:10133000028C8388048B48F6FF752C404FF6FF45DE
:101340002C400D884FF6FF7606EA05252C434FF614
:10135000DF752A400D8906EA05152A434D8806EAFD
:1013600005152A43444DA84202D0494DA8421DD13B
:101370004FF67F752A404D894FF6FF7606EA051530
:101380002A434FF6BF752A408D8806EA05152A4381
:101390004FF6FF352B404FF2FF752B408D8906EA43
:1013A00085052B43CD8906EA85052B43838004837D
:1013B000CD880587028470BD70B50024002200230B
:1013C000058C4FF6FF6635400584028C8388848B3C
:1013D0004FF68F752C404FF6FC752C400D882C4332
:1013E0004FF6FF552A400D894FF6FF7606EA052590
:1013F0002A434D8806EA05252A431F4DA84202D0FC
:10140000234DA8421DD14FF2FF752A404D894FF65A
:10141000FF7606EA05252A434FF6FF352A408D88D8
:1014200006EA05252A434EF6FF752B404DF6FF755B
:101430002B408D8906EA05152B43CD8906EA051553
:101440002B4383808483CD888587028470BD70B5EB
:10145000002200230024058C4EF6FF7635400584DB
:10146000038C8488828B48F6FF752A404FF6FF452F
:101470002A400D8820E00000002C014000040040BC
:1014800000080040000C0040001000400014004024
:1014900000340140004C0140005001400054014024
:1014A00000180040001C00400020004000400140A7
:1014B00000440140004801404FF6FF7606EA05254A
:1014C0002A434DF6FF752B400D8906EA05352B435F
:1014D0004D8806EA05352B43FA4DA84202D0FA4D55
:1014E000A84208D14BF6FF752C408D894FF6FF7648
:1014F00006EA85152C4384808283CD88A0F840506D
:10150000038470BD828B4FF2FF331A408283828B3B
:101510004FF6FF7303EA01231A4382837047F0B545
:101520000C461546002200210026078C4EF6FF7C53
:1015300007EA0C070784828B018C4FF6FF7707EAD6
:10154000043640F6FF473A404FF6FF7707EA052793
:101550003A434FF6FF7707EA03373A43D94FB84289
:101560000ED0D94FB8420BD0B0F1804F08D0D74F32
:10157000B84205D0D64FB84202D0D64FB84206D1B5
:101580004DF6FF77394046F48057394305E047F67A
:10159000FF57394044F48057394382830184F0BDBA
:1015A000828B4FF6F3731A408283828B0A438283C5
:1015B0007047F0B50C461546002200210026078C26
:1015C0004FF6FF6C07EA0C070784828B018C4FF6FD
:1015D000FF7707EA04264FF60C773A404FF6FF777D
:1015E00007EA03172F433A43B64FB8420ED0B64F1F
:1015F000B8420BD0B0F1804F08D0B44FB84205D0FC
:10160000B34FB84202D0B34FB84206D14FF6FF579E
:10161000394046F48077394305E04FF2FF573940AF
:1016200044F48077394382830184F0BD028B4FF20A
:10163000FF331A400283028B4FF6FF7303EA012344
:101640001A4302837047F0B50C461546002200216C
:101650000026078C4FF6EF7C07EA0C070784028B05
:10166000018C4FF6FF7707EA041640F6FF473A4031
:101670004FF6FF7707EA03373A434FF6FF7707EA5B
:1016800005273A438F4FB8420ED08F4FB8420BD048
:10169000B0F1804F08D08D4FB84205D08C4FB84282
:1016A00002D08C4FB84206D14FF6DF77394046F072
:1016B0001007394305E04FF65F77394044F01007D3
:1016C000394302830184F0BD028B4FF6F3731A4055
:1016D0000283028B0A4302837047F0B50C4615461D
:1016E00000220021068C4FF6FE773E400684028BD6
:1016F000018C4FF60C7632407E1C06EA03162E4310
:101700003243704EB0420ED06F4EB0420BD0B0F1AB
:10171000804F08D06D4EB04205D06D4EB04202D021
:101720006C4EB04206D14FF6FD76314044F00106D2
:10173000314305E04FF6F576314044F00106314380
:1017400002830184F0BD70B505460C465D488542B4
:101750000ED05D4885420BD0B5F1804F08D05B4874
:10176000854205D05A48854202D05A48854200D168
:1017700000E000BF208850B92389A28861882846EC
:10178000FFF7ABFFE1882846FFF79EFF25E02088A2
:1017900004280AD12389A28861882846FFF753FFCD
:1017A000E1882846FFF742FF17E0208808280AD181
:1017B0002389A28861882846FFF7FBFEE188284636
:1017C000FFF7EEFE09E02389A28861882846FFF72B
:1017D000A6FEE1882846FFF795FE70BD2DE9F04191
:1017E00005460C4600260127608808B9022600E05D
:1017F0000026A088012801D1022700E001272088C7
:10180000A0B92389A28861882846FFF766FFE1888E
:101810002846FFF759FF23893A4631462846FFF705
:1018200012FFE1882846FFF701FF13E02389A28811
:1018300061882846FFF707FFE1882846FFF7F6FE94
:1018400023893A4631462846FFF747FFE188284674
:10185000FFF73AFFBDE8F0810A884B881A438B886E
:101860001A43CB881A430B891A434B891A438B8935
:101870001A43A0F8442070474FF6FF718180002181
:101880000180C18041800172704700210180418048
:101890008180C180018141818181C18170470021A6
:1018A00001804180012181800021C1800181704738
:1018B0000021018041808180C1800181418181813D
:1018C00070470000002C014000340140000400403B
:1018D00000080040000C004021B1028842F00102E3
:1018E000028004E002884FF6FE731A4002807047BF
:1018F00031B1B0F8442042F40042A0F8442005E0A1
:10190000B0F84420C2F30E02A0F8442070471AB188
:1019100083890B43838102E083898B4383817047F2
:101920008182704741EA0203A0F8483070471AB13B
:1019300083890B43838102E083898B4383817047D2
:1019400001894FF6F8721140018170470A46002163
:1019500001894FF68F73194011430181704730B5EB
:1019600004460D4629462046FFF7F0FF208940F047
:101970000700208130BD2DE9F04104460D46164692
:101980001F46602D06D13B46012231462046FFF717
:101990005AFE05E03B46012231462046FFF79DFEF8
:1019A00029462046FFF7D2FF208940F0070020811A
:1019B000BDE8F08130B50C4600210189C9B24FF66F
:1019C000FF7505EA0325154325432943018130BDF1
:1019D0002DE9F04105460E46174698460024434639
:1019E0003A4631462846FFF7E5FF2C894FF6F87056
:1019F000044044F007044FF68F70044044F0700434
:101A00002C81BDE8F081F0B504460D4616461F4610
:101A10003B46324629462046FFF7CCFF208940F45A
:101A200080402081F0BD0185828270470A460021F6
:101A300001884FF68F731940114301807047F0B54C
:101A40000C4615461E460021002200230189028B08
:101A5000038C4FF6F877394021434FF6FC473A4064
:101A600040F201173A434FF6DD773B404FF6FF77E0
:101A700007EA06172F433B43018102830384F0BD2D
:101A80000A460021018B4FF68F73194011430183E1
:101A900070470A460021018B48F6FF7319404FF644
:101AA000FF7303EA02231943018370470A460021AA
:101AB000818B4FF68F7319401143818370470A461B
:101AC0000021818B48F6FF7319404FF6FF7303EA3C
:101AD000022319438183704721B1028842F08002BA
:101AE000028004E002884FF67F731A40028070473C
:101AF00021B1828842F00402828004E082884FF69D
:101B0000FB731A408280704721B1828842F008023C
:101B1000828004E082884FF6F7731A408280704713
:101B200021B1828842F00102828004E082884FF66F
:101B3000FE731A40828070470A460021018B4FF6DF
:101B4000F77319401143018370470A460021018B46
:101B50004FF2FF7319404FF6FF7303EA0223194354
:101B6000018370470A460021818B4FF6F7731940B5
:101B70001143818370470A460021818B4FF2FF7326
:101B800019404FF6FF7303EA02231943818370471C
:101B90000A460021018B4FF6FB7319401143018364
:101BA00070470A460021018B4FF6FF3319404FF66C
:101BB000FF7303EA02231943018370470A46002199
:101BC000818B4FF6FB7319401143818370470A469E
:101BD0000021818B4FF6FF3319404FF6FF7303EA64
:101BE00002231943818370470A460021018B4FF677
:101BF0007F7319401143018370470A460021018B0E
:101C0000C1F30E014FF6FF7303EA02231943018368
:101C100070470A460021818B4FF67F7319401143AC
:101C2000818370470A460021818BC1F30E014FF674
:101C3000FF7303EA02231943818370470A46002198
:101C4000018C4FF6FD7319401143018470470A4619
:101C50000021018C4FF6F77319401143018470473E
:101C60000A460021018C4FF6DF7319404FF6FF73CF
:101C700003EA02131943018470470A460021018CCC
:101C80004FF67F7319404FF6FF7303EA02131943AF
:101C9000018470470A460021018C4FF6FF5319401A
:101CA0004FF6FF7303EA02231943018470470A4683
:101CB0000021018C4FF2FF7319404FF6FF7303EAC6
:101CC00002231943018470470A460021018C4DF616
:101CD000FF7319404FF6FF7303EA0233194301847F
:101CE000704730B5002301248C40A3B2048C9C4380
:101CF0000484048C02FA01F5ADB22C43048430BD97
:101D000030B5002304248C40A3B2048C9C4304848B
:101D1000048C02FA01F5ADB22C43048430BD70B5D9
:101D20000346002000241846183001258D40ACB22F
:101D30001D8CA5431D8409B1082909D100EB610060
:101D4000056825F0700505600568154305600EE01F
:101D50000D1FC5F34E052844056825F4E0450560D0
:101D600005684FF6FF7606EA02263543056070BD2A
:101D700021B1028842F00202028004E002884FF69C
:101D8000FD731A400280704721B1028842F00402BC
:101D9000028004E002884FF6FB731A40028070470D
:101DA00021B1828842F08002828004E082884FF66E
:101DB0007F731A408280704702884FF6F7731A408B
:101DC000028002880A430280704782884FF68F7330
:101DD0001A40828082880A438280704702894FF6C7
:101DE000F8731A40028102890A430281704702890E
:101DF0004FF67F731A40028102890A4302817047BD
:101E0000818470478185704781867047018770475C
:101E100081877047A0F84010704702884FF6FF4353
:101E20001A40028002880A43028070470146888E69
:101E300070470146088F70470146888F70470146FA
:101E4000B1F8400070470146888C70470146088D04
:101E5000704702460020138A0B400BB1012000E0BE
:101E600000207047CA430282704730B50246002006
:101E700000230024158A05EA0103958905EA010477
:101E800013B10CB1012000E0002030BDCA43028232
:101E9000704700004FF0E021096921F004014FF084
:101EA000E0221161C21700EB5272C2F3C7022B4B42
:101EB0001A701946097801EB4102C2EBC1114FF6C5
:101EC000FF7202EAC101264A118070470146234A87
:101ED00012784A434FF0E0235A6100229A611A4671
:101EE000126942F001021A6100BF4FF0E02210694E
:101EF00000F001021AB100F48032002AF5D04FF050
:101F0000E022126922F001024FF0E0231A61002260
:101F10009A6170470146124A12884A434FF0E02303
:101F20005A6100229A611A46126942F001021A614E
:101F300000BF4FF0E022106900F001021AB100F476
:101F40008032002AF5D04FF0E022126922F001021F
:101F50004FF0E0231A6100229A61704730000020A0
:101F600032000020B94A11880A131303C1F3032277
:101F700003EB0223C1F3031203EB021201F00F0380
:101F80001A4491B24D22027043224270552282704F
:101F90004322C27061220271702242713A22827120
:101FA0004FF47A7291FBF2F232B14FF47A7291FBF4
:101FB000F2F23032C27101E02022C2714FF47A7223
:101FC00091FBF2F302FB1312642392FBF3F2303223
:101FD0000272642291FBF2F302FB13120A2392FBBA
:101FE000F3F2303242720A2291FBF2F302FB131237
:101FF000303282724B22C27262220273704770B515
:102000000446934805682A4692A1204601F0A8FBA1
:1020100070BD934A0A4002438D4B08331A607047E3
:1020200010B504462046FEF735FA10BDF8B5044653
:102030000D4617461E463046FFF7F2FF8DF800703A
:102040008DF801408DF8025001208DF8030068469C
:10205000FEF725FAF8BD00B5002082490861C86086
:102060001420486100208861C8610846006840F07B
:1020700001000860084640687B490840794948608B
:1020800008460068794908407649086008460068B3
:1020900020F4802008600846406820F4FE00486074
:1020A0000020886000214FF00060FFF7B2FF00BD04
:1020B00010B567481030006840F0040064491031E2
:1020C00008606848C06940F080506649C861684847
:1020D000406840F48070664948600846006840F0F7
:1020E000040008600846006840F002000860FEF73F
:1020F0006FF810BD5F4856490C3108607047594968
:10210000896941F00101574A91615B49496821F0B1
:10211000E061594A51601146496841EA00615160E5
:10212000704730B504460025FFF795FF4D4800681D
:1021300040F480304B49086000BF4A480068400CBA
:102140000028FAD04FF4806046494860A01EC4B20F
:102150000846406840EA844048600846406840F4C9
:10216000803048604548006840F0320043490860CC
:102170003C48006840F080703A49086000BF394828
:102180000068400E0028FAD03648406840F002004F
:102190003449486005E033484068C0F3870505F0DE
:1021A0000305022DF7D130BD01460A2091FBF0F264
:1021B00000FB12100A2291FBF2F240EA0210C0B2B8
:1021C0007047014601F00F000A1102EB820200EB9A
:1021D0004200C0B2704701464FF47A7091FBF0F0B4
:1021E00000034FF47A7291FBF2F302FB13126423A3
:1021F00092FBF3F240EA02201A4691FBF2F302FB53
:1022000013120A2392FBF3F240EA02101A4691FBE2
:10221000F2F302FB1312104380B270470146081319
:102220004FF47A725043C1F3032202EBC20303EB73
:10223000021200EB8200C1F3031202EB820200EBF8
:10224000420001F00F02104480B27047E0F7FF1F18
:1022500000ED00E04350552049443A2530385800FD
:1022600080FFFF1F001002400000FFF8FFFFF6FE96
:10227000007000400400FA05000001400020024008
:10228000014600BF704700BF5C4A128802F040025E
:10229000002AF9D0C2B2594B1B1D1A80704710B5E5
:1022A00086B0044655480C30008840F4807053498D
:1022B0000C3108800846008840F0200008804FF468
:1022C000A063252203210846FFF7B0FE012144F256
:1022D0000400FEF769FC4948FEF7CAFC4FF40070A1
:1022E000ADF8140003208DF8160018208DF81700A3
:1022F00005A94348FEF79CF94FF48060ADF814003F
:1023000004208DF8170005A93D48FEF791F90194C6
:102310000020ADF80800ADF80A00ADF80C00ADF8EB
:1023200010000C20ADF80E0001A93448FEF7E3FCC4
:10233000012240F225513148FEF775FD01212F4859
:10234000FEF765FD06B010BD10B540F225512B48D3
:10235000FEF74EFE002850D02848FEF7C9FDC4B253
:102360002848008800F40040002846D1254800880D
:1023700000F4804038B30A2C1ED00D202149098872
:10238000C1F30D01204A50541E480088401C1D49CD
:10239000088008460088C0F30D0011460C54194807
:1023A0000088401C17490880084600884BF6FF71DA
:1023B00008401449088020E01248008840F400409A
:1023C0001049088019E00D2C06D10E48008840F411
:1023D00080400C49088010E00A480088C0F30D00D6
:1023E00009490C5407480088401C064908800846E3
:1023F00000883E2801DD0020088010BD0038014023
:102400000008014038000020B80900204FF4A06007
:10241000FFF706FE4820FFF73DFD00F05BF800F0F7
:1024200039FD00F0E8F800F062F94FF49670FFF71C
:1024300071FD00F03EF94721632000F017FE00F027
:1024400056F91EA20021084600F0E1FB00F0CDFE87
:1024500032E000F06AFD1A48006870B9002019499E
:1024600008701949487000F0E1FE4FF4FA7000F06E
:1024700071FF44F6206000F052FF114810300068F0
:1024800040B9C82000F066FF104B142210496420A8
:1024900000F0DCFF0A480C30006818B944F62060F0
:1024A00001F0EFF806480830006818B944F62060DB
:1024B00001F00FF900F0BEFDCBE700003500000091
:1024C0002C8121429C090020A0090020C0D40100D9
:1024D000A086010008B501210C20FEF765FB042051
:1024E000ADF8000002208DF8020010208DF80300E6
:1024F00069460A48FEF79CF84FF40040ADF800002A
:1025000069460748FEF794F84FF400410448FEF787
:102510003CF904210148FEF738F908BD000C0140E0
:102520000008014008B501212820FEF73DFB4FF4CB
:102530007870ADF8000010208DF8030003208DF8AE
:1025400002006946FA48FEF773F84FF47871F848CC
:10255000FEF71BF90420ADF800006946F548FEF7C8
:1025600067F80421F348FEF710F908BD0022F24B8A
:102570001A60F24BC3F89C21002116E00022EE4BBA
:102580000C331A6000F080021AB101221B1D1A6080
:1025900003E00022E84B10331A600122E64B0C33B3
:1025A0001A60420010464A1CD1B20829E6DB704787
:1025B0000022E14B1A600122E04BC3F89C2100216C
:1025C00016E00022DC4B0C331A6000F080021AB1D6
:1025D00001221B1D1A6003E00022D74B10331A6042
:1025E0000122D54B0C331A60420010464A1CD1B26E
:1025F0000829E6DB704710B5FFF794FF0020CE49AD
:102600000860CE49C1F898016420FFF783FC0120DF
:10261000C949091D08601420FFF77CFCE220FFF780
:10262000A5FF0520FFF776FC2C20FFF79FFF052074
:10263000FFF770FC2E20FFF799FF0520FFF76AFCDB
:102640002F20FFF793FF0520FFF764FC2320FFF7FF
:102650008DFF8120FFF78AFF2820FFF787FFA22048
:10266000FFF784FFC820FFF781FFA020FFF77EFF60
:102670004020FFF77BFFAF20FFF778FF0120AF4935
:10268000C1F8940110BD30B505460C460020AA499A
:10269000086000BF00BF05F1B000FFF767FF102121
:1026A00001EB1410FFF762FF04F00F00FFF75EFF6D
:1026B00030BD30B50020A0490860002411E00021A1
:1026C0002046FFF7E0FF002507E09D4901EBC5012B
:1026D000085DFFF76DFF681CC5B2802DF5DB601C3F
:1026E000C4B2082CEBDB01209349086030BD30B543
:1026F00000209149086000240CE0002506E000203D
:102700008F4901EBC5010855681CC5B2802DF6DB69
:10271000601CC4B2082CF0DB012087490860FFF779
:10272000C8FF30BDF0B5144600257F2801DC3F29E5
:1027300000DDF0BD0023804F3B600B46CF1701EB5F
:102740005777C7F3C702CF1701EB5777FF10A1EBFD
:10275000C707FEB20123B340DDB24CB1784B03EBA7
:10276000C0039B5C2B43764F07EBC007BB5408E0CC
:10277000734B03EBC0039B5CAB43714F07EBC0078C
:10278000BB5401236C4F3B6000BFD2E72DE9F047FB
:1027900006460F4690469946DDF820A034460CE0E8
:1027A0003D4606E0524629462046FFF7BBFF681C1F
:1027B000C5B24D45F6DD601CC4B24445F0DDBDE850
:1027C000F087F8B504460D4616461F4601203B46E5
:1027D0002246294600902046FFF7D8FF01202B46CD
:1027E0003246294600902046FFF7D0FF01203B46A5
:1027F0003246394600902046FFF7C8FF01203B468D
:102800003246294600903046FFF7C0FFF8BDF0B5CC
:10281000144600257F2802DDA0F17F03D8B23F29AE
:1028200002DDA1F13F03D9B20B46CF1701EB577779
:10283000C7F3C702CF1701EB5777FF10A1EBC7070C
:10284000FEB20123B340DDB24CB13D4B03EBC003FC
:102850009B5C2B433A4F07EBC007BB5408E0384B57
:1028600003EBC0039B5CAB43354F07EBC007BB5486
:10287000F0BD38B505460C4632480078401C314959
:10288000087031480078A84203D130480078A0424F
:102890000DD0002000902D4800781030C3B22A4897
:1028A00002782A48017828480078FFF76FFF25480A
:1028B00000782749097888420ADA0120009004F15B
:1028C0001000C3B22A4621462846FFF75FFF14E0F6
:1028D0001F4800781B490978B1EB400F0ADA002045
:1028E000009004F11000C3B22A4621462846FFF7A3
:1028F0004DFF02E00020134908701348057013488B
:10290000047038BD2DE9F04F80460C4615461E4632
:10291000A346A5F12000C5B2002752E00C2E1BD122
:1029200005EB45000B4901EB800010F8079018E01B
:10293000000C01400014014094812142008021429A
:10294000F70900206C0900206E0900206F090020A3
:102950006D090020183E0008FE4800EB051010F835
:1029600007904FF0000A26E009F0800028B12146C8
:102970004046099AFFF7D6FE09E0099808B90120F8
:1029800000E00020024621464046FFF7CBFE4FEA1A
:1029900049604FEA1069601CC4B2A4EB0B00B0425E
:1029A00005D15C4608F1010000F0FF0806E00AF1DD
:1029B000010000F0FF0ABAF1080FD5DB00BF781C58
:1029C000C7B2B742AADBBDE8F08F2DE9F04F07464A
:1029D0000C4615461E46A3464FF0000931E095F817
:1029E00000804FF0000A23E008F0800028B1324652
:1029F00021463846FFF70BFF08E00EB9012000E042
:102A00000020024621463846FFF701FF4FEA4860A2
:102A10004FEA1068601CC4B2A4EB0B00102803D16D
:102A20005C46781CC7B206E00AF1010000F0FF0A1C
:102A3000BAF1080FD8DB00BF6D1C09F1010000F0EE
:102A4000FF09B9F1200FCADBBDE8F08F2DE9F04195
:102A500080460D4616461F467F2D01DDBDE8F081FC
:102A60003F2E00DDFAE7002420E0387804EB041163
:102A7000B94A12F81110884216D1787804EB041183
:102A800002EB4101497888420ED104EB0410114653
:102A900001EB4000821C434631462846FFF795FF74
:102AA00005F11000C5B203E0601CC4B23E2CDCD3BB
:102AB00000BF00BFD2E7F8B507460C4615461E46D4
:102AC00017E07A2C03DD002405F11000C5B23A2D81
:102AD00004DD002004460546FFF709FE0097327822
:102AE000102329462046FFF70DFF04F10800C4B269
:102AF000761C30780028E4D1F8BDF8B507460C46BE
:102B000015461E4617E07A2C03DD002405F110005F
:102B1000C5B23A2D04DD002004460546FFF7E7FD67
:102B2000009732780C2329462046FFF7EBFE04F18C
:102B30000800C4B2761C30780028E4D1F8BDF8B59E
:102B400007460D4616461C461EE07A2D00DDF8BDF0
:102B50003A2E00DDFBE720787F280ADD2346324647
:102B600029463846FFF772FFA41C05F11000C5B2D4
:102B70000AE000972278102331462846FFF7C2FE6C
:102B800005F10800C5B2641C20780028DDD100BF23
:102B9000DDE72DE9F04381460E4690461F467F2E25
:102BA00001DDBDE8F083B8F13F0F00DDF9E7002457
:102BB00028E0002521E0385D05EB0511664A12F892
:102BC0001110884217D1601C385C05EB051102EB2F
:102BD0004101497888420ED105EB0510114601EB01
:102BE0004000821C4B4641463046FFF7EEFE06F1A0
:102BF0001000C6B203E0681CC5B23E2DDBD300BF97
:102C0000A01CC4B2385D0028D3D100BFC9E770B59D
:102C100004460D461646E806020EE1B23346012090
:102C2000FFF78DFF70BDF0B504460D4616461F46F2
:102C3000E806020EE1B233463846FFF780FFF0BDEA
:102C4000F8B507460E461446002522E0605D802850
:102C50000CDB605D8038605500200090625DF006FE
:102C6000010E10233846FFF74DFE08E001200090CA
:102C7000625DF006010E10233846FFF743FE07F1B0
:102C80000800C7B2782F02DD0027B01CC6B2681C4E
:102C9000C5B2605D0028D9D1F8BD2DE9FF4F83B0E2
:102CA000BDF81410BDF80C20881A002801DB01467D
:102CB00000E0414289B20291BDF81810BDF8102021
:102CC000881A002801DB014600E0414289B20191E7
:102CD0004FF00009BDF80800BDF8041088420DDA75
:102CE0004FF0010904A903A800F04BFF06A905A8AD
:102CF00000F047FF01A902A800F043FFBDF814004F
:102D0000BDF80C10401A002801DD012001E04FF051
:102D1000FF308246BDF81800BDF81010401A002898
:102D200001DD012001E04FF0FF308346BDF80C408B
:102D3000BDF81060BDF804004700BDF80400BDF800
:102D40000810401A4FEA4008BDF80400BDF808100A
:102D500004E000008C42000864000020C1EB400544
:102D6000B9F1000F11D00BE0002D01DA3D4401E074
:102D70005E444544E1B2F0B2109AFFF7D3FC5444EC
:102D8000BDF814008442EFD110E00BE0002D01DA11
:102D90003D4401E05E444544F1B2E0B2109AFFF7D1
:102DA000C1FC5444BDF814008442EFD107B0BDE823
:102DB000F08F2DE9F84305460E4617469846089CC5
:102DC00033463A46314628460094FFF766FF4346AD
:102DD0002A46314628460094FFF75FFF43463A46AD
:102DE000414628460094FFF758FF43463A4631468D
:102DF00038460094FFF751FFBDE8F8832DE9FF4FF7
:102E000081B0834617469946DDF838A000243D4638
:102E10007800C0F10306B9F1000F1FD01BE0A046F7
:102E20000AE01FFA88F3A2B2CDF800A05846029932
:102E300000F065FE08F10108A845F2DD002E04DA75
:102E4000042000FB0460861D04E0601B042101FBDC
:102E500000666D1E641CAC42E1DD17E014E0ABB20D
:102E6000A2B2CDF800A05846029900F048FE002E0C
:102E700004DA042000FB0460861D04E0601B0421CA
:102E800001FB00666D1E641CAC42E8DD05B0BDE8C8
:102E9000F08F000000B585B001210820FDF784FE09
:102EA00001210220FDF78DFE48208DF813004FF41C
:102EB0007840ADF8100001208DF8120004A9624896
:102EC000FDF7B6FB6148FEF7D7F84720ADF80400E0
:102ED00040F2E730ADF808000020ADF80A00ADF888
:102EE000060001A95948FEF79BF9012241215748E4
:102EF000FEF70DFD01215548FEF7EEFC1D208DF873
:102F0000000001208DF803008DF801008DF802000B
:102F10006846FDF7C4FA05B000BD4B4908310968A1
:102F2000C1F3CF2161F01F00704700B5FFF7F5FF37
:102F3000C2434749096882EA0100104045490860D8
:102F4000434802604448006820B9444800680A3099
:102F5000434908603F48006810B101203E490860BD
:102F60003D48006890B33D4800683D490968884283
:102F70002CD93A48006810F10A0F27D2344800686B
:102F8000042812D004DC012807D0022819D108E057
:102F900008280ED0102814D10FE001203149086014
:102FA00013E002202F4908600FE003202D4908603C
:102FB0000BE004202B49086007E005202949086040
:102FC00003E000202749086000BF00BF26480068D2
:102FD000B0F57A7F2BD340F29E20234908601C482D
:102FE0000068042812D004DC012807D0022819D177
:102FF00008E008280ED0102814D10FE00B20194942
:10300000086013E00C20174908600FE00D201549F7
:1030100008600BE00E201349086007E00F201149FB
:10302000086003E000200F49086000BF00BF0D48A2
:10303000006800BD0B48006820B100200649086008
:103040000849086070470000000C0140000400407F
:1030500088090020840900208C09002070090020C4
:1030600080090020740900207C0900207FB50546F6
:103070000C4601210420FDF7A4FDADF80850ADF881
:1030800004400020ADF80A00ADF8060001A92B4865
:10309000FEF7C6F8012241212848FEF738FC1E2021
:1030A0008DF8000000208DF8010003208DF802004B
:1030B00001208DF803006846FDF7F1F901211F4852
:1030C000FEF70AFC7FBD10B501211C48FEF7CDFEBE
:1030D00090B301211948FEF7D9FE1948007858B37A
:1030E00018480068401C174908601748008800EB22
:1030F00080004000096888421ED8002011490860FD
:1031000012480068401C11490860114800681149C4
:1031100009680E4A126801FB02000F490860084660
:1031200000680E490968884202D9002007490860F2
:103130000948006800F0F3F810BD000000080040E6
:103140005200002090090020500000209409002027
:10315000440000204C000020980900204800002076
:1031600008B501211C20FDF71FFD4FF48060ADF86C
:10317000000003208DF8020010208DF8030069463E
:10318000F948FDF755FA4FF4BA70ADF800006946FA
:10319000F648FDF74DFA43F6FF70ADF800006946BA
:1031A000F348FDF745FA08BD10B50246802100231B
:1031B000F04C2360002015E002EA010323B900234C
:1031C000EC4C0C34236003E00123EA4C0C34236004
:1031D0000123E84C236049100023E74CC4F88831F0
:1031E000431CD8B20828E7DB10BD10B5FFF7B8FFC5
:1031F0000020E2490860E14924390860DF490C39C0
:103200000860DE4920390860DA4908310860DB4986
:10321000303908600120D849C1F898010520FEF72F
:1032200079FE0020D449C1F8980110BD70B5002086
:10323000D3490860FFF7B8FF002505E0D149485D94
:10324000FFF7B2FF681CC5B2042DF7DB0120CC49A3
:103250000860002401E0601CC4B20A2CFBDB0020E3
:10326000C74908600120FFF79FFF002505E0C64918
:10327000485DFFF799FF681CC5B2042DF7DB0120FC
:10328000BF490860002401E0601CC4B20A2CFBDBCB
:103290000020BB4908600220FFF786FF002505E0FB
:1032A000BA49485DFFF780FF681CC5B2042DF7DB03
:1032B0000120B3490860002401E0601CC4B20A2C5C
:1032C000FBDB0120AD4928390860002401E0601CC7
:1032D000C4B20A2CFBDB0020A84928390860012071
:1032E000FEF718FE70BD10B50020A54908600E203D
:1032F000FFF75AFF002405E0A549085DFFF754FFDA
:10330000601CC4B2082CF7DB01209D490860A1496C
:10331000C1F88C01002099492839086010BD2DE9B9
:10332000F0478146484600F066FC07469A4A9B4BA8
:1033300000F074FC054600F031FC04469449CC7161
:10334000200A8871200C4871200E0871FFF7CBFF0E
:10335000BDE8F0872DE9F0478146484600F04BFC78
:1033600007468F4A8F4B00F059FC054600F016FCCB
:103370000446B4F5804F01D343F6FF74C4F30D0443
:1033800083494C70200A0870FFF7ADFFBDE8F08755
:1033900070B500207A4908600B20FFF705FF002474
:1033A00005E08149085DFFF7FFFE601CC4B2082CF0
:1033B000F7DB012072490860002501E0681CC5B2F6
:1033C0000A2DFBDB00206E4908600C20FFF7ECFEA5
:1033D000082405E07449085DFFF7E6FE601CC4B2EE
:1033E000102CF7DB012066490860002501E0681C0D
:1033F000C5B20A2DFBDB0020614908600D20FFF7F4
:10340000D3FE102405E06849085DFFF7CDFE601C7F
:10341000C4B2142CF7DB012059490860002501E0F3
:10342000681CC5B20A2DFBDB01205449283908600D
:10343000002501E0681CC5B20A2DFBDB00204F49C6
:10344000283908600120FEF765FD70BD2DE9FF4FAA
:1034500085B08A469346059800F0CDFB4E4A4F4B07
:10346000CDE9000100F0DAFBCDE9020100F096FBA6
:1034700081464E48824500D98246504600F0BBFB4B
:10348000454A464BCDE9000100F0C8FBCDE90201F9
:1034900000F084FB07464548834500D983465846DB
:1034A00000F0A9FB3C4A3D4BCDE9000100F0B6FB22
:1034B000CDE9020100F072FB044625460898860813
:1034C000B6F5803F01D34FF6FF76B046364981F816
:1034D00007904FEA192088714FEA194048714FEA66
:1034E00019600871CF70380A8870380C4870380E2F
:1034F0000870CC73200A8873200C4873200E087360
:10350000CD72280A8872280C4872280E0872CE7470
:10351000300A8874464681F811804FEA18200874F2
:10352000FFF736FF0020174908700E201649487033
:10353000FFF77CFE09B0BDE8F08F70B500201049A0
:1035400008600E20FFF730FE002505E01849485DB1
:10355000FFF72AFE681CC5B2082DF7DB01200849D9
:103560000860002428E00000000C01400008014031
:10357000001001408801214200002142B401224292
:10358000A88121429C090020A0090020A409002054
:10359000A80900200000224295D626E80B2E1140F3
:1035A000083D9B559F7B3C40F70D00200084D717BA
:1035B000B0090020601CC4B20A2CFBDB0120594971
:1035C0000860002401E0601CC4B20A2CFBDB002070
:1035D000544908600120FEF79DFC70BD70B5064699
:1035E000012E26D10020504908601620FFF7DCFD8F
:1035F000002504E04D49485DFFF7D6FD6D1CB5F58B
:10360000805FF7D3012048490860002400E0641C73
:103610000A2CFCD3012043490860002400E0641C0C
:103620000A2CFCD300203F4908600120FEF772FC01
:1036300026E000203C4908601620FFF7B5FD002574
:1036400004E03B49485DFFF7AFFD6D1CB5F5805FB9
:10365000F7D3012034490860002400E0641C0A2CE0
:10366000FCD301202F490860002400E0641C0A2CD0
:10367000FCD300202B4908600120FEF74BFC00BF63
:1036800070BD70B505462B48B0FBF5F0040AB4F5E3
:10369000803F01D34FF6FF7424202749C8710020D2
:1036A00088714871C02008710F20C8708C70200A82
:1036B000487000200870FFF740FF0120FFF78EFFE1
:1036C000C0201E49087000201D494870FFF7AEFD5C
:1036D00070BD70B505461748B0FBF5F0040AB4F5A7
:1036E000803F01D34FF6FF7424201349C871002096
:1036F00088714871C02008710F20C8708C70200A32
:10370000487000200870FFF718FF0020FFF766FFE1
:10371000C0200A490870002009494870FFF786FD5B
:1037200070BD00008C012242A88121427C48000823
:103730007C58000800CA9A3BB00900209C09002070
:10374000A0090020704700000FB4044910B503AA77
:10375000029800F085F910BC5DF814FB34000020DD
:103760000FB41CB5074B06AA7B4469460090059828
:1037700000F05DF90020694600F06CF91CBC5DF8B2
:1037800014FB0000E902000070B50446856900687A
:10379000C10601D5302600E02026C00707D070BD45
:1037A000D4E9012130469047206A401C20626D1EFA
:1037B000F6D570BD70B5044685690078C00707D19D
:1037C00070BDD4E9012120209047206A401C20626E
:1037D0006D1EF6D570BD000070B504460D4621463D
:1037E0001068AFF300802188090502D50F4A7A449A
:1037F00002E00E4A7A440E32002104F1240305E06F
:1038000000F00F060009965D5E54491C0028F7D1B0
:1038100020780023000704D5702D02D009B10223BF
:1038200011322046BDE8704000F0A2B88A30000096
:103830002DE9F05F894604464FF0000ADFF824B115
:10384000FB44C0F820A02046E168884700287DD0CE
:10385000252806D0D4E901219047206A401C206227
:10386000F1E700255F462046E168884720280646A4
:1038700007DB312E05D2B81910F8200C08B105432A
:10388000F1E7A80701D525F00405C4F81CA000271E
:10389000C4F818A02A2E09D0304600F029F938B310
:1038A00004EB8708303EC8F8186019E059F8041B8B
:1038B000204604EB87029161E1688847012F0646A4
:1038C00018D1E069002820DA25F020051DE0D8F89D
:1038D000180000EB800006EB40003038C8F81800F4
:1038E0002046E1688847064600F002F90028EED13C
:1038F000012F0AD02E2E08D12046E16888477F1C70
:103900000646022F45F02005C4DBA069002803DA33
:10391000404245F00105A061E80701D025F01005FF
:10392000A6B1A6F14100192802D8203645F4006559
:103930004A463146204625604D46FCF731FC60B1D1
:10394000012807D0ED1D25F0070000E007E000F199
:10395000080978E705F1040975E730467AE7206A37
:10396000BDE8F09F603000007047704770477047B7
:103970002DE9F0470D4699469246044600F1240889
:103980000168880604D5E06921F01001216000E09B
:103990000120A84201DD471B00E00027A1697A1938
:1039A00002EB0900081AA0612078C00602D4204664
:1039B000FFF7EAFE002608E0D4E901211AF8060024
:1039C0009047206A401C761C20624E45F4DB20782C
:1039D000C0060AD52046FFF7D7FE06E0D4E901214C
:1039E00030209047206A401C2062381EA7F1010752
:1039F000F4DC07E0D4E9012118F805009047206ABB
:103A0000401C2062281EA5F10105F3DC2046FFF7CB
:103A1000D1FE2078000602D50220BDE8F087012003
:103A2000FBE7000001694A1C02610878704700B595
:103A30008FB0CDE901310021059105497944CDE9E7
:103A4000031011466846FFF7F3FE0FB000BD0000FB
:103A5000E5FFFFFF0A6802F8010B0A6070470000EB
:103A6000074B70B50D467B44FFF7E1FF044628463F
:103A700000F00CF810B14FF0FF3070BD204670BD63
:103A80001DE8FFFF004870470C0E0020007B00F08F
:103A9000800070477546FFF7F5FFAE4605006946A2
:103AA000534620F00700854618B020B5FCF7E0FC2F
:103AB000BDE820404FF000064FF000074FF000082F
:103AC0004FF0000B21F00701AC46ACE8C009ACE8B0
:103AD000C009ACE8C009ACE8C0098D46704710B514
:103AE0000446AFF300802046BDE81040FCF76ABBF7
:103AF00030380A2801D201207047002070472DE994
:103B0000F04104460D4616461F46DDF81880EA19B6
:103B1000D1B2A219D0B24246FEF704FEEA19D1B2E0
:103B2000A21BD0B24246FEF7FDFDEA1BD1B2A2199C
:103B3000D0B24246FEF7F6FDEA1BD1B2A21BD0B2CC
:103B40004246FEF7EFFDAA19D1B2E219D0B24246C1
:103B5000FEF7E8FDAA19D1B2E21BD0B24246FEF749
:103B6000E1FDAA1BD1B2E219D0B24246FEF7DAFD5E
:103B7000AA1BD1B2E21BD0B24246FEF7D3FDBDE88C
:103B8000F08102880B885A4002800A8803885A40D4
:103B90000A8002880B885A40028070474FEA11530E
:103BA000A3F58063D3F11E03A8BFD3F1200C08DB7B
:103BB0004FF0004242EAC12252EA505232FA03F078
:103BC000704709420BD4102BC4BF0020704703F587
:103BD000787CBCF1FF3F05D04FF0FF3070474FF0CD
:103BE0000000704770B500F0C3F800BF4992248010
:103BF00000207047F0E7B0FA80F310FA03F10AD022
:103C0000C3F11D0303F580634FEA41504FEA0352AD
:103C100002EBD12170474FF000007047DFF848C138
:103C200070B51CEA111E1EBF1CEA13159EEA0C0F8C
:103C300095EA0C0F00F06F8081EA030423EA4C132D
:103C40004EEAD47E21EA4C1141F4801143F48013F2
:103C5000AE44A1FB024CA0FB0365AEF17F7E36199A
:103C600055EB0C05A1FB034C4CF10003A0FB021C1F
:103C700016EB0C06654153F10003094218BF46F0EC
:103C8000010613F4007F0BD14FEA03314FEA0530F0
:103C9000340341EA155140EA16506FF003020AE07E
:103CA0004FEAC3214FEAC520F40241EA555140EAE8
:103CB00056506FF0020202EB2E4201EB025585EAEC
:103CC000CE710AD05FEA440C18BF24F0004450F1D2
:103CD000000041F1000120EAD47040F2FE7C624510
:103CE00000D270BDA84214BF4FF080444FF0404452
:103CF000002E08BF0024BEF1806FA8BFA1F1C04113
:103D0000BDE8704080F282804FF0000001F1C041B8
:103D100001F0004170479EEA0C0F0CEA131518BF22
:103D200095EA0C0F06D04FF0000081EA030E0EF06A
:103D3000004170BD00F01CF88900013E00F007B89A
:103D400000F009B84FEA430C5FEA5C5C08D081EAF6
:103D5000030100F05BB84FEA410C5FEA5C5CF6D10E
:103D60004FF00000014970470000FF070000F87F96
:103D70000EF1020E2EF0030E5EF8046B364205D4EF
:103D8000012A43EB030515F5001F12D8012841EB6A
:103D9000010C1CF5001F0CD80ED14FEAD17C15F593
:103DA000001F0CEB4C0C0CF1020C08BF4CEBD37C4D
:103DB00004E04FF0080C01E04FEAD37C0CEB4C051B
:103DC00026FA05F606F00706B6F1040C06D20EEB4D
:103DD000860CBDE870404CF0010C6047DFE80CF049
:103DE000090B02024FF000414FF00000A1F5002145
:103DF00070BD19461046012851EB010418BFD4F5D7
:103E0000001484BF002001F0004170BD0808A0F537
:103E100000114FEA3101704700000000000000006F
:103E200000000000000000003F4000000000000013
:103E300000003000400030004000000009000BC0CE
:103E40003D000BC03D00090018C024407FE0224027
:103E500031800000180024C01B000D80324001801A
:103E600003801C4027401C80074000401000600079
:103E700000000000000000000000000000001F80A3
:103E8000204040200000402020401F800000000013
:103E9000090006001F80060009000000040004005D
:103EA0003F800400040000000010006000000000DB
:103EB00000000000040004000400040004000000EE
:103EC000000000400000000000000000002001C0D1
:103ED00006003800400000001F80204020402040A5
:103EE0001F800000000010403FC0004000000000A4
:103EF00018C021402240244018400000108020407B
:103F0000244024401B80000002000D0011003FC02F
:103F1000014000003C8024402440244023800000D5
:103F20001F802440244034400380000030002000E3
:103F300027C03800200000001B802440244024407B
:103F40001B8000001C0022C0224022401F80000075
:103F50000000000008400000000000000000000019
:103F60000460000000000000000004000A001100CE
:103F700020804040090009000900090009000000F4
:103F800000004040208011000A00040018002000BA
:103F900023402400180000001F80204027402940B3
:103FA0001F400000004007C039000F0001C0004062
:103FB00020403FC0244024401B8000001F80204040
:103FC000204020403080000020403FC02040204062
:103FD0001F80000020403FC024402E4030C0000021
:103FE00020403FC024402E00300000000F00108011
:103FF000204022403380020020403FC004000400E3
:104000003FC02040204020403FC0204020400000D2
:104010000060202020203FC02000200020403FC022
:1040200024400B0030C0204020403FC020400040D2
:10403000004000C03FC03C0003C03C003FC0000047
:1040400020403FC00C4023003FC020001F80204084
:10405000204020401F80000020403FC0244024001A
:10406000180000001F802140214020E01FA0000018
:1040700020403FC02440260019C0004018C0244002
:104080002440224031800000300020403FC02040CA
:104090003000000020003F80004000403F802000B2
:1040A00020003E0001C0070038002000380007C093
:1040B0003C0007C038000000204039C0060039C06D
:1040C000204000002000384007C038402000000099
:1040D000304021C02640384020C0000000000000D1
:1040E0007FE0402040200000000070000C000380B2
:1040F000004000000000402040207FE00000000061
:10410000000020004000200000000000001000100F
:10411000001000100010001000000000400000001F
:1041200000000000000002800540054003C0004080
:1041300020003FC0044004400380000000000380D2
:104140000440044006400000000003800440244076
:104150003FC00040000003800540054003400000D0
:10416000000004401FC0244024402000000002E062
:10417000055005500650042020403FC00440040074
:1041800003C000400000044027C0004000000000C1
:1041900000100010041027E00000000020403FC085
:1041A0000140070004C00440204020403FC00040C0
:1041B0000040000007C0040007C0040003C0000066
:1041C000044007C00440040003C000400000038016
:1041D0000440044003800000041007F00450044031
:1041E00003800000000003800440045007F000102A
:1041F000044007C002400400040000000000064024
:104200000540054004C00000000004001F80044079
:1042100000400000040007800040044007C0004048
:104220000400070004C0018006000400060001C06D
:10423000070001C006000000044006C0010006C0DF
:10424000044000000410071004E001800600040090
:104250000000044005C006400440000000000000CB
:1042600004007BE040200000000000000000FFF0A0
:1042700000000000000040207BE00400000000007F
:1042800040008000400020002000400000000000AE
:10429000000000000000000000000000000000001E
:1042A00000001FCC000C000000000000000008000F
:1042B000300060000800300060000000022003FCB5
:1042C0001E20022003FC1E200220000000000E1809
:1042D00011043FFF10840C78000000000F001084D0
:1042E0000F3800C0077818840078000000780F8429
:1042F00010C411240E9800E400840008080068002F
:10430000700000000000000000000000000000003D
:10431000000007E0181820044002000000004002DE
:104320002004181807E000000000000002400240CE
:1043300001800FF0018002400240000000800080F8
:1043400000800FF800800080008000000001000D58
:10435000000E0000000000000000000000000080CF
:104360000080008000800080008000800000000C41
:10437000000C00000000000000000000000000062B
:10438000001800600180060018002000000007F0FF
:10439000080810041004080807F0000000000804D2
:1043A00008041FFC000400040000000000000E0CC4
:1043B00010141024104411840E0C000000000C187E
:1043C00010041104110412880C700000000000E0B9
:1043D0000320042408241FFC0024000000001F9870
:1043E000108411041104108810700000000007F000
:1043F00008881104110418880070000000001C00D7
:10440000100010FC13001C001000000000000E380B
:1044100011441084108411440E380000000007007D
:10442000088C10441044088807F0000000000000C9
:104430000000030C030C000000000000000000005E
:1044400000010106000000000000000000000080E4
:10445000014002200410080810040000022002207D
:10446000022002200220022002200000000010048E
:1044700008080410022001400080000000000E0027
:104480001200100C106C10800F00000003E00C18DC
:1044900013E4142417C4082807D000000004003CCB
:1044A00003C41C40074000E4001C000410041FFC6F
:1044B0001104110411040E880070000003E00C18B0
:1044C00010041004100410081C10000010041FFC3D
:1044D000100410041004080807F0000010041FFC6A
:1044E0001104110417C410040818000010041FFC64
:1044F0001104110017C010000800000003E00C18A0
:104500001004100410441C780040000010041FFC2C
:1045100010840080008010841FFC10040000100430
:1045200010041FFC10041004000000000003000130
:10453000100110011FFE10001000000010041FFCED
:10454000110403801464181C1004000010041FFCE4
:104550001004000400040004000C000010041FFC00
:104560001F0000FC1F001FFC1004000010041FFCB3
:104570000C04030000E010181FFC100007F00808EE
:10458000100410041004080807F0000010041FFCB9
:1045900010841080108010800F00000007F00818B1
:1045A00010241024101C080A07F2000010041FFC3D
:1045B0001104110011C011300E0C000400000E1C7B
:1045C00011041084108410441C38000018001000DE
:1045D00010041FFC100410001800000010001FF849
:1045E00010040004000410041FF8100010001E0046
:1045F00011E0001C007013801C0010001FC0103C54
:1046000000E01F0000E0103C1FC000001004180C68
:10461000163401C001C01634180C100410001C0020
:10462000130400FC13041C00100000000804101CFC
:104630001064108413041C04101800000000000013
:1046400000007FFE400240024002000000003000F7
:104650000C0003800060001C00030000000040020A
:10466000400240027FFE0000000000000000000049
:104670002000400040004000200000000001000138
:1046800000010001000100010001000100004000E4
:104690004000200000000000000000000000009822
:1046A000012401440144014400FC000410001FFCEB
:1046B0000088010401040088007000000000007000
:1046C000008801040104010400880000000000705B
:1046D00000880104010411081FFC0004000000F818
:1046E000014401440144014400C8000000000104E9
:1046F00001040FFC1104110411001800000000D681
:1047000001290129012901C90106000010041FFC2B
:10471000008401000100010400FC00040000010409
:10472000190419FC0004000400000000000000034C
:1047300000010101190119FE0000000010041FFC16
:104740000024004001B4010C01040000000010042A
:1047500010041FFC0004000400000000010401FC20
:104760000104010001FC0104010000FC010401FC42
:10477000008401000100010400FC0004000000F8B6
:10478000010401040104010400F80000010101FF1B
:104790000085010401040088007000000000007022
:1047A000008801040104010501FF00010104010466
:1047B00001FC00840104010001800000000000CC25
:1047C00001240124012401240198000000000100BB
:1047D000010007F80104010400000000010001F8D5
:1047E000000400040004010801FC00040100018031
:1047F0000170000C001001600180010001F0010C4B
:10480000003001C00030010C01F001000000010483
:10481000018C00740170018C010400000101018110
:104820000171000E00180160018001000000018488
:10483000010C013401440184010C0000000000005F
:104840000000000001003EFC4002400200000000A9
:1048500000000000FFFF0000000000000000400218
:1048600040023EFC0100000000000000000060006B
:10487000800080004000400020002000FFFC00007D
:10488000FFFC0000FFFC0000FFFC0000FFFC00003C
:10489000FFFC0000FFFC0000FFFC0000FFFC00002C
:1048A000FFFC0000FFFC0000FFFC0000FFFC00001C
:1048B000FFFC0000FFFC0000FFFC0000FFFC00000C
:1048C000FFFC0000FFFC0000FFFC0000FFFC0000FC
:1048D000FFFC0000FFFC0000FFFC0000FFFC0000EC
:1048E000FFFC0000FFFC0000FFFC0000FFFC0000DC
:1048F000FFFC0000FFFC0000FFFC000000000000C7
:1049000000000000000000000000000000000000A7
:104910000000000000000000000000000000000097
:104920000000000000000000000000000000000087
:104930000000000000000000000000000000000077
:1058800003FC000007F800000BF400000FF000001C
:1058900013EC000017E800001BE400001FE000000C
:1058A00023DC000027D800002BD400002FD00000FC
:1058B00033CC000037C800003BC400003FC00000EC
:1058C00043BC000047B800004BB400004FB00000DC
:1058D00053AC000057A800005BA400005FA00000CC
:1058E000639C0000679800006B9400006F900000BC
:1058F000738C0000778800007B8400007F800000AC
:10590000837C0000877800008B7400008F7000009B
:10591000936C0000976800009B6400009F6000008B
:10592000A35C0000A7580000AB540000AF5000007B
:10593000B34C0000B7480000BB440000BF4000006B
:10594000C33C0000C7380000CB340000CF3000005B
:10595000D32C0000D7280000DB240000DF2000004B
:10596000E31C0000E7180000EB140000EF1000003B
:10597000F30C0000F7080000FB040000000000002A
:105980000000000000000000000000000000000017
:105990000000000000000000000000000000000007
:1059A00000000000000000000000000000000000F7
:1059B00000000000000000000000000000000000E7
:106870000000000000000000000000003031323352
:106880003435363738394142434445464030580064
:106890003031323334353637383961626364656696
:1068A00040307800040000080000000000000002F2
:1068B0000001000010000000D8680008000000205F
:1068C000B809000028010008DC700008B8090020A1
:1068D000B80A0000840100089184A24A04680901F2
:1068E000020304060708090C6910F50204060842B1
:1068F0000123E8032310276A6411B123204E1CD71B
:10690000D301184A41021702410147FE45124912BC
:10691000511A61163A033213CDFE1202101A041FE7
:10692000F814A214D41788149514E2FE8411C850E8
:1069300038302410C2130122071BBFB522181B0CCC
:106940003FF022022AC42AA82A92AA817FFE2AA006
:106950002A902A882F94622622BC23B5E74D1FE097
:106960001240024DFFFC124202153FE21002420E9D
:106970001CB1E301451C0FFFF0A720154FC14AA22F
:106980004A944A887FF44A844A824A82DFC3480292
:10699000100CD0AF084008420881FFFE09180B1008
:1069A00021FFE22ABCAAA07FA07046BA6AA9208E65
:1069B00014CABD08181C08040906090409F80908C6
:1069C00009080810FF800860481828040802180108
:1069D00008683020C6B502103EE10202FFF412083A
:1069E00036F052014FF1480258046BF8480448024F
:1069F000DFF34813C2CA101C102890251022102063
:106A0000902490AD9076FF2490299020D02210659C
:106A10001028B022102021D4B408204420267F3032
:106A200082010C7FF0400447C8455A4D41757E45B0
:106A3000404550CFC8440C1BB3F5AA138089176B8F
:106A4000FF0C801941181002100410181FE01002EA
:106A5000100110023FFC43111010CABC0802084488
:106A60000FA8F81008680F86021808067F1A42E27D
:106A7000420202270A4206FF034014BBAF01120282
:106A80001204241FFFE012201240180880FFFC02AD
:106A9000020402CA1A021919CC101FBDDF10081710
:106AA000CC90087070179010507CBC5504569454CC
:106AB000E454965481FC8241FC1A808813CF021260
:106AC000421333FC12092016121FFC111011081179
:106AD000F21004FFC8103850C63301100714CEAAB4
:106AE00004100E0402040444082410342004C007D7
:106AF000300EFC4004200432040104020FFC041B8D
:106B0000C4FA76130C0810143FEEC4010881311149
:106B1000E649202D2FC120012207291331882206A2
:106B200013B7FE19AB100C7FFC444044424441FFB4
:106B3000FE40180D7FFF410241EC4510FD2C41C382
:106B4000AC1113CEF1181880048008811141F14274
:106B50002A4C2BF024402A422A413142217CA62A89
:106B6000C0AAA3A1FC1202120C123C1C7FFE3C081E
:106B7000193D71B3A1FD124012301C3C7FFE271A53
:106B8000300C692242FB1201180C0380038007C0FD
:106B900007C00920010E890219224AFA22A9022BF4
:106BA00009202C29342922100CC9A80840084208C1
:106BB00081FFFE09120A9C20042102347FFE202B53
:106BC000B5E3EE401903EC022002280226FE201253
:106BD0002812241226122017E83204100313CCF8CE
:106BE0002012047CFE440447FC4489FCAA4444026D
:106BF00098FFE01009FFFC028204620C02220E10D2
:106C00000CD2C62420244025807FFFC5101344C128
:106C1000080111113122EA622794248C288830B0AF
:106C200022C01008CFE0082008C00B14FFFF092382
:106C300008806D7FFF4442022BFFFFF316C8B72088
:106C400080211C27FE399A281463FD24020FFC14AE
:106C500090E4902FFE349024910FFF042213CF0272
:106C6000124212221333FC12091212120C15700375
:106C700080FC1303801A700C120322021BB7B5228A
:106C80001D02220433B21128121A3FE120092511F6
:106C900024A1244145A1C611401B2223BBD82D3F6E
:106CA000FE2004023C27F424013C2FF42410347FFE
:106CB000FE201CBEB42164181A2DFCF508250825F9
:106CC000FAF40127FE24010B82F86C081008EC1F6F
:106CD00003084414C7EB0412441337FE15040408D8
:106CE00044181055FF55505550FD5055525551D729
:106CF000FE45792113C6DA1808211022FFEC152071
:106D0000021628FFE510221E247FF84440EE2C4195
:106D1000FFFEEE13B4FD15400880111423FFCC18BC
:106D20001402402250224C2240FE42224123FE62A5
:106D30004026C0022314B3A40149023016FFFF010C
:106D400002010205C4092011102108610401060393
:106D50000401100CB0B4088008820901FFFE09127A
:106D60000530121901112111D2970C51081114117B
:106D7000E21503191817B6CC04810882F08C1FF0B5
:106D800030881186208227D2244E244202164E6F6C
:106D9000D2240629CC1BD0020712023018FFF804B7
:106DA000110C210442200420183FE0200220012081
:106DB000027FFC201809BBBB08400842088166100E
:106DC0001421092117E22424E4282FF03428242454
:106DD0000FE204232222100ECAE411901690F8A0AC
:106DE00013FF30A014100A09FF1550655185FF6488
:106DF000300814F808010DFF0833B3F66C7F3F022A
:106E0000016BFFFE0A133F02427F14BFAA01100A62
:106E100041014102410C7FF0416902147FFF4112A0
:106E2000C1124329EE23BDE1100C0C4414C62544C5
:106E3000C6480848101808127F12421242FE041F6A
:106E4000124232FF1040881AF8B818100227E424C2
:106E500044244824502460FFFF246008200A48246A
:106E6000482FE46406200443B5E74D1FF8111002D3
:106E70005CFFFE11011B1FF965220F1BD7E8A9104B
:106E80000AFF401044085B1060E24E027FFE44425D
:106E900002137FFE1A0202111BD1B92A1E067FF8C7
:106EA0004002AE39023B5FFE081F22411A410240F8
:106EB000221DCBA52204021819082F882A902ABF68
:106EC000AAC26A842AC02AA02A902F8822142222C9
:106ED000222213BCF5100840404030FE03011C0282
:106EE0001FFCCC1810781249127A1004FFE8101C0D
:106EF0009062518FCC1011FD09414A592C6A08C685
:106F0000FF44084A2C714A200F01010E02F1CC10F7
:106F10003010CC1F02100113D6B51A8089112C1F16
:106F2000FFE0F61FFE25522552FD043E255227FEA6
:106F300020AA13C8FD0D13042004210213200422EB
:106F400004180EBDC70401080617F82490E4902425
:106F500002600D27FE24902C903492049107FE18B5
:106F60000BB2A808200620403E30C0AC1813061F04
:106F7000F8110111C21134FF0811141162158118A2
:106F80008813D5FD19F62D400243FE066F40027F9F
:106F9000FE4102023A408814CFD240200947C24441
:106FA0004144427C7C30121084118E12949CA47057
:106FB000C410841314100E1014B7BD10100C10015F
:106FC0001002100410181FE09112711B11026A1CAC
:106FD0000211FC1819022113BADA1211180F167CCB
:106FE00090449054944C9344907FF044081A541069
:106FF000137C942A13231008B3C8082008C00B1868
:1070000018FFFF0902428254FA4A9672920292E2F3
:10701000921A9624FA4A021188100FBAEC04440C12
:10702000E63544C648044818483B0220024B3FFE60
:107030000829AA1A319F5310F81620203F20201249
:10704000321B70080122F01730282422213012331D
:107050001A30102388701718202121221C22342C6A
:10706000804030341009060524243F24243527F8B5
:1070700088888808081719202020110E123636E05B
:10708000108888901B0F1112121F12371A184343D1
:107090006818333E0112381A703129553B1C2255AD
:1070A00012391AF0662310E01701122222110F1A6A
:1070B00030444911170F102020100F922E533030FA
:1070C000323AABC0C013022F051A406E2937260F83
:0C70D00041323FFF8525097B4200000093
:04000005080000ED02
:00000001FF
