:020000040800F2
:1000000090070020B50300089D0100089F0100082B
:10001000A9010008AB010008AD01000800000000C4
:10002000000000000000000000000000AF01000818
:10003000B101000800000000B3010008B50100088C
:10004000CF030008CF030008CF030008CF03000848
:10005000CF030008CF030008CF030008CF03000838
:10006000CF030008CF030008CF030008CF03000828
:10007000CF030008CF030008CF030008CF03000818
:10008000CF030008CF030008CF030008CF03000808
:10009000CF030008CF030008CF030008CF030008F8
:1000A000CF030008CF030008CF030008CF030008E8
:1000B000CF030008B7010008CF030008CF030008F2
:1000C000CF030008CF030008CF030008CF030008C8
:1000D000CF03000879140008CF030008CF030008FD
:1000E000CF030008CF030008CF03000800F002F898
:1000F00000F042F80AA090E8000C82448344AAF180
:100100000107DA4501D100F037F8AFF2090EBAE87D
:100110000F0013F0010F18BFFB1A43F0010318473B
:1001200080460000A0460000103A24BF78C878C17D
:10013000FAD8520724BF30C830C144BF04680C60ED
:10014000704700000023002400250026103A28BF35
:1001500078C1FBD8520728BF30C148BF0B60704739
:10016000752901F0C987782902F0028000207047C4
:100170001FB51FBD10B510BD02F07CF91146FFF789
:10018000F7FF01F0D8F902F09AF903B4FFF7F2FF94
:1001900003BC01F017F9000030BF0000704706A053
:1001A00001F062FF00BFFEE770477047704770477D
:1001B00070477047704770470D0A48617264466126
:1001C000756C745F48616E646C6572204552524F65
:1001D000520D0A000CB50020019000906C48006898
:1001E00040F480306A49086000BF6948006800F444
:1001F000003000900198401C0190009818B90198B7
:10020000B0F5A06FF1D16248006800F4003010B181
:100210000120009001E0002000900098012843D1C7
:100220005C48006840F010005A49086008460068C1
:1002300020F0030008600846006840F002000860F3
:10024000534840685249486008464068486008463C
:10025000406840F4806048600846406820F47C10A4
:1002600048600846406840F4E81048600846006866
:1002700040F08070086000BF4548006800F00070E2
:100280000028F9D04248406820F003004049486007
:100290000846406840F00200486000BF3C484068A3
:1002A00000F00C000828F9D10CBD10B5FFF792FF43
:1002B00010BD10B53648006840F0010034490860B0
:1002C000084640683449084031494860084600689B
:1002D000324908402E4908600846006820F4802012
:1002E00008600846406820F4FE0048604FF41F0094
:1002F0008860FFF7DAFF4FF000602949086010BD01
:1003000010B5002100200022214B5B6803F00C0196
:1003100021B1042906D0082928D107E0214B224C1D
:10032000236027E01F4B204C236023E0184B5B68C1
:1003300003F47010164B5B6803F48032022303EB66
:10034000904022B9194B4343174C23600DE0104BEA
:100350005B6803F4003323B1144B4343124C236016
:1003600003E0104B4343104C236003E00D4B0E4C55
:10037000236000BF00BF064B5B68C3F303130C4C44
:10038000E15C094B1B68CB40074C236010BD0000AB
:1003900000100240002002400000FFF8FFFFF6FEC0
:1003A00008ED00E000127A000000002000093D0086
:1003B000040000200948804709480047FEE7FEE79F
:1003C000FEE7FEE7FEE7FEE7FEE7FEE7FEE7FEE705
:1003D00004480549054A064B70470000B30200086F
:1003E000ED000008900100209007002090030020FD
:1003F0009003002031490143314A1160704770B5C4
:10040000002100230F22C47804B32D4C246804F487
:10041000E064C4F5E064210AC1F10403CA404478F1
:1004200004FA03F18478144021430901254C06782D
:10043000A155047804F01F050124AC4005786D1126
:10044000AD0005F1E025C5F8004109E0047804F0AD
:100450001F050124AC401C4D0678761145F8264056
:1004600070BD1A4A0A400243154B1B1F1A607047A1
:1004700039B1134A121D12680243114B1B1D1A6039
:1004800006E00F4A121D126882430D4B1B1D1A60B5
:100490007047042808D14FF0E021096941F00401B8
:1004A0004FF0E022116107E04FF0E021096921F0EF
:1004B00004014FF0E0221161704700000000FA05CE
:1004C0000CED00E000E400E080E100E080FFFF1FB1
:1004D00010B50446CC48844208D10121042000F024
:1004E0002DFB0021042000F029FB46E0C748844290
:1004F00008D10121082000F021FB0021082000F094
:100500001DFB3AE0C248844208D10121102000F0CE
:1005100015FB0021102000F011FB2EE0BD488442A5
:1005200008D10121202000F009FB0021202000F04B
:1005300005FB22E0B848844208D10121402000F0A8
:10054000FDFA0021402000F0F9FA16E0B348844299
:1005500008D10121802000F0F1FA0021802000F074
:10056000EDFA0AE0AE48844207D10121801500F07F
:10057000E5FA0021A01500F0E1FA10BD10B5012147
:10058000084600F0DBFA0021012000F0D7FA10BD88
:100590002DE9F0410246002500260020002300241A
:1005A000002791F803C00CF00F0591F803C00CF080
:1005B000100CBCF1000F03D091F802C04CEA050505
:1005C00091F800C0BCF1000F31D0146800202BE07E
:1005D0004FF0010C0CFA00F3B1F800C00CEA03066E
:1005E0009E4220D183004FF00F0C0CFA03F7BC435E
:1005F00005FA03FC4CEA040491F803C0BCF1280F8F
:1006000006D14FF0010C0CFA00FCC2F814C00AE04D
:1006100091F803C0BCF1480F05D14FF0010C0CFA62
:1006200000FCC2F810C0401C0828D1D31460B1F8F7
:1006300000C0BCF1FF0F34DD546800202EE000F153
:10064000080C4FF0010808FA0CF3B1F800C00CEAEE
:1006500003069E4221D183004FF00F0C0CFA03F7E2
:10066000BC4305FA03FC4CEA040491F803C0BCF156
:10067000280F05D100F1080C08FA0CF8C2F8148014
:1006800091F803C0BCF1480F07D100F1080C4FF0FE
:10069000010808FA0CF8C2F81080401C0828CED3D4
:1006A0005460BDE8F0814FF6FF7101800221817036
:1006B0000421C17070470246002093680B400BB1C3
:1006C000012000E0002070470146886880B2704732
:1006D00002460020D3680B400BB1012000E000204F
:1006E00070470146C86880B2704701617047416138
:1006F00070470AB1016100E041617047C160704715
:100700004FF480320A438261816182618269826929
:10071000704702460020434B18684FF6807318401C
:1007200040EA021008433F4B186070473E49C861D9
:100730007047F0B50A46002300240021002500F090
:100740000046B6F1004F02D1364EF16901E0354E58
:100750007168C0F3034583B200F44016B6F5401F3C
:1007600008D121F070612F4E766826F070662D4F0B
:100770007E6012E000F48016B6F5801F06D10326D5
:1007800006FA05F4A14341F0706106E0460D36011A
:1007900003FA06F6B14341F0706122B1460D36010D
:1007A00003FA06F6314300F00046B6F1004F02D1DD
:1007B0001C4EF16101E01B4E7160F0BD30B50022AE
:1007C0008B071C0F0F2303FA04F2164B08338C100F
:1007D00053F824309343134C08348D1044F82530DB
:1007E00023468C1053F824308C07240F00FA04F4AD
:1007F00023430C4C08348D1044F8253030BD0A4991
:10080000DC3108607047000000080140000C014026
:10081000001001400014014000180140001C01407C
:10082000002001400000014000002042DF48006835
:1008300040F00100DD49086008464068DC49084096
:10084000DA49486008460068DA490840D749086034
:100850000846006820F4802008600846406820F4BC
:10086000FE0048604FF41F0088607047CF49096858
:1008700021F48031CD4A11601146096821F48021AC
:100880001160B0F5803F03D0B0F5802F0ED106E0A7
:10089000C649096841F48031C44A116007E0C34980
:1008A000096841F4A021C14A116000E000BF00BF07
:1008B000704710B501460022002300204A11012A8A
:1008C00002D1BA4C236806E0022A02D1B74C236A4F
:1008D00001E0B64C636A01F01F02012494401C4001
:1008E0000CB1012000E0002010BD38B500200090C0
:1008F0000024002500BF3120FFF7DBFF05460098EC
:10090000401C00900098B0F5A06F01D0002DF2D0EF
:100910003120FFF7CEFF08B1012400E0002420467B
:1009200038BD01460020A14A106820F0F80040EAD6
:10093000C10010607047A04908607047024600205F
:100940009A4B586820F47C1042EA01031843974BF5
:100950005860704798490866704701460020934ADE
:10096000506820F003000843506070478F4840688B
:1009700000F00C007047014600208C4A506820F0BF
:10098000F00008435060704701460020874A5068D5
:1009900020F4E06008435060704701460020834A1D
:1009A000506820F4605040EAC1005060704729B19F
:1009B0007E4A527A02437D4B5A7204E07B4A527A55
:1009C00082437A4B5A7270477B49D831086070472E
:1009D00001460020754A506820F4404008435060AA
:1009E00070470021714A20321170704A82F820103D
:1009F000012802D004280AD104E001216B4A2032E8
:100A0000117005E00521694A2032117000E000BF35
:100A100000BF70476949086070476449096A01432B
:100A2000624A11627047654944390860704730B5C1
:100A300000210022002400235C4D6D6805F00C01AC
:100A400021B1042905D0082923D105E05C4D0560BA
:100A500022E05B4D05601FE0544D6D6805F4701297
:100A6000524D6D6805F48034022505EB92421CB9A5
:100A7000544D554305600BE04C4D6D6805F4003551
:100A80001DB1504D5543056002E04D4D5543056085
:100A900002E04B4D056000BF00BF444D6D6805F09E
:100AA000F0010909484D6B5C0568DD4045603F4D2C
:100AB0006D6805F4E061090A434D6B5C4568DD40F3
:100AC00085603A4D6D6805F46051C90A3E4D6B5C16
:100AD0004568DD40C560354D6D6805F44041890BC2
:100AE0003A4D6B5CC568B5FBF3F5056130BD29B1C6
:100AF0002E4A526902432D4B5A6104E02B4A526937
:100B000082432A4B5A61704729B1284A92690243AD
:100B1000264B9A6104E0254A92698243234B9A61ED
:100B2000704729B1214AD2690243204BDA6104E0BF
:100B30001E4AD26982431D4BDA61704729B11B4AB4
:100B4000D2680243194BDA6004E0184AD268824343
:100B5000164BDA60704729B1144A12690243134BED
:100B60001A6104E0114A12698243104B1A617047FE
:100B700012494039086070470F49C86470470B49F3
:100B8000C87170470948406A40F080700749486260
:100B9000704701460020054A92680A400AB10120C8
:100BA00000E0002070470149887270470010024041
:100BB0000000FFF8FFFFF6FE0000424280044242C0
:100BC00000127A0000093D001400002024000020DB
:100BD00010B50446FB48844209D101218803FFF780
:100BE000ADFF00214FF48040FFF7A8FF32E0F64848
:100BF000844209D101214804FFF7ADFF00214FF4E1
:100C00000030FFF7A8FF25E0F048844209D1012118
:100C10008804FFF7A0FF00214FF48020FFF79BFF1F
:100C200018E0EB48844209D10121C804FFF793FF83
:100C300000214FF40020FFF78EFF0BE0E5488442CF
:100C400008D101210805FFF786FF00214FF480102D
:100C5000FFF781FF10BD2DE9F04786B005460E462F
:100C60000024A24600BFA1460027B08900B100BF02
:100C70002F462C8A4CF6FF700440F08804432C82E7
:100C8000AC894EF6F3100440B0883189084371896D
:100C900008430443AC81AC8A4FF6FF400440B0895E
:100CA0000443AC8201A8FFF7C2FEC648874202D1C6
:100CB000DDF810A001E0DDF80CA0A88900F40040E8
:100CC00040B10AEBCA0000EB0A1031684900B0FBE2
:100CD000F1F807E00AEBCA0000EB0A10316889005E
:100CE000B0FBF1F86420B8FBF0F0040120096421A6
:100CF00001FB1089A88900F4004040B1322000EBCC
:100D0000C900B0FBF1F000F00700044308E0322016
:100D100000EB09106421B0FBF1F000F00F00044378
:100D20002C8106B0BDE8F0874FF416510160002118
:100D30008180C18001810C21418100218181704726
:100D400010B502460020108A4FF2FF0318400B88AE
:100D50004C8823438C882343CC8823431843108238
:100D600010BD0021018041808180C180704721B188
:100D7000828942F40052828104E082894DF6FF7339
:100D80001A4082817047F0B50346002400260025F2
:100D9000002040F66A17B94200D100BF1846C1F3DF
:100DA000421401F01F06012707FA06F5012C01D1B4
:100DB0000C3004E0022C01D1103000E014301AB1E4
:100DC00007682F43076002E00768AF430760F0BD84
:100DD0001AB1838A0B43838202E0838A8B43838226
:100DE0007047028A4FF6F0731A400282028A0A4361
:100DF0000282704782894FF2FF731A408281828992
:100E00000A438281704721B1828942F002028281C5
:100E100004E082894FF6FD731A4082817047028A8E
:100E20004FF6DF731A400282028A0A430282704739
:100E300021B1028A42F48042028204E0028A4BF627
:100E4000FF731A4002827047C1F308028280704724
:100E500001468888C0F308007047818941F001018C
:100E600081817047028BD2B20283028B42EA012257
:100E700002837047028B02F47F420283028B0A4393
:100E80000283704721B1828A42F02002828204E00C
:100E9000828A4FF6DF731A408282704721B1828ABC
:100EA00042F01002828204E0828A4FF6EF731A4009
:100EB0008282704721B1828A42F00802828204E075
:100EC000828A4FF6F7731A408282704721B1828975
:100ED00042F40042828103E08289C2F30E028281E1
:100EE000704721B1828A42F40062828204E0828AE1
:100EF0004FF2FF731A4082827047828A4FF6FB736B
:100F00001A408282828A0A438282704721B1828A91
:100F100042F00202828204E0828A4FF6FD731A4098
:100F20008282704702460020B1F5007F00D100BFE9
:100F300013880B400BB1012000E00020704701F442
:100F40000072B2F5007F00D100BFCA430280704733
:100F500070B50246002400230025002040F66A16E2
:100F6000B14200D100BFC1F3421501F01F030126B9
:100F700006FA03F3012D02D19689334006E0022DD3
:100F800002D1168A334001E0968A33400C120126C2
:100F900006FA04F41688344013B10CB1012000E0C5
:100FA000002070BD10B50022002340F66A14A14253
:100FB00000D100BF0A1201249440A3B2DC43048094
:100FC00010BD0000003801400044004000480040CF
:100FD000004C0040005000404FF0E021096921F032
:100FE00004014FF0E0221161C21700EB5272C2F30C
:100FF000C7022B4B1A701946097801EB4102C2EB6C
:10100000C1114FF6FF7202EAC101264A11807047F2
:101010000146234A12784A434FF0E0235A610022E6
:101020009A611A46126942F001021A6100BF4FF03C
:10103000E022106900F001021AB100F48032002AA7
:10104000F5D04FF0E022126922F001024FF0E023C8
:101050001A6100229A6170470146124A12884A4377
:101060004FF0E0235A6100229A611A46126942F059
:1010700001021A6100BF4FF0E022106900F0010286
:101080001AB100F48032002AF5D04FF0E022126944
:1010900022F001024FF0E0231A6100229A617047AA
:1010A000280000202A000020B94A11880A131303DF
:1010B000C1F3032203EB0223C1F3031203EB021279
:1010C00001F00F031A4491B24D2202704322427084
:1010D000552282704322C2706122027170224271D5
:1010E0003A2282714FF47A7291FBF2F232B14FF4EC
:1010F0007A7291FBF2F23032C27101E02022C271A9
:101100004FF47A7291FBF2F302FB1312642392FB09
:10111000F3F230320272642291FBF2F302FB1312FB
:101120000A2392FBF3F2303242720A2291FBF2F36D
:1011300002FB1312303282724B22C272622202739D
:10114000704770B50446934805682A4692A1204628
:1011500000F096FF70BD934A0A4002438D4B08335E
:101160001A60704710B504462046FFF743F910BDDA
:10117000F8B504460D4617461E463046FFF7F2FF07
:101180008DF800708DF801408DF8025001208DF827
:1011900003006846FFF733F9F8BD00B50020824927
:1011A0000861C8601420486100208861C861084651
:1011B000006840F001000860084640687B4908402C
:1011C00079494860084600687949084076490860CE
:1011D0000846006820F4802008600846406820F433
:1011E000FE0048600020886000214FF00060FFF79B
:1011F000B2FF00BD10B567481030006840F0040031
:101200006449103108606848C06940F08050664900
:10121000C8616848406840F4807066494860084684
:10122000006840F0040008600846006840F00200D2
:101230000860FEF7B1FF10BD5F4856490C310860E9
:1012400070475949896941F00101574A91615B49E9
:10125000496821F0E061594A51601146496841EA04
:1012600000615160704730B504460025FFF795FFD7
:101270004D48006840F480304B49086000BF4A4840
:101280000068400C0028FAD04FF48060464948605E
:10129000A01EC4B20846406840EA84404860084640
:1012A000406840F4803048604548006840F03200B3
:1012B000434908603C48006840F080703A49086043
:1012C00000BF39480068400E0028FAD03648406810
:1012D00040F002003449486005E033484068C0F3FC
:1012E000870505F00305022DF7D130BD01460A2020
:1012F00091FBF0F200FB12100A2291FBF2F240EA9D
:101300000210C0B27047014601F00F000A1102EB53
:10131000820200EB4200C0B2704701464FF47A707F
:1013200091FBF0F000034FF47A7291FBF2F302FBB1
:101330001312642392FBF3F240EA02201A4691FB57
:10134000F2F302FB13120A2392FBF3F240EA0210BB
:101350001A4691FBF2F302FB1312104380B270475E
:10136000014608134FF47A725043C1F3032202EB93
:10137000C20303EB021200EB8200C1F3031202EB83
:10138000820200EB420001F00F02104480B270476D
:10139000E0F7FF1F00ED00E04350552049443A2597
:1013A0003038580080FFFF1F001002400000FFF897
:1013B000FFFFF6FE007000400400FA050000014047
:1013C0000020024000BF704700BF484A128802F068
:1013D0004002002AF9D0C2B2444B1B1D1A8070474C
:1013E00010B586B00446012144F20400FFF78CFBDF
:1013F0004FF40070ADF8140003208DF8160018208B
:101400008DF8170005A93A48FFF7C2F84FF480603D
:10141000ADF8140004208DF8170005A93448FFF733
:10142000B7F825208DF8000003208DF801008DF815
:10143000020001208DF803006846FEF7E0FF0194EA
:101440000020ADF80800ADF80A00ADF80C00ADF8CA
:1014500010000C20ADF80E0001A92448FFF7FBFB9B
:10146000012240F225512148FFF78DFC01211F4840
:10147000FFF77DFC06B010BD10B540F225511B48AA
:10148000FFF766FD80B31948FFF7E2FCC4B21948C4
:10149000008800F4004038BB1648008800F4804003
:1014A00030B11448008840F40040124908801BE025
:1014B000212C01D00D2C06D10E48008840F480402C
:1014C0000C49088010E00B480088C0F30D000A4961
:1014D0000C5408480088401C0649088008460088CB
:1014E000C72801DD0020088010BD00000038014041
:1014F00000080140300000205000002030B50246B6
:101500000B46002001210FE0545C302C09DB545CB9
:10151000392C06DC545C303C00EB800504EB4500C4
:1015200000E006E04C1CE1B2545C232C01D099424F
:10153000EADB00BF30BD86B000240026A146A046ED
:101540004FF4A060FFF70EFE4FF41650FFF748FF70
:101550004820FFF741FD00F05FFD00F0FFF94FF478
:101560009670FFF779FD00F0AAFA0020AF490870E5
:10157000AF49487000F0C4FAC82000F055FB44F6AB
:10158000206000F036FB4FE109F101001FFA80F9FD
:101590001E2099FBF0F100FB119038B9A5480068B6
:1015A00008B9012000E00020A24908600A20FFF7E6
:1015B00053FDA148008800F40040002870D09E48E8
:1015C0000088C0F30D059D480078412835D10020E2
:1015D000964908709649487000F092FA002401E09C
:1015E000601C84B29548005D422801D0AC42F7DB14
:1015F000AC4206D192A000F037FD00208E49088051
:1016000012E1E1B28D48FFF779FF02902A1BD1B2B7
:101610008A4A1019FFF772FF03904FF47A72029909
:1016200001FB02F000F0E5FA039800F0FDFA87A054
:10163000DDE9021200F018FDA5E08048007843289B
:1016400010D1E9B27D48FFF759FF02904FF47A724A
:10165000029901FB02F000F07EFC87A0029900F0E5
:1016600003FD90E075480078442810D1E9B2734832
:10167000FFF744FF02904FF47A72029901FB02F0E7
:1016800000F091FC84A0029900F0EEFC7BE06B4836
:101690000078452874D1C82000F0C6FA002402E082
:1016A00074E0601C84B26548005D462801D0AC42FD
:1016B000F7DBAC4206D162A000F0D6FC00205E4908
:1016C0000880B1E0E1B25D48FFF718FF02902646BE
:1016D00001E0701C86B25948805D472801D0AE42B7
:1016E000F7DBAE4206D156A000F0BEFC0020524906
:1016F000088099E0321BD1B2504A1019FFF7FEFE64
:101700000390DDE90201884206D34DA000F0ACFC55
:1017100000204949088087E0344601E0601C84B21B
:101720004648005D482801D0AC42F7DBAC4206D108
:1017300043A000F099FC00203F49088074E0A21B00
:10174000D1B23E4A9019FFF7D9FE04902A1BD1B2BC
:101750003A4A1019FFF7D2FE05904FF47A7ADDF875
:1017600014C00CFB0AF302A807C800F0D9FA0598C8
:10177000009052A002A90EC900F076FC03E0FFE73A
:101780002FA000F071FC00202B490880002000F001
:10179000FFF80746002F46D0012F15D0022F34D076
:1017A000032F3FD10020214908702149487000F0E3
:1017B000A7F9C82000F038FA44F6206000F019FAC2
:1017C0004CA000F051FC2DE0B8F1000F0ED144F612
:1017D000206000F0E8FB4DA000F046FCB8F1000FDF
:1017E00001D1012000E0002080460DE044F6206099
:1017F00000F0B1FB4BA000F037FCB8F1000F01D1B5
:10180000012000E0002080460CE0C82000F00CFA27
:101810004A4B14224A49642000F082FA49A000F0A1
:1018200023FC00BF00BF00BFAEE600003300002075
:101830003700002094812142300000205000002019
:101840004572726F72210D0A00000000B4AEBFDA5B
:10185000BFD8D6C6A3BAD5FDCFD2D0C5BAC5A3A826
:10186000256C75206B487A202F20256C75206D56CD
:10187000A3A90D0A00000000B4AEBFDABFD8D6C6D7
:10188000A3BAB7BDB2A8D0C5BAC5A3A8256C7520A8
:101890006B487AA3A90D0A00B4AEBFDABFD8D6C68A
:1018A000A3BABEE2B3DDB2A8D0C5BAC5A3A8256C61
:1018B00075206B487AA3A90D0A000000B4AEBFDA08
:1018C000BFD8D6C6A3BAC9A8C6B5D0C5BAC5A3A83D
:1018D000256C752D256C7520487A202F20256C7578
:1018E00020487A202F20256C75206D73A3A90D0A3E
:1018F00000000000B0B4BCFCBFD8D6C6A3BAD5FD6A
:10190000CFD2D0C5BAC50D0A00000000B0B4BCFCEF
:10191000BFD8D6C6A3BABEE2B3DDB2A8D0C5BAC599
:101920000D0A0000B0B4BCFCBFD8D6C6A3BAB7BD80
:10193000B2A8D0C5BAC50D0A00000000C0D401008D
:10194000A0860100B0B4BCFCBFD8D6C6A3BAC9A853
:10195000C6B5D0C5BAC50D0A0000000008B5012102
:101960004420FFF7D1F81820ADF8000048208DF88A
:10197000030069462C48FEF70BFE0120ADF800007D
:1019800028208DF8030069462848FEF701FE08BDAF
:1019900010B5044614B10120254908702448007888
:1019A00058B310212048FEF786FE50B108211E488A
:1019B000FEF781FE28B101211C48FEF77CFE0128BC
:1019C0001BD10A20FFF748FB00201949087010219D
:1019D0001548FEF770FE08B9012010BD0821124815
:1019E000FEF769FE08B90220F7E701210F48FEF76C
:1019F00062FE012815D10320EFE710210A48FEF707
:101A00005AFE01280DD108210748FEF754FE01288F
:101A100007D101210548FEF74EFE10B90120044907
:101A200008700020D9E700000018014000080140BC
:101A30003200002008B501211C20FFF765F84FF4A3
:101A40008060ADF8000003208DF8020010208DF8B2
:101A500003006946F948FEF79BFD4FF4BA70ADF8F4
:101A600000006946F648FEF793FD43F6FF70ADF8B7
:101A700000006946F348FEF78BFD08BD10B502462D
:101A800080210023F04C2360002015E002EA0103CE
:101A900023B90023EC4C0C34236003E00123EA4C0F
:101AA0000C3423600123E84C236049100023E74CE9
:101AB000C4F88831431CD8B20828E7DB10BD10B544
:101AC000FFF7B8FF0020E2490860E14924390860C7
:101AD000DF490C390860DE4920390860DA490831ED
:101AE0000860DB49303908600120D849C1F8980105
:101AF0000520FFF7B1FA0020D449C1F8980110BDC4
:101B000070B50020D3490860FFF7B8FF002505E055
:101B1000D149485DFFF7B2FF681CC5B2042DF7DB61
:101B20000120CC490860002401E0601CC4B20A2CEA
:101B3000FBDB0020C74908600120FFF79FFF00255D
:101B400005E0C649485DFFF799FF681CC5B2042D42
:101B5000F7DB0120BF490860002401E0601CC4B22B
:101B60000A2CFBDB0020BB4908600220FFF786FF40
:101B7000002505E0BA49485DFFF780FF681CC5B243
:101B8000042DF7DB0120B3490860002401E0601C4C
:101B9000C4B20A2CFBDB0120AD49283908600024BF
:101BA00001E0601CC4B20A2CFBDB0020A8492839E4
:101BB00008600120FFF750FA70BD10B50020A5495C
:101BC00008600E20FFF75AFF002405E0A549085DD4
:101BD000FFF754FF601CC4B2082CF7DB01209D49BD
:101BE0000860A149C1F88C01002099492839086092
:101BF00010BD2DE9F0478146484600F0A2FC07469B
:101C00009A4A9B4B00F0B0FC054600F06DFC044680
:101C10009449CC71200A8871200C4871200E0871FB
:101C2000FFF7CBFFBDE8F0872DE9F0478146484636
:101C300000F087FC07468F4A8F4B00F095FC054665
:101C400000F052FC0446B4F5804F01D343F6FF7414
:101C5000C4F30D0483494C70200A0870FFF7ADFFF0
:101C6000BDE8F08770B500207A4908600B20FFF7C7
:101C700005FF002405E08149085DFFF7FFFE601CB9
:101C8000C4B2082CF7DB012072490860002501E08E
:101C9000681CC5B20A2DFBDB00206E4908600C20D1
:101CA000FFF7ECFE082405E07449085DFFF7E6FE47
:101CB000601CC4B2102CF7DB0120664908600025C7
:101CC00001E0681CC5B20A2DFBDB002061490860F9
:101CD0000D20FFF7D3FE102405E06849085DFFF7EB
:101CE000CDFE601CC4B2142CF7DB012059490860FA
:101CF000002501E0681CC5B20A2DFBDB0120544918
:101D000028390860002501E0681CC5B20A2DFBDBFC
:101D100000204F49283908600120FFF79DF970BD68
:101D20002DE9FF4F85B08A469346059800F009FCDF
:101D30004E4A4F4BCDE9000100F016FCCDE90201FF
:101D400000F0D2FB81464E48824500D9824650467B
:101D500000F0F7FB454A464BCDE9000100F004FCDA
:101D6000CDE9020100F0C0FB07464548834500D994
:101D70008346584600F0E5FB3C4A3D4BCDE9000167
:101D800000F0F2FBCDE9020100F0AEFB044625466F
:101D900008988608B6F5803F01D34FF6FF76B04627
:101DA000364981F807904FEA192088714FEA1940A7
:101DB00048714FEA19600871CF70380A8870380C82
:101DC0004870380E0870CC73200A8873200C487352
:101DD000200E0873CD72280A8872280C4872280ECB
:101DE0000872CE74300A8874464681F811804FEA32
:101DF00018200874FFF736FF0020174908700E20DE
:101E000016494870FFF77CFE09B0BDE8F08F70B549
:101E10000020104908600E20FFF730FE002505E085
:101E20001849485DFFF72AFE681CC5B2082DF7DB8C
:101E3000012008490860002428E00000000C01404F
:101E400000080140001001408801214200002142A9
:101E5000B4012242A8812142330000203700002033
:101E60003B0000203F0000200000224295D626E8DB
:101E70000B2E1140083D9B559F7B3C4018010020D4
:101E80000084D71747000020601CC4B20A2CFBDB7B
:101E9000012059490860002401E0601CC4B20A2CEA
:101EA000FBDB0020544908600120FFF7D5F870BD26
:101EB00070B50646012E26D1002050490860162034
:101EC000FFF7DCFD002504E04D49485DFFF7D6FD36
:101ED0006D1CB5F5805FF7D30120484908600024E8
:101EE00000E0641C0A2CFCD3012043490860002454
:101EF00000E0641C0A2CFCD300203F49086001204C
:101F0000FFF7AAF826E000203C4908601620FFF7FA
:101F1000B5FD002504E03B49485DFFF7AFFD6D1CB2
:101F2000B5F5805FF7D3012034490860002400E054
:101F3000641C0A2CFCD301202F490860002400E017
:101F4000641C0A2CFCD300202B4908600120FFF7F9
:101F500083F800BF70BD70B505462B48B0FBF5F0A7
:101F6000040AB4F5803F01D34FF6FF7424202749BB
:101F7000C871002088714871C02008710F20C87096
:101F80008C70200A487000200870FFF740FF012085
:101F9000FFF78EFFC0201E49087000201D494870C1
:101FA000FFF7AEFD70BD70B505461748B0FBF5F004
:101FB000040AB4F5803F01D34FF6FF74242013497F
:101FC000C871002088714871C02008710F20C87046
:101FD0008C70200A487000200870FFF718FF00205E
:101FE000FFF766FFC0200A490870002009494870C1
:101FF000FFF786FD70BD00008C012242A8812142BE
:10200000642700086437000800CA9A3B4700002094
:10201000330000203700002008B501214820FEF7DA
:1020200073FD2020ADF8000010208DF80300032080
:102030008DF8020069460948FEF7AAFA20210748F0
:10204000FEF753FB2020ADF8000069460448FEF778
:102050009FFA20210248FEF748FB08BD000C014012
:1020600000180140704700000FB4044910B503AADE
:10207000029800F0E9F910BC5DF814FB2C00002078
:102080000FB41CB5074B06AA7B446946009005981F
:1020900000F0C1F90020694600F0D0F91CBC5DF8E1
:1020A00014FB0000B103000070B5044685690068A8
:1020B000C10601D5302600E02026C00707D070BD3C
:1020C000D4E9012130469047206A401C20626D1EF1
:1020D000F6D570BD70B5044685690078C00707D194
:1020E00070BDD4E9012120209047206A401C206265
:1020F0006D1EF6D570BD00002DE9F04106460024A6
:1021000010687529314616A510D0AFF3008000285D
:1021100002DA404213A507E031688A0701D512A50B
:1021200002E0490704D511A5012401E0AFF30080C6
:1021300000210A2206F1240709E0B0FBF2FCB0FB03
:10214000F2F302FB1C00303078541846491C00287A
:10215000F3D123462A463046BDE8F04100F0FCB8F2
:10216000000000002D0000002B00000020000000F7
:1021700070B504460D4621461068AFF300802188F3
:10218000090502D50F4A7A4402E00E4A7A440E321B
:10219000002104F1240305E000F00F060009965D1C
:1021A0005E54491C0028F7D120780023000704D58D
:1021B000702D02D009B1022311322046BDE87040D3
:1021C00000F0CAB8DA2500002DE9F05F8946044620
:1021D0004FF0000ADFF874B1FB44C0F820A020469D
:1021E000E1688847002874D0252806D0D4E9012169
:1021F0009047206A401C2062F1E700265F46204697
:10220000E16888472028054607DB312D05D278197B
:1022100010F8200C08B10643F1E7B00701D526F00D
:102220000406C4F81CA00027C4F818A02A2D09D061
:10223000284600F051F938B304EB8708303DC8F860
:10224000185019E059F8041B204604EB87029161ED
:10225000E1688847012F054618D1E069002820DA97
:1022600026F020061DE0D8F8180000EB800005EBF2
:1022700040003038C8F818002046E1688847054615
:1022800000F02AF90028EED1012F0AD02E2D08D116
:102290002046E16888477F1C0546022F46F020064D
:1022A000C4DBA069002803DA404246F00106A061C1
:1022B000F00701D026F010066C2D0BD0682D09D048
:1022C0004C2D39D06A2D35D0742D35D07A2D33D0A0
:1022D00016E038E0E1682F4620468847B8420546B8
:1022E00009D16C2F26D04FF48060E1680643204668
:1022F0008847054604E06C2F1AD04FF480700643DF
:102300000DB3A5F14100192802D8203546F4006626
:102310004A462946204626604E46FDF721FF80B1F9
:1023200001280BD0F61D26F0070000F1080956E73A
:102330004020E4E78020D8E70020D6E706F1040932
:102340004DE7284652E7206ABDE8F09FB02500001F
:1023500070477047704770472DE9F0470D46994622
:102360009246044600F124080168880604D5E06915
:1023700021F01001216000E00120A84201DD471B8F
:1023800000E00027A1697A1902EB0900081AA06190
:102390002078C00602D42046FFF786FE002608E01B
:1023A000D4E901211AF806009047206A401C761CE7
:1023B00020624E45F4DB2078C0060AD52046FFF7A0
:1023C00073FE06E0D4E9012130209047206A401CCA
:1023D0002062381EA7F10107F4DC07E0D4E90121EF
:1023E00018F805009047206A401C2062281EA5F1BD
:1023F0000105F3DC2046FFF76DFE2078000602D5CC
:102400000220BDE8F0870120FBE7000001694A1CBB
:1024100002610878704700B58FB0CDE90131002125
:10242000059105497944CDE9031011466846FFF747
:10243000CBFE0FB000BD0000E5FFFFFF0A6802F809
:10244000010B0A6070470000074B70B50D467B44D6
:10245000FFF7E1FF0446284600F008F810B14FF0FE
:10246000FF3070BD204670BD77EFFFFF007B00F0AE
:1024700080007047754600F02BF8AE4605006946AF
:10248000534620F00700854618B020B5FDF7A0FFA1
:10249000BDE820404FF000064FF000074FF0000865
:1024A0004FF0000B21F00701AC46ACE8C009ACE8E6
:1024B000C009ACE8C009ACE8C0098D46704710B54A
:1024C0000446AFF300802046BDE81040FDF75DBE36
:1024D000004870472C01002030380A2801D2012022
:1024E00070470020704700004FEA1153A3F5806346
:1024F000D3F11E03A8BFD3F1200C08DB4FF000423C
:1025000042EAC12252EA505232FA03F070470942BD
:102510000BD4102BC4BF0020704703F5787CBCF1AE
:10252000FF3F05D04FF0FF3070474FF0000070477D
:1025300070B500F0C3F800BF4992248000207047B6
:10254000F0E7B0FA80F310FA03F10AD0C3F11D03EB
:1025500003F580634FEA41504FEA035202EBD12169
:1025600070474FF000007047DFF848C170B51CEAB3
:10257000111E1EBF1CEA13159EEA0C0F95EA0C0FE4
:1025800000F06F8081EA030423EA4C134EEAD47E04
:1025900021EA4C1141F4801143F48013AE44A1FBB5
:1025A000024CA0FB0365AEF17F7E361955EB0C059E
:1025B000A1FB034C4CF10003A0FB021C16EB0C0624
:1025C000654153F10003094218BF46F0010613F4B8
:1025D000007F0BD14FEA03314FEA0530340341EA63
:1025E000155140EA16506FF003020AE04FEAC3218A
:1025F0004FEAC520F40241EA555140EA56506FF0C7
:10260000020202EB2E4201EB025585EACE710AD09E
:102610005FEA440C18BF24F0004450F1000041F17F
:10262000000120EAD47040F2FE7C624500D270BD09
:10263000A84214BF4FF080444FF04044002E08BF22
:102640000024BEF1806FA8BFA1F1C041BDE8704079
:1026500080F282804FF0000001F1C04101F00041A2
:1026600070479EEA0C0F0CEA131518BF95EA0C0F81
:1026700006D04FF0000081EA030E0EF0004170BD5D
:1026800000F01CF88900013E00F007B800F009B81E
:102690004FEA430C5FEA5C5C08D081EA030100F07A
:1026A0005BB84FEA410C5FEA5C5CF6D14FF000008A
:1026B000014970470000FF070000F87F0EF1020E8D
:1026C0002EF0030E5EF8046B364205D4012A43EB6C
:1026D000030515F5001F12D8012841EB010C1CF56C
:1026E000001F0CD80ED14FEAD17C15F5001F0CEB62
:1026F0004C0C0CF1020C08BF4CEBD37C04E04FF007
:10270000080C01E04FEAD37C0CEB4C0526FA05F6E9
:1027100006F00706B6F1040C06D20EEB860CBDE8F7
:1027200070404CF0010C6047DFE80CF0090B02022E
:102730004FF000414FF00000A1F5002170BD194697
:102740001046012851EB010418BFD4F5001484BFD2
:10275000002001F0004170BD0808A0F500114FEA0B
:1027600031017047FFFC0000FFFC0000FFFC00008F
:10277000FFFC0000FFFC0000FFFC0000FFFC00006D
:10278000FFFC0000FFFC0000FFFC0000FFFC00005D
:10279000FFFC0000FFFC0000FFFC0000FFFC00004D
:1027A000FFFC0000FFFC0000FFFC0000FFFC00003D
:1027B000FFFC0000FFFC0000FFFC0000FFFC00002D
:1027C000FFFC0000FFFC0000FFFC0000FFFC00001D
:1027D000FFFC0000FFFC0000FFFC0000FFFC00000D
:1027E000FFFC0000000000000000000000000000EE
:1027F00000000000000000000000000000000000D9
:1028000000000000000000000000000000000000C8
:1028100000000000000000000000000000000000B8
:1028200000000000000000000000000000000000A8
:10376000000000000000000003FC000007F800005B
:103770000BF400000FF0000013EC000017E800004D
:103780001BE400001FE0000023DC000027D800003D
:103790002BD400002FD0000033CC000037C800002D
:1037A0003BC400003FC0000043BC000047B800001D
:1037B0004BB400004FB0000053AC000057A800000D
:1037C0005BA400005FA00000639C000067980000FD
:1037D0006B9400006F900000738C000077880000ED
:1037E0007B8400007F800000837C000087780000DD
:1037F0008B7400008F700000936C000097680000CD
:103800009B6400009F600000A35C0000A7580000BC
:10381000AB540000AF500000B34C0000B7480000AC
:10382000BB440000BF400000C33C0000C73800009C
:10383000CB340000CF300000D32C0000D72800008C
:10384000DB240000DF200000E31C0000E71800007C
:10385000EB140000EF100000F30C0000F70800006C
:10386000FB04000000000000000000000000000059
:103870000000000000000000000000000000000048
:103880000000000000000000000000000000000038
:103890000000000000000000000000000000000028
:1038A0000000000000000000000000000000000018
:1047600000000000303132333435363738394142B9
:1047700043444546403058003031323334353637C3
:10478000383961626364656640307800040000086F
:104790000000000000000002000100001000000006
:1047A000C047000800000020500000002801000859
:1047B0001048000850000020400700004401000895
:1047C00000A24A04000000000000000001020304EF
:1047D00006070809000000000102030401020304A7
:1047E0000607080902040608000000000000000097
:1047F0000000010040000001000000050F41323FB1
:10480000FF000025097B42000000000000000000BE
:04000005080000ED02
:00000001FF
