:020000040800F2
:100000002807002015040008950100089701000842
:10001000A1010008A3010008A501000800000000DC
:10002000000000000000000000000000A701000820
:10003000A901000800000000AB010008AD010008A4
:100040002F0400082F0400082F0400082F040008C4
:100050002F0400082F0400082F0400082F040008B4
:100060002F0400082F0400082F0400082F040008A4
:100070002F0400082F0400082F0400082F04000894
:100080002F0400082F0400082F0400082F04000884
:100090002F0400082F0400082F0400082F04000874
:1000A0002F0400082F0400082F0400082F04000864
:1000B0002F040008AF0100082F0400082F040008D7
:1000C0002F0400082F0400082F0400082F04000844
:1000D0002F040008092300082F0400082F0400083B
:1000E0002F0400082F0400082F04000800F002F875
:1000F00000F03FF80AA090E8000C82448344AAF183
:100100000107DA4501D100F034F8AFF2090EBAE880
:100110000F0013F0010F18BFFB1A43F0010318473B
:10012000903E0000B03E0000103A24BF78C878C16D
:10013000FAD8520724BF30C830C144BF04680C60ED
:10014000704700000023002400250026103A28BF35
:1001500078C1FBD8520728BF30C148BF0B60704739
:10016000782902F03384002070471FB51FBD10B5F9
:1001700010BD02F085FD1146FFF7F7FF02F026F9EA
:1001800002F0A3FD03B4FFF7F2FF03BC02F058F83E
:1001900030BF000070471AA002F0D0FB00BFFEE79E
:1001A000704770477047704770477047704710B589
:1001B00001211A4801F036FE19480068401C184910
:1001C00008601848006828B117480068401C1649A4
:1001D000086002E000201449086014480088401CB0
:1001E00012490880084600880A2807D1104800688C
:1001F000401C0F49086000200C49088010BD000019
:100200000D0A486172644661756C745F48616E6482
:100210006C6572204552524F520D0A000004004096
:10022000540000206C00002060000020000000202E
:10023000040000200CB50020019000906C4800687C
:1002400040F480306A49086000BF6948006800F4E3
:10025000003000900198401C0190009818B9019856
:10026000B0F5A06FF1D16248006800F4003010B121
:100270000120009001E0002000900098012843D167
:100280005C48006840F010005A4908600846006861
:1002900020F0030008600846006840F00200086093
:1002A00053484068524948600846406848600846DC
:1002B000406840F4806048600846406820F47C1044
:1002C00048600846406840F4E81048600846006806
:1002D00040F08070086000BF4548006800F0007082
:1002E0000028F9D04248406820F0030040494860A7
:1002F0000846406840F00200486000BF3C48406843
:1003000000F00C000828F9D10CBD10B5FFF792FFE2
:1003100010BD10B53648006840F00100344908604F
:10032000084640683449084031494860084600683A
:10033000324908402E4908600846006820F48020B1
:1003400008600846406820F4FE0048604FF41F0033
:100350008860FFF7DAFF4FF000602949086010BDA0
:1003600010B5002100200022214B5B6803F00C0136
:1003700021B1042906D0082928D107E0214B224CBD
:10038000236027E01F4B204C236023E0184B5B6861
:1003900003F47010164B5B6803F48032022303EB06
:1003A000904022B9194B4343174C23600DE0104B8A
:1003B0005B6803F4003323B1144B4343124C2360B6
:1003C00003E0104B4343104C236003E00D4B0E4CF5
:1003D000236000BF00BF064B5B68C3F303130C4CE4
:1003E000E15C094B1B68CB40074C236010BD00004B
:1003F00000100240002002400000FFF8FFFFF6FE60
:1004000008ED00E000127A000800002000093D001D
:100410000C0000200948804709480047FEE7FEE736
:10042000FEE7FEE7FEE7FEE7FEE7FEE7FEE7FEE7A4
:1004300004480549054A064B7047000013030008AD
:10044000ED000008280100202807002028030020D4
:100450002803002031490143314A1160704770B5CB
:10046000002100230F22C47804B32D4C246804F427
:10047000E064C4F5E064210AC1F10403CA40447891
:1004800004FA03F18478144021430901254C0678CD
:10049000A155047804F01F050124AC4005786D11C6
:1004A000AD0005F1E025C5F8004109E0047804F04D
:1004B0001F050124AC401C4D0678761145F82640F6
:1004C00070BD1A4A0A400243154B1B1F1A60704741
:1004D00039B1134A121D12680243114B1B1D1A60D9
:1004E00006E00F4A121D126882430D4B1B1D1A6055
:1004F0007047042808D14FF0E021096941F0040158
:100500004FF0E022116107E04FF0E021096921F08E
:1005100004014FF0E0221161704700000000FA056D
:100520000CED00E000E400E080E100E080FFFF1F50
:1005300010B50446CC48844208D10121042000F0C3
:100540002DFB0021042000F029FB46E0C74884422F
:1005500008D10121082000F021FB0021082000F033
:100560001DFB3AE0C248844208D10121102000F06E
:1005700015FB0021102000F011FB2EE0BD48844245
:1005800008D10121202000F009FB0021202000F0EB
:1005900005FB22E0B848844208D10121402000F048
:1005A000FDFA0021402000F0F9FA16E0B348844239
:1005B00008D10121802000F0F1FA0021802000F014
:1005C000EDFA0AE0AE48844207D10121801500F01F
:1005D000E5FA0021A01500F0E1FA10BD10B50121E7
:1005E000084600F0DBFA0021012000F0D7FA10BD28
:1005F0002DE9F041024600250026002000230024BA
:10060000002791F803C00CF00F0591F803C00CF01F
:10061000100CBCF1000F03D091F802C04CEA0505A4
:1006200091F800C0BCF1000F31D0146800202BE01D
:100630004FF0010C0CFA00F3B1F800C00CEA03060D
:100640009E4220D183004FF00F0C0CFA03F7BC43FD
:1006500005FA03FC4CEA040491F803C0BCF1280F2E
:1006600006D14FF0010C0CFA00FCC2F814C00AE0ED
:1006700091F803C0BCF1480F05D14FF0010C0CFA02
:1006800000FCC2F810C0401C0828D1D31460B1F897
:1006900000C0BCF1FF0F34DD546800202EE000F1F3
:1006A000080C4FF0010808FA0CF3B1F800C00CEA8E
:1006B00003069E4221D183004FF00F0C0CFA03F782
:1006C000BC4305FA03FC4CEA040491F803C0BCF1F6
:1006D000280F05D100F1080C08FA0CF8C2F81480B4
:1006E00091F803C0BCF1480F07D100F1080C4FF09E
:1006F000010808FA0CF8C2F81080401C0828CED374
:100700005460BDE8F0814FF6FF71018002218170D5
:100710000421C17070470246002093680B400BB162
:10072000012000E0002070470146886880B27047D1
:1007300002460020D3680B400BB1012000E00020EE
:1007400070470146C86880B27047016170474161D7
:1007500070470AB1016100E041617047C1607047B4
:100760004FF480320A4382618161826182698269C9
:10077000704702460020434B18684FF680731840BC
:1007800040EA021008433F4B186070473E49C86179
:100790007047F0B50A46002300240021002500F030
:1007A0000046B6F1004F02D1364EF16901E0354EF8
:1007B0007168C0F3034583B200F44016B6F5401FDC
:1007C00008D121F070612F4E766826F070662D4FAB
:1007D0007E6012E000F48016B6F5801F06D1032675
:1007E00006FA05F4A14341F0706106E0460D3601BA
:1007F00003FA06F6B14341F0706122B1460D3601AD
:1008000003FA06F6314300F00046B6F1004F02D17C
:100810001C4EF16101E01B4E7160F0BD30B500224D
:100820008B071C0F0F2303FA04F2164B08338C10AE
:1008300053F824309343134C08348D1044F825307A
:1008400023468C1053F824308C07240F00FA04F44C
:1008500023430C4C08348D1044F8253030BD0A4930
:10086000DC3108607047000000080140000C0140C6
:10087000001001400014014000180140001C01401C
:10088000002001400000014000002042DF480068D5
:1008900040F00100DD49086008464068DC49084036
:1008A000DA49486008460068DA490840D7490860D4
:1008B0000846006820F4802008600846406820F45C
:1008C000FE0048604FF41F0088607047CF490968F8
:1008D00021F48031CD4A11601146096821F480214C
:1008E0001160B0F5803F03D0B0F5802F0ED106E047
:1008F000C649096841F48031C44A116007E0C34920
:10090000096841F4A021C14A116000E000BF00BFA6
:10091000704710B501460022002300204A11012A29
:1009200002D1BA4C236806E0022A02D1B74C236AEE
:1009300001E0B64C636A01F01F02012494401C40A0
:100940000CB1012000E0002010BD38B5002000905F
:100950000024002500BF3120FFF7DBFF054600988B
:10096000401C00900098B0F5A06F01D0002DF2D08F
:100970003120FFF7CEFF08B1012400E0002420461B
:1009800038BD01460020A14A106820F0F80040EA76
:10099000C10010607047A0490860704702460020FF
:1009A0009A4B586820F47C1042EA01031843974B95
:1009B0005860704798490866704701460020934A7E
:1009C000506820F003000843506070478F4840682B
:1009D00000F00C007047014600208C4A506820F05F
:1009E000F00008435060704701460020874A506875
:1009F00020F4E06008435060704701460020834ABD
:100A0000506820F4605040EAC1005060704729B13E
:100A10007E4A527A02437D4B5A7204E07B4A527AF4
:100A200082437A4B5A7270477B49D83108607047CD
:100A300001460020754A506820F440400843506049
:100A400070470021714A20321170704A82F82010DC
:100A5000012802D004280AD104E001216B4A203287
:100A6000117005E00521694A2032117000E000BFD5
:100A700000BF70476949086070476449096A0143CB
:100A8000624A11627047654944390860704730B561
:100A900000210022002400235C4D6D6805F00C014C
:100AA00021B1042905D0082923D105E05C4D05605A
:100AB00022E05B4D05601FE0544D6D6805F4701237
:100AC000524D6D6805F48034022505EB92421CB945
:100AD000544D554305600BE04C4D6D6805F40035F1
:100AE0001DB1504D5543056002E04D4D5543056025
:100AF00002E04B4D056000BF00BF444D6D6805F03E
:100B0000F0010909484D6B5C0568DD4045603F4DCB
:100B10006D6805F4E061090A434D6B5C4568DD4092
:100B200085603A4D6D6805F46051C90A3E4D6B5CB5
:100B30004568DD40C560354D6D6805F44041890B61
:100B40003A4D6B5CC568B5FBF3F5056130BD29B165
:100B50002E4A526902432D4B5A6104E02B4A5269D6
:100B600082432A4B5A61704729B1284A926902434D
:100B7000264B9A6104E0254A92698243234B9A618D
:100B8000704729B1214AD2690243204BDA6104E05F
:100B90001E4AD26982431D4BDA61704729B11B4A54
:100BA000D2680243194BDA6004E0184AD2688243E3
:100BB000164BDA60704729B1144A12690243134B8D
:100BC0001A6104E0114A12698243104B1A6170479E
:100BD00012494039086070470F49C86470470B4993
:100BE000C87170470948406A40F080700749486200
:100BF000704701460020054A92680A400AB1012068
:100C000000E00020704701498872704700100240E0
:100C10000000FFF8FFFFF6FE00004242800442425F
:100C200000127A0000093D001C0000202C0000206A
:100C300010B50446FB48844209D101218803FFF71F
:100C4000ADFF00214FF48040FFF7A8FF32E0F648E7
:100C5000844209D101214804FFF7ADFF00214FF480
:100C60000030FFF7A8FF25E0F048844209D10121B8
:100C70008804FFF7A0FF00214FF48020FFF79BFFBF
:100C800018E0EB48844209D10121C804FFF793FF23
:100C900000214FF40020FFF78EFF0BE0E54884426F
:100CA00008D101210805FFF786FF00214FF48010CD
:100CB000FFF781FF10BD2DE9F04786B005460E46CF
:100CC0000024A24600BFA1460027B08900B100BFA2
:100CD0002F462C8A4CF6FF700440F08804432C8287
:100CE000AC894EF6F3100440B0883189084371890D
:100CF00008430443AC81AC8A4FF6FF400440B089FE
:100D00000443AC8201A8FFF7C2FEC648874202D165
:100D1000DDF810A001E0DDF80CA0A88900F4004087
:100D200040B10AEBCA0000EB0A1031684900B0FB81
:100D3000F1F807E00AEBCA0000EB0A1031688900FD
:100D4000B0FBF1F86420B8FBF0F004012009642145
:100D500001FB1089A88900F4004040B1322000EB6B
:100D6000C900B0FBF1F000F00700044308E03220B6
:100D700000EB09106421B0FBF1F000F00F00044318
:100D80002C8106B0BDE8F0874FF4165101600021B8
:100D90008180C18001810C214181002181817047C6
:100DA00010B502460020108A4FF2FF0318400B884E
:100DB0004C8823438C882343CC88234318431082D8
:100DC00010BD0021018041808180C180704721B128
:100DD000828942F40052828104E082894DF6FF73D9
:100DE0001A4082817047F0B5034600240026002592
:100DF000002040F66A17B94200D100BF1846C1F37F
:100E0000421401F01F06012707FA06F5012C01D153
:100E10000C3004E0022C01D1103000E014301AB183
:100E200007682F43076002E00768AF430760F0BD23
:100E30001AB1838A0B43838202E0838A8B438382C5
:100E40007047028A4FF6F0731A400282028A0A4300
:100E50000282704782894FF2FF731A408281828931
:100E60000A438281704721B1828942F00202828165
:100E700004E082894FF6FD731A4082817047028A2E
:100E80004FF6DF731A400282028A0A4302827047D9
:100E900021B1028A42F48042028204E0028A4BF6C7
:100EA000FF731A4002827047C1F3080282807047C4
:100EB00001468888C0F308007047818941F001012C
:100EC00081817047028BD2B20283028B42EA0122F7
:100ED00002837047028B02F47F420283028B0A4333
:100EE0000283704721B1828A42F02002828204E0AC
:100EF000828A4FF6DF731A408282704721B1828A5C
:100F000042F01002828204E0828A4FF6EF731A40A8
:100F10008282704721B1828A42F00802828204E014
:100F2000828A4FF6F7731A408282704721B1828914
:100F300042F40042828103E08289C2F30E02828180
:100F4000704721B1828A42F40062828204E0828A80
:100F50004FF2FF731A4082827047828A4FF6FB730A
:100F60001A408282828A0A438282704721B1828A31
:100F700042F00202828204E0828A4FF6FD731A4038
:100F80008282704702460020B1F5007F00D100BF89
:100F900013880B400BB1012000E00020704701F4E2
:100FA0000072B2F5007F00D100BFCA4302807047D3
:100FB00070B50246002400230025002040F66A1682
:100FC000B14200D100BFC1F3421501F01F03012659
:100FD00006FA03F3012D02D19689334006E0022D73
:100FE00002D1168A334001E0968A33400C12012662
:100FF00006FA04F41688344013B10CB1012000E065
:10100000002070BD10B50022002340F66A14A142F2
:1010100000D100BF0A1201249440A3B2DC43048033
:1010200010BD00000038014000440040004800406E
:10103000004C00400050004010B50446FE48844279
:1010400008D10121C014FFF7A9FD0021E014FFF72A
:10105000A5FDC4E0B4F1804F08D101210846FFF797
:10106000AAFD00210120FFF7A6FDB8E0F348844265
:1010700008D101210220FFF79EFD00210220FFF789
:101080009AFDACE0EE48844208D101210420FFF72C
:1010900092FD00210420FFF78EFDA0E0E948844284
:1010A00008D101210820FFF786FD00210820FFF765
:1010B00082FD94E0E448844208D101211020FFF72A
:1010C0007AFD00211020FFF776FD88E0DF4884429A
:1010D00008D101212020FFF76EFD00212020FFF71D
:1010E0006AFD7CE0DA48844208D101214014FFF710
:1010F00055FD00216014FFF751FD70E0D548844292
:1011000009D10121C804FFF749FD00214FF4002057
:10111000FFF744FD63E0D048844209D1012108056E
:10112000FFF73CFD00214FF48010FFF737FD56E03C
:10113000CA48844209D101214805FFF72FFD00214B
:101140004FF40010FFF72AFD49E0C548844208D15A
:1011500001214020FFF72FFD00214020FFF72BFD4C
:101160003DE0C048844208D101218020FFF723FDE3
:1011700000218020FFF71FFD31E0BB48844208D1E9
:1011800001218015FFF717FD0021A015FFF713FDC2
:1011900025E0B648844209D101210804FFF7FEFC8E
:1011A00000214FF48030FFF7F9FC18E0B04884428A
:1011B00009D101214804FFF7F1FC00214FF4003070
:1011C000FFF7ECFC0BE0AB48844208D10121880416
:1011D000FFF7E4FC00214FF48020FFF7DFFC10BD97
:1011E00000220288944B98420ED0994B98420BD023
:1011F000B0F1804F08D0914B984205D0904B984267
:1012000002D0904B984204D14FF68F731A404B880E
:101210001A438D4B984207D08C4B984204D04FF61E
:10122000FF431A40CB881A4302808B8883850B8842
:101230000385814B98420BD0854B984208D08B4B4D
:10124000984205D08A4B984202D08A4B984201D1ED
:101250000B7A038601238382704770B50024002235
:101260000023058C4FF6FE7635400584028C83887A
:10127000048B4FF68F752C40B51E2C400D882C43E7
:10128000751E2A400D892A434D882A436A4DA8427B
:101290000BD06F4DA84208D0744DA84205D0744DB4
:1012A000A84202D0734DA84213D14FF6F7752A40D9
:1012B0004D892A434FF6FB752A408D882A434FF605
:1012C000FF652B404FF6FF552B408D892B43CD8971
:1012D0002B4383800483CD888586028470BD70B5DE
:1012E000002400220023058C4FF6EF76354005845C
:1012F000028C8388048B48F6FF752C404FF6FF451F
:101300002C400D884FF6FF7606EA05252C434FF654
:10131000DF752A400D8906EA05152A434D8806EA3D
:1013200005152A43444DA84202D0494DA8421DD17B
:101330004FF67F752A404D894FF6FF7606EA051570
:101340002A434FF6BF752A408D8806EA05152A43C1
:101350004FF6FF352B404FF2FF752B408D8906EA83
:1013600085052B43CD8906EA85052B4383800483BD
:10137000CD880587028470BD70B50024002200234B
:10138000058C4FF6FF6635400584028C8388848B7C
:101390004FF68F752C404FF6FC752C400D882C4372
:1013A0004FF6FF552A400D894FF6FF7606EA0525D0
:1013B0002A434D8806EA05252A431F4DA84202D03C
:1013C000234DA8421DD14FF2FF752A404D894FF69B
:1013D000FF7606EA05252A434FF6FF352A408D8819
:1013E00006EA05252A434EF6FF752B404DF6FF759C
:1013F0002B408D8906EA05152B43CD8906EA051594
:101400002B4383808483CD888587028470BD70B52B
:10141000002200230024058C4EF6FF76354005841B
:10142000038C8488828B48F6FF752A404FF6FF456F
:101430002A400D8820E00000002C014000040040FC
:1014400000080040000C0040001000400014004064
:1014500000340140004C0140005001400054014064
:1014600000180040001C00400020004000400140E7
:1014700000440140004801404FF6FF7606EA05258A
:101480002A434DF6FF752B400D8906EA05352B439F
:101490004D8806EA05352B43FA4DA84202D0FA4D95
:1014A000A84208D14BF6FF752C408D894FF6FF7688
:1014B00006EA85152C4384808283CD88A0F84050AD
:1014C000038470BD828B4FF2FF331A408283828B7C
:1014D0004FF6FF7303EA01231A4382837047F0B586
:1014E0000C461546002200210026078C4EF6FF7C94
:1014F00007EA0C070784828B018C4FF6FF7707EA17
:10150000043640F6FF473A404FF6FF7707EA0527D3
:101510003A434FF6FF7707EA03373A43D94FB842C9
:101520000ED0D94FB8420BD0B0F1804F08D0D74F72
:10153000B84205D0D64FB84202D0D64FB84206D1F5
:101540004DF6FF77394046F48057394305E047F6BA
:10155000FF57394044F48057394382830184F0BDFA
:10156000828B4FF6F3731A408283828B0A43828305
:101570007047F0B50C461546002200210026078C66
:101580004FF6FF6C07EA0C070784828B018C4FF63D
:10159000FF7707EA04264FF60C773A404FF6FF77BD
:1015A00007EA03172F433A43B64FB8420ED0B64F5F
:1015B000B8420BD0B0F1804F08D0B44FB84205D03C
:1015C000B34FB84202D0B34FB84206D14FF6FF57DF
:1015D000394046F48077394305E04FF2FF573940F0
:1015E00044F48077394382830184F0BD028B4FF24B
:1015F000FF331A400283028B4FF6FF7303EA012385
:101600001A4302837047F0B50C46154600220021AC
:101610000026078C4FF6EF7C07EA0C070784028B45
:10162000018C4FF6FF7707EA041640F6FF473A4071
:101630004FF6FF7707EA03373A434FF6FF7707EA9B
:1016400005273A438F4FB8420ED08F4FB8420BD088
:10165000B0F1804F08D08D4FB84205D08C4FB842C2
:1016600002D08C4FB84206D14FF6DF77394046F0B2
:101670001007394305E04FF65F77394044F0100713
:10168000394302830184F0BD028B4FF6F3731A4095
:101690000283028B0A4302837047F0B50C4615465D
:1016A00000220021068C4FF6FE773E400684028B16
:1016B000018C4FF60C7632407E1C06EA03162E4350
:1016C0003243704EB0420ED06F4EB0420BD0B0F1EC
:1016D000804F08D06D4EB04205D06D4EB04202D062
:1016E0006C4EB04206D14FF6FD76314044F0010613
:1016F000314305E04FF6F576314044F001063143C1
:1017000002830184F0BD70B505460C465D488542F4
:101710000ED05D4885420BD0B5F1804F08D05B48B4
:10172000854205D05A48854202D05A48854200D1A8
:1017300000E000BF208850B92389A288618828462C
:10174000FFF7ABFFE1882846FFF79EFF25E02088E2
:1017500004280AD12389A28861882846FFF753FF0D
:10176000E1882846FFF742FF17E0208808280AD1C1
:101770002389A28861882846FFF7FBFEE188284676
:10178000FFF7EEFE09E02389A28861882846FFF76B
:10179000A6FEE1882846FFF795FE70BD2DE9F041D1
:1017A00005460C4600260127608808B9022600E09D
:1017B0000026A088012801D1022700E00127208807
:1017C000A0B92389A28861882846FFF766FFE188CF
:1017D0002846FFF759FF23893A4631462846FFF746
:1017E00012FFE1882846FFF701FF13E02389A28852
:1017F00061882846FFF707FFE1882846FFF7F6FED5
:1018000023893A4631462846FFF747FFE1882846B4
:10181000FFF73AFFBDE8F0810A884B881A438B88AE
:101820001A43CB881A430B891A434B891A438B8975
:101830001A43A0F8442070474FF6FF7181800021C1
:101840000180C18041800172704700210180418088
:101850008180C180018141818181C18170470021E6
:1018600001804180012181800021C1800181704778
:101870000021018041808180C1800181418181817D
:1018800070470000002C014000340140000400407B
:1018900000080040000C004021B1028842F0010223
:1018A000028004E002884FF6FE731A4002807047FF
:1018B00031B1B0F8442042F40042A0F8442005E0E1
:1018C000B0F84420C2F30E02A0F8442070471AB1C9
:1018D00083890B43838102E083898B438381704733
:1018E0008182704741EA0203A0F8483070471AB17C
:1018F00083890B43838102E083898B438381704713
:1019000001894FF6F8721140018170470A460021A3
:1019100001894FF68F73194011430181704730B52B
:1019200004460D4629462046FFF7F0FF208940F087
:101930000700208130BD2DE9F04104460D461646D2
:101940001F46602D06D13B46012231462046FFF757
:101950005AFE05E03B46012231462046FFF79DFE38
:1019600029462046FFF7D2FF208940F0070020815A
:10197000BDE8F08130B50C4600210189C9B24FF6AF
:10198000FF7505EA0325154325432943018130BD31
:101990002DE9F04105460E46174698460024434679
:1019A0003A4631462846FFF7E5FF2C894FF6F87096
:1019B000044044F007044FF68F70044044F0700474
:1019C0002C81BDE8F081F0B504460D4616461F4651
:1019D0003B46324629462046FFF7CCFF208940F49B
:1019E00080402081F0BD0185828270470A46002137
:1019F00001884FF68F731940114301807047F0B58D
:101A00000C4615461E460021002200230189028B48
:101A1000038C4FF6F877394021434FF6FC473A40A4
:101A200040F201173A434FF6DD773B404FF6FF7720
:101A300007EA06172F433B43018102830384F0BD6D
:101A40000A460021018B4FF68F7319401143018321
:101A500070470A460021018B48F6FF7319404FF684
:101A6000FF7303EA02231943018370470A460021EA
:101A7000818B4FF68F7319401143818370470A465B
:101A80000021818B48F6FF7319404FF6FF7303EA7C
:101A9000022319438183704721B1028842F08002FA
:101AA000028004E002884FF67F731A40028070477C
:101AB00021B1828842F00402828004E082884FF6DD
:101AC000FB731A408280704721B1828842F008027D
:101AD000828004E082884FF6F7731A408280704754
:101AE00021B1828842F00102828004E082884FF6B0
:101AF000FE731A40828070470A460021018B4FF620
:101B0000F77319401143018370470A460021018B86
:101B10004FF2FF7319404FF6FF7303EA0223194394
:101B2000018370470A460021818B4FF6F7731940F5
:101B30001143818370470A460021818B4FF2FF7366
:101B400019404FF6FF7303EA02231943818370475C
:101B50000A460021018B4FF6FB73194011430183A4
:101B600070470A460021018B4FF6FF3319404FF6AC
:101B7000FF7303EA02231943018370470A460021D9
:101B8000818B4FF6FB7319401143818370470A46DE
:101B90000021818B4FF6FF3319404FF6FF7303EAA4
:101BA00002231943818370470A460021018B4FF6B7
:101BB0007F7319401143018370470A460021018B4E
:101BC000C1F30E014FF6FF7303EA022319430183A9
:101BD00070470A460021818B4FF67F7319401143ED
:101BE000818370470A460021818BC1F30E014FF6B5
:101BF000FF7303EA02231943818370470A460021D9
:101C0000018C4FF6FD7319401143018470470A4659
:101C10000021018C4FF6F77319401143018470477E
:101C20000A460021018C4FF6DF7319404FF6FF730F
:101C300003EA02131943018470470A460021018C0C
:101C40004FF67F7319404FF6FF7303EA02131943EF
:101C5000018470470A460021018C4FF6FF5319405A
:101C60004FF6FF7303EA02231943018470470A46C3
:101C70000021018C4FF2FF7319404FF6FF7303EA06
:101C800002231943018470470A460021018C4DF656
:101C9000FF7319404FF6FF7303EA023319430184BF
:101CA000704730B5002301248C40A3B2048C9C43C0
:101CB0000484048C02FA01F5ADB22C43048430BDD7
:101CC00030B5002304248C40A3B2048C9C430484CC
:101CD000048C02FA01F5ADB22C43048430BD70B51A
:101CE0000346002000241846183001258D40ACB270
:101CF0001D8CA5431D8409B1082909D100EB6100A1
:101D0000056825F0700505600568154305600EE05F
:101D10000D1FC5F34E052844056825F4E045056010
:101D200005684FF6FF7606EA02263543056070BD6A
:101D300021B1028842F00202028004E002884FF6DC
:101D4000FD731A400280704721B1028842F00402FC
:101D5000028004E002884FF6FB731A40028070474D
:101D600021B1828842F08002828004E082884FF6AE
:101D70007F731A408280704702884FF6F7731A40CB
:101D8000028002880A430280704782884FF68F7370
:101D90001A40828082880A438280704702894FF607
:101DA000F8731A40028102890A430281704702894E
:101DB0004FF67F731A40028102890A4302817047FD
:101DC000818470478185704781867047018770479D
:101DD00081877047A0F84010704702884FF6FF4394
:101DE0001A40028002880A43028070470146888EAA
:101DF00070470146088F70470146888F704701463B
:101E0000B1F8400070470146888C70470146088D44
:101E1000704702460020138A0B400BB1012000E0FE
:101E200000207047CA430282704730B50246002046
:101E300000230024158A05EA0103958905EA0104B7
:101E400013B10CB1012000E0002030BDCA43028272
:101E5000704700004FF0E021096921F004014FF0C4
:101E6000E0221161C21700EB5272C2F3C7022B4B82
:101E70001A701946097801EB4102C2EBC1114FF605
:101E8000FF7202EAC101264A118070470146234AC7
:101E900012784A434FF0E0235A6100229A611A46B1
:101EA000126942F001021A6100BF4FF0E02210698E
:101EB00000F001021AB100F48032002AF5D04FF090
:101EC000E022126922F001024FF0E0231A610022A1
:101ED0009A6170470146124A12884A434FF0E02344
:101EE0005A6100229A611A46126942F001021A618F
:101EF00000BF4FF0E022106900F001021AB100F4B7
:101F00008032002AF5D04FF0E022126922F001025F
:101F10004FF0E0231A6100229A61704730000020E0
:101F200032000020B94A11880A131303C1F30322B7
:101F300003EB0223C1F3031203EB021201F00F03C0
:101F40001A4491B24D22027043224270552282708F
:101F50004322C27061220271702242713A22827160
:101F60004FF47A7291FBF2F232B14FF47A7291FB34
:101F7000F2F23032C27101E02022C2714FF47A7263
:101F800091FBF2F302FB1312642392FBF3F2303263
:101F90000272642291FBF2F302FB13120A2392FBFA
:101FA000F3F2303242720A2291FBF2F302FB131277
:101FB000303282724B22C27262220273704770B555
:101FC0000446934805682A4692A1204600F0C2FCC8
:101FD00070BD934A0A4002438D4B08331A60704724
:101FE00010B504462046FEF735FA10BDF8B5044694
:101FF0000D4617461E463046FFF7F2FF8DF800707B
:102000008DF801408DF8025001208DF803006846DC
:10201000FEF725FAF8BD00B5002082490861C860C6
:102020001420486100208861C8610846006840F0BB
:1020300001000860084640687B49084079494860CB
:1020400008460068794908407649086008460068F3
:1020500020F4802008600846406820F4FE004860B4
:102060000020886000214FF00060FFF7B2FF00BD44
:1020700010B567481030006840F004006449103122
:1020800008606848C06940F080506649C861684887
:10209000406840F48070664948600846006840F037
:1020A000040008600846006840F002000860FEF77F
:1020B0006FF810BD5F4856490C31086070475949A8
:1020C000896941F00101574A91615B49496821F0F2
:1020D000E061594A51601146496841EA0061516026
:1020E000704730B504460025FFF795FF4D4800685E
:1020F00040F480304B49086000BF4A480068400CFB
:102100000028FAD04FF4806046494860A01EC4B24F
:102110000846406840EA844048600846406840F409
:10212000803048604548006840F03200434908600C
:102130003C48006840F080703A49086000BF394868
:102140000068400E0028FAD03648406840F002008F
:102150003449486005E033484068C0F3870505F01E
:102160000305022DF7D130BD01460A2091FBF0F2A4
:1021700000FB12100A2291FBF2F240EA0210C0B2F8
:102180007047014601F00F000A1102EB820200EBDA
:102190004200C0B2704701464FF47A7091FBF0F0F4
:1021A00000034FF47A7291FBF2F302FB13126423E3
:1021B00092FBF3F240EA02201A4691FBF2F302FB93
:1021C00013120A2392FBF3F240EA02101A4691FB23
:1021D000F2F302FB1312104380B27047014608135A
:1021E0004FF47A725043C1F3032202EBC20303EBB4
:1021F000021200EB8200C1F3031202EB820200EB39
:10220000420001F00F02104480B27047E0F7FF1F58
:1022100000ED00E04350552049443A25303858003D
:1022200080FFFF1F001002400000FFF8FFFFF6FED6
:10223000007000400400FA05000001400020024048
:10224000014600BF704700BF5C4A128802F040029E
:10225000002AF9D0C2B2594B1B1D1A80704710B525
:1022600086B0044655480C30008840F480705349CD
:102270000C3108800846008840F0200008804FF4A8
:10228000A063252203210846FFF7B0FE012144F296
:102290000400FEF769FC4948FEF7CAFC4FF40070E1
:1022A000ADF8140003208DF8160018208DF81700E3
:1022B00005A94348FEF79CF94FF48060ADF814007F
:1022C00004208DF8170005A93D48FEF791F9019407
:1022D0000020ADF80800ADF80A00ADF80C00ADF82C
:1022E00010000C20ADF80E0001A93448FEF7E3FC05
:1022F000012240F225513148FEF775FD01212F489A
:10230000FEF765FD06B010BD10B540F225512B4813
:10231000FEF74EFE002850D02848FEF7C9FDC4B293
:102320002848008800F40040002846D1254800884D
:1023300000F4804038B30A2C1ED00D2021490988B2
:10234000C1F30D01204A50541E480088401C1D490D
:10235000088008460088C0F30D0011460C54194847
:102360000088401C17490880084600884BF6FF711A
:1023700008401449088020E01248008840F40040DA
:102380001049088019E00D2C06D10E48008840F451
:1023900080400C49088010E00A480088C0F30D0016
:1023A00009490C5407480088401C06490880084623
:1023B00000883E2801DD0020088010BD0038014063
:1023C00000080140380000207400002000BF0D4CC0
:1023D0004820FFF73FFD00F0B9F80B4800F008F97E
:1023E0004FF4167000F023F90BE0204600F000F9DE
:1023F000044804440548844200D9024CC820FFF731
:1024000069FDF2E740420F0080C3C901005A620231
:1024100008B501210C20FEF7A7FB4FF49F50ADF843
:10242000000003208DF8020010208DF8030069469B
:10243000F748FEF7DDF84FF4FE70ADF8000069468E
:10244000F448FEF7D5F808BD10B5024680210023F8
:10245000F14C2360002013E002EA01031BB90023C2
:10246000EE4C236002E00123EC4C23600123EA4C94
:10247000236049100023EA4CC4F88C31431CD8B2C5
:102480000828E9DB10BD70B50020E349143108606D
:10249000FFF7DAFF002405E0E249085DFFF7D4FF0B
:1024A000601CC4B2042CF7DB0120DB491431086046
:1024B000002501E0681CC5B20A2DFBDB0020D649CF
:1024C000143108600120FFF7BFFF002405E0D64962
:1024D000085DFFF7B9FF601CC4B2042CF7DB0120D4
:1024E000CD4914310860002501E0681CC5B20A2DF1
:1024F000FBDB0020C849143108600220FFF7A4FF6D
:10250000002405E0C949085DFFF79EFF601CC4B2C6
:10251000042CF7DB0120C04914310860002501E0DC
:10252000681CC5B20A2DFBDB0120BC490C310860D8
:10253000002501E0681CC5B20A2DFBDB0020B7496D
:102540000C3108600120FFF7C5FC70BD10B5FFF726
:102550005FFF0020B149091F0860AF490C310860D6
:10256000AE4918310860AC4910310860AA49091D0C
:102570000860AA49091D08600120A949C1F888011D
:102580000520FFF7A7FC0020A549C1F88801FFF747
:102590007AFF10BD70B500209F49143108600E20ED
:1025A000FFF752FF002505E0A149485DFFF74CFF0A
:1025B000681CC5B2082DF7DB01209749143108606B
:1025C000002401E0601CC4B20A2CFBDB012093490B
:1025D0000C310860002401E0601CC4B20A2CFBDB53
:1025E00000208E490C3108600120FFF773FC70BD9C
:1025F0002DE9F04781468F48814500D981464846FC
:1026000000F0A5FB07468C4A8C4B00F0B3FB054657
:1026100000F070FB04468649CC71200A8871200CBA
:102620004871200E0871FFF7B5FFBDE8F0872DE96E
:10263000F0478146484600F08AFB0746804A814BB6
:1026400000F098FB054600F055FB0446B4F5804FBA
:1026500001D343F6FF74C4F30D0475494C70200A8E
:102660000870FFF797FFBDE8F08770B500206A4952
:10267000143108600B20FFF7E7FE002405E07249E3
:10268000085DFFF7E1FE601CC4B2082CF7DB0120F7
:10269000614914310860002501E0681CC5B20A2DAB
:1026A000FBDB00205C49143108600C20FFF7CCFEF6
:1026B000082405E06449085DFFF7C6FE601CC4B24B
:1026C000102CF7DB0120544914310860002501E08B
:1026D000681CC5B20A2DFBDB00204F49143108608D
:1026E0000D20FFF7B1FE102405E05749085DFFF704
:1026F000ABFE601CC4B2142CF7DB01204649143138
:102700000860002501E0681CC5B20A2DFBDB012032
:1027100042490C310860002501E0681CC5B20A2D51
:10272000FBDB00203D490C3108600120FFF7D2FBA4
:1027300070BD2DE9FF4F85B08A469346059800F09D
:1027400006FB3D4A3D4BCDE9000100F013FBCDE90E
:10275000020100F0CFFA81463648824500D9824610
:10276000504600F0F4FA344A344BCDE9000100F051
:1027700001FBCDE9020100F0BDFA07462D48834573
:1027800000D98346584600F0E2FA2B4A2B4BCDE99C
:10279000000100F0EFFACDE9020100F0ABFA0446C7
:1027A000254608988608B6F5803F01D34FF6FF7698
:1027B000B046254981F807904FEA192088714FEA01
:1027C000194048714FEA19600871CF70380A887053
:1027D000380C4870380E0870CC73200A8873200CAF
:1027E0004873200E0873CD72280A8872280C48722C
:1027F000280E0872CE74300A8874464681F811801B
:102800004FEA18200874FFF730FF09B0BDE8F08FD9
:10281000000C0140000801408C01214298812142B6
:10282000000021423A0000203E000020702F0008E6
:10283000420000200084D71795D626E80B2E1140C1
:10284000CAB1AB7FC6343940B300002070B5002058
:10285000354908600E20FFF7F7FD002505E03349F4
:10286000485DFFF7F1FD681CC5B2082DF7DB0120BC
:102870002D490860002401E0601CC4B20A2CFBDB77
:1028800001202B490860002401E0601CC4B20A2C1E
:10289000FBDB0020264908600120FFF71BFB70BD11
:1028A00070B50020204908601620FFF7CDFD0025F7
:1028B00004E02049485DFFF7C7FD6D1CB5F5805F5A
:1028C000F7D3012018490860002400E0641C0A2C9A
:1028D000FCD3012016490860002400E0641C0A2C87
:1028E000FCD30020124908600120FFF7F3FA70BD05
:1028F00070B50546AC08B4F5803F01D34FF6FF74C0
:1029000024200A49C871002088714871C0200871CC
:102910000F20C8708C70200A487000200870FFF7E4
:1029200095FFFFF7BDFF70BDA00121424A000020C6
:10293000A4812142742F0008704700000FB404499D
:1029400010B503AA029800F085F910BC5DF814FBDD
:10295000340000200FB41CB5074B06AA7B4469461F
:102960000090059800F05DF90020694600F06CF9D0
:102970001CBC5DF814FB0000E902000070B50446C1
:1029800085690068C10601D5302600E02026C00711
:1029900007D070BDD4E9012130469047206A401C21
:1029A00020626D1EF6D570BD70B50446856900784D
:1029B000C00707D170BDD4E9012120209047206ACB
:1029C000401C20626D1EF6D570BD000070B5044637
:1029D0000D4621461068AFF300802188090502D515
:1029E0000F4A7A4402E00E4A7A440E32002104F182
:1029F000240305E000F00F060009965D5E54491CB3
:102A00000028F7D120780023000704D5702D02D0CC
:102A100009B1022311322046BDE8704000F0A2B88F
:102A20008E1500002DE9F05F894604464FF0000A3C
:102A3000DFF824B1FB44C0F820A02046E1688847B5
:102A400000287DD0252806D0D4E901219047206AAE
:102A5000401C2062F1E700255F462046E168884778
:102A60002028064607DB312E05D2B81910F8200CB5
:102A700008B10543F1E7A80701D525F00405C4F81E
:102A80001CA00027C4F818A02A2E09D0304600F058
:102A900029F938B304EB8708303EC8F8186019E00C
:102AA00059F8041B204604EB87029161E1688847CE
:102AB000012F064618D1E069002820DA25F020050C
:102AC0001DE0D8F8180000EB800006EB400030381D
:102AD000C8F818002046E1688847064600F002F969
:102AE0000028EED1012F0AD02E2E08D12046E16811
:102AF00088477F1C0646022F45F02005C4DBA069ED
:102B0000002803DA404245F00105A061E80701D042
:102B100025F01005A6B1A6F14100192802D82036EB
:102B200045F400654A463146204625604D46FDF78E
:102B300017FB60B1012807D0ED1D25F0070000E06C
:102B400007E000F1080978E705F1040975E7304668
:102B50007AE7206ABDE8F09F64150000704770476F
:102B6000704770472DE9F0470D4699469246044656
:102B700000F124080168880604D5E06921F01001FD
:102B8000216000E00120A84201DD471B00E0002792
:102B9000A1697A1902EB0900081AA0612078C00621
:102BA00002D42046FFF7EAFE002608E0D4E901211E
:102BB0001AF806009047206A401C761C20624E4599
:102BC000F4DB2078C0060AD52046FFF7D7FE06E0E2
:102BD000D4E9012130209047206A401C2062381E31
:102BE000A7F10107F4DC07E0D4E9012118F805009A
:102BF0009047206A401C2062281EA5F10105F3DCE5
:102C00002046FFF7D1FE2078000602D50220BDE85D
:102C1000F0870120FBE7000001694A1C0261087887
:102C2000704700B58FB0CDE901310021059105490C
:102C30007944CDE9031011466846FFF7F3FE0FB063
:102C400000BD0000E5FFFFFF0A6802F8010B0A6003
:102C500070470000074B70B50D467B44FFF7E1FF5E
:102C60000446284600F008F810B14FF0FF3070BD60
:102C7000204670BDE9F5FFFF007B00F08000704743
:102C8000754600F02BF8AE4605006946534620F025
:102C90000700854618B020B5FDF7CAFBBDE8204007
:102CA0004FF000064FF000074FF000084FF0000B08
:102CB00021F00701AC46ACE8C009ACE8C009ACE8BB
:102CC000C009ACE8C0098D46704710B50446AFF3A3
:102CD00000802046BDE81040FDF754BA0048704718
:102CE000C800002030380A2801D201207047002097
:102CF000704700004FEA1153A3F58063D3F11E0320
:102D0000A8BFD3F1200C08DB4FF0004242EAC122F9
:102D100052EA505232FA03F0704709420BD4102B9A
:102D2000C4BF0020704703F5787CBCF1FF3F05D09D
:102D30004FF0FF3070474FF00000704770B500F063
:102D4000C3F800BF4992248000207047F0E7B0FA32
:102D500080F310FA03F10AD0C3F11D0303F5806379
:102D60004FEA41504FEA035202EBD12170474FF036
:102D700000007047DFF848C170B51CEA111E1EBF85
:102D80001CEA13159EEA0C0F95EA0C0F00F06F80F9
:102D900081EA030423EA4C134EEAD47E21EA4C1163
:102DA00041F4801143F48013AE44A1FB024CA0FB1C
:102DB0000365AEF17F7E361955EB0C05A1FB034C84
:102DC0004CF10003A0FB021C16EB0C06654153F10D
:102DD0000003094218BF46F0010613F4007F0BD12F
:102DE0004FEA03314FEA0530340341EA155140EA16
:102DF00016506FF003020AE04FEAC3214FEAC520E4
:102E0000F40241EA555140EA56506FF0020202EBDB
:102E10002E4201EB025585EACE710AD05FEA440CDE
:102E200018BF24F0004450F1000041F1000120EAF5
:102E3000D47040F2FE7C624500D270BDA84214BF3F
:102E40004FF080444FF04044002E08BF0024BEF1F4
:102E5000806FA8BFA1F1C041BDE8704080F28280C0
:102E60004FF0000001F1C04101F0004170479EEABF
:102E70000C0F0CEA131518BF95EA0C0F06D04FF093
:102E8000000081EA030E0EF0004170BD00F01CF856
:102E90008900013E00F007B800F009B84FEA430C82
:102EA0005FEA5C5C08D081EA030100F05BB84FEA9E
:102EB000410C5FEA5C5CF6D14FF0000001497047BD
:102EC0000000FF070000F87F0EF1020E2EF0030E47
:102ED0005EF8046B364205D4012A43EB030515F571
:102EE000001F12D8012841EB010C1CF5001F0CD863
:102EF0000ED14FEAD17C15F5001F0CEB4C0C0CF1F8
:102F0000020C08BF4CEBD37C04E04FF0080C01E04E
:102F10004FEAD37C0CEB4C0526FA05F606F00706C3
:102F2000B6F1040C06D20EEB860CBDE870404CF0F6
:102F3000010C6047DFE80CF0090B02024FF0004182
:102F40004FF00000A1F5002170BD19461046012880
:102F500051EB010418BFD4F5001484BF002001F028
:102F6000004170BD0808A0F500114FEA310170471B
:102F7000050F41320000000003FC000007F80000CC
:102F80000BF400000FF0000013EC000017E8000045
:102F90001BE400001FE0000023DC000027D8000035
:102FA0002BD400002FD0000033CC000037C8000025
:102FB0003BC400003FC0000043BC000047B8000015
:102FC0004BB400004FB0000053AC000057A8000005
:102FD0005BA400005FA00000639C000067980000F5
:102FE0006B9400006F900000738C000077880000E5
:102FF0007B8400007F800000837C000087780000D5
:103000008B7400008F700000936C000097680000C4
:103010009B6400009F600000A35C0000A7580000B4
:10302000AB540000AF500000B34C0000B7480000A4
:10303000BB440000BF400000C33C0000C738000094
:10304000CB340000CF300000D32C0000D728000084
:10305000DB240000DF200000E31C0000E718000074
:10306000EB140000EF100000F30C0000F708000064
:10307000FB040000FFFC0000FFFC0000FFFC000060
:10308000FFFC0000FFFC0000FFFC0000FFFC000054
:10309000FFFC0000FFFC0000FFFC0000FFFC000044
:1030A000FFFC0000FFFC0000FFFC0000FFFC000034
:1030B000FFFC0000FFFC0000FFFC0000FFFC000024
:1030C000FFFC0000FFFC0000FFFC0000FFFC000014
:1030D000FFFC0000FFFC0000FFFC0000FFFC000004
:1030E000FFFC0000FFFC0000FFFC0000FFFC0000F4
:1030F000FFFC0000000000000000000000000000D5
:1031000000000000000000000000000000000000BF
:1031100000000000000000000000000000000000AF
:10312000000000000000000000000000000000009F
:10313000000000000000000000000000000000008F
:10314000000000000000000000000000000000007F
:10315000000000000000000000000000000000006F
:10316000000000000000000000000000000000005F
:1031700000000000FFFC0000FFFC0000FFFC00005E
:10318000FFFC0000FFFC0000FFFC0000FFFC000053
:10319000FFFC0000FFFC0000FFFC0000FFFC000043
:1031A000FFFC0000FFFC0000FFFC0000FFFC000033
:1031B000FFFC0000FFFC0000FFFC0000FFFC000023
:1037F000FFFC0000000000000000000000000000CE
:1038000000000000000000000000000000000000B8
:1038100000000000000000000000000000000000A8
:103820000000000000000000000000000000000098
:103830000000000000000000000000000000000088
:103F700000000000303132333435363738394142B1
:103F800043444546403058003031323334353637BB
:103F90003839616263646566403078000400000867
:103FA00000000000000000020001000010000000FE
:103FB000D03F000800000020740000002801000825
:103FC0004440000874000020B406000044010008CA
:103FD000000000000000000000A24A0400000000F1
:103FE00000000000010203040607080900000000A9
:103FF000010203040102030406070809020406087B
:10400000000000000000000000000040000001006F
:1040100000003FFF000025097B4200000000000077
:104020000000000000000000000000000000000090
:104030000000000000000000000000000000000080
:04404000000000007C
:04000005080000ED02
:00000001FF
